{
	"src/Void.sol": {
		"Void": {
			"abi": [
				{
					"inputs": [
						{
							"internalType": "address",
							"name": "_owner",
							"type": "address"
						}
					],
					"stateMutability": "nonpayable",
					"type": "constructor"
				},
				{
					"inputs": [],
					"name": "AlreadyExists",
					"type": "error"
				},
				{
					"inputs": [],
					"name": "InvalidId",
					"type": "error"
				},
				{
					"inputs": [],
					"name": "InvalidOwner",
					"type": "error"
				},
				{
					"inputs": [],
					"name": "InvalidRecipient",
					"type": "error"
				},
				{
					"inputs": [],
					"name": "InvalidSender",
					"type": "error"
				},
				{
					"inputs": [],
					"name": "NotFound",
					"type": "error"
				},
				{
					"inputs": [],
					"name": "Unauthorized",
					"type": "error"
				},
				{
					"inputs": [],
					"name": "UnsafeRecipient",
					"type": "error"
				},
				{
					"anonymous": false,
					"inputs": [
						{
							"indexed": true,
							"internalType": "address",
							"name": "owner",
							"type": "address"
						},
						{
							"indexed": true,
							"internalType": "address",
							"name": "spender",
							"type": "address"
						},
						{
							"indexed": false,
							"internalType": "uint256",
							"name": "amount",
							"type": "uint256"
						}
					],
					"name": "Approval",
					"type": "event"
				},
				{
					"anonymous": false,
					"inputs": [
						{
							"indexed": true,
							"internalType": "address",
							"name": "owner",
							"type": "address"
						},
						{
							"indexed": true,
							"internalType": "address",
							"name": "operator",
							"type": "address"
						},
						{
							"indexed": false,
							"internalType": "bool",
							"name": "approved",
							"type": "bool"
						}
					],
					"name": "ApprovalForAll",
					"type": "event"
				},
				{
					"anonymous": false,
					"inputs": [
						{
							"indexed": true,
							"internalType": "address",
							"name": "owner",
							"type": "address"
						},
						{
							"indexed": true,
							"internalType": "address",
							"name": "spender",
							"type": "address"
						},
						{
							"indexed": false,
							"internalType": "uint256",
							"name": "amount",
							"type": "uint256"
						}
					],
					"name": "ERC20Approval",
					"type": "event"
				},
				{
					"anonymous": false,
					"inputs": [
						{
							"indexed": true,
							"internalType": "address",
							"name": "from",
							"type": "address"
						},
						{
							"indexed": true,
							"internalType": "address",
							"name": "to",
							"type": "address"
						},
						{
							"indexed": false,
							"internalType": "uint256",
							"name": "amount",
							"type": "uint256"
						}
					],
					"name": "ERC20Transfer",
					"type": "event"
				},
				{
					"anonymous": false,
					"inputs": [
						{
							"indexed": true,
							"internalType": "address",
							"name": "owner",
							"type": "address"
						},
						{
							"indexed": true,
							"internalType": "address",
							"name": "spender",
							"type": "address"
						},
						{
							"indexed": true,
							"internalType": "uint256",
							"name": "id",
							"type": "uint256"
						}
					],
					"name": "ERC721Approval",
					"type": "event"
				},
				{
					"anonymous": false,
					"inputs": [
						{
							"indexed": true,
							"internalType": "address",
							"name": "user",
							"type": "address"
						},
						{
							"indexed": true,
							"internalType": "address",
							"name": "newOwner",
							"type": "address"
						}
					],
					"name": "OwnershipTransferred",
					"type": "event"
				},
				{
					"anonymous": false,
					"inputs": [
						{
							"indexed": true,
							"internalType": "address",
							"name": "from",
							"type": "address"
						},
						{
							"indexed": true,
							"internalType": "address",
							"name": "to",
							"type": "address"
						},
						{
							"indexed": true,
							"internalType": "uint256",
							"name": "id",
							"type": "uint256"
						}
					],
					"name": "Transfer",
					"type": "event"
				},
				{
					"inputs": [
						{
							"internalType": "address",
							"name": "",
							"type": "address"
						},
						{
							"internalType": "address",
							"name": "",
							"type": "address"
						}
					],
					"name": "allowance",
					"outputs": [
						{
							"internalType": "uint256",
							"name": "",
							"type": "uint256"
						}
					],
					"stateMutability": "view",
					"type": "function"
				},
				{
					"inputs": [
						{
							"internalType": "address",
							"name": "spender",
							"type": "address"
						},
						{
							"internalType": "uint256",
							"name": "amountOrId",
							"type": "uint256"
						}
					],
					"name": "approve",
					"outputs": [
						{
							"internalType": "bool",
							"name": "",
							"type": "bool"
						}
					],
					"stateMutability": "nonpayable",
					"type": "function"
				},
				{
					"inputs": [
						{
							"internalType": "address",
							"name": "",
							"type": "address"
						}
					],
					"name": "balanceOf",
					"outputs": [
						{
							"internalType": "uint256",
							"name": "",
							"type": "uint256"
						}
					],
					"stateMutability": "view",
					"type": "function"
				},
				{
					"inputs": [],
					"name": "baseTokenURI",
					"outputs": [
						{
							"internalType": "string",
							"name": "",
							"type": "string"
						}
					],
					"stateMutability": "view",
					"type": "function"
				},
				{
					"inputs": [],
					"name": "dataURI",
					"outputs": [
						{
							"internalType": "string",
							"name": "",
							"type": "string"
						}
					],
					"stateMutability": "view",
					"type": "function"
				},
				{
					"inputs": [],
					"name": "decimals",
					"outputs": [
						{
							"internalType": "uint8",
							"name": "",
							"type": "uint8"
						}
					],
					"stateMutability": "view",
					"type": "function"
				},
				{
					"inputs": [
						{
							"internalType": "uint256",
							"name": "",
							"type": "uint256"
						}
					],
					"name": "getApproved",
					"outputs": [
						{
							"internalType": "address",
							"name": "",
							"type": "address"
						}
					],
					"stateMutability": "view",
					"type": "function"
				},
				{
					"inputs": [
						{
							"internalType": "address",
							"name": "",
							"type": "address"
						},
						{
							"internalType": "address",
							"name": "",
							"type": "address"
						}
					],
					"name": "isApprovedForAll",
					"outputs": [
						{
							"internalType": "bool",
							"name": "",
							"type": "bool"
						}
					],
					"stateMutability": "view",
					"type": "function"
				},
				{
					"inputs": [],
					"name": "minted",
					"outputs": [
						{
							"internalType": "uint256",
							"name": "",
							"type": "uint256"
						}
					],
					"stateMutability": "view",
					"type": "function"
				},
				{
					"inputs": [],
					"name": "name",
					"outputs": [
						{
							"internalType": "string",
							"name": "",
							"type": "string"
						}
					],
					"stateMutability": "view",
					"type": "function"
				},
				{
					"inputs": [],
					"name": "owner",
					"outputs": [
						{
							"internalType": "address",
							"name": "",
							"type": "address"
						}
					],
					"stateMutability": "view",
					"type": "function"
				},
				{
					"inputs": [
						{
							"internalType": "uint256",
							"name": "id",
							"type": "uint256"
						}
					],
					"name": "ownerOf",
					"outputs": [
						{
							"internalType": "address",
							"name": "owner",
							"type": "address"
						}
					],
					"stateMutability": "view",
					"type": "function"
				},
				{
					"inputs": [],
					"name": "revokeOwnership",
					"outputs": [],
					"stateMutability": "nonpayable",
					"type": "function"
				},
				{
					"inputs": [
						{
							"internalType": "address",
							"name": "from",
							"type": "address"
						},
						{
							"internalType": "address",
							"name": "to",
							"type": "address"
						},
						{
							"internalType": "uint256",
							"name": "id",
							"type": "uint256"
						}
					],
					"name": "safeTransferFrom",
					"outputs": [],
					"stateMutability": "nonpayable",
					"type": "function"
				},
				{
					"inputs": [
						{
							"internalType": "address",
							"name": "from",
							"type": "address"
						},
						{
							"internalType": "address",
							"name": "to",
							"type": "address"
						},
						{
							"internalType": "uint256",
							"name": "id",
							"type": "uint256"
						},
						{
							"internalType": "bytes",
							"name": "data",
							"type": "bytes"
						}
					],
					"name": "safeTransferFrom",
					"outputs": [],
					"stateMutability": "nonpayable",
					"type": "function"
				},
				{
					"inputs": [
						{
							"internalType": "address",
							"name": "operator",
							"type": "address"
						},
						{
							"internalType": "bool",
							"name": "approved",
							"type": "bool"
						}
					],
					"name": "setApprovalForAll",
					"outputs": [],
					"stateMutability": "nonpayable",
					"type": "function"
				},
				{
					"inputs": [
						{
							"internalType": "string",
							"name": "_dataURI",
							"type": "string"
						}
					],
					"name": "setDataURI",
					"outputs": [],
					"stateMutability": "nonpayable",
					"type": "function"
				},
				{
					"inputs": [
						{
							"internalType": "string",
							"name": "_name",
							"type": "string"
						},
						{
							"internalType": "string",
							"name": "_symbol",
							"type": "string"
						}
					],
					"name": "setNameSymbol",
					"outputs": [],
					"stateMutability": "nonpayable",
					"type": "function"
				},
				{
					"inputs": [
						{
							"internalType": "string",
							"name": "_tokenURI",
							"type": "string"
						}
					],
					"name": "setTokenURI",
					"outputs": [],
					"stateMutability": "nonpayable",
					"type": "function"
				},
				{
					"inputs": [
						{
							"internalType": "address",
							"name": "target",
							"type": "address"
						},
						{
							"internalType": "bool",
							"name": "state",
							"type": "bool"
						}
					],
					"name": "setWhitelist",
					"outputs": [],
					"stateMutability": "nonpayable",
					"type": "function"
				},
				{
					"inputs": [],
					"name": "symbol",
					"outputs": [
						{
							"internalType": "string",
							"name": "",
							"type": "string"
						}
					],
					"stateMutability": "view",
					"type": "function"
				},
				{
					"inputs": [
						{
							"internalType": "uint256",
							"name": "id",
							"type": "uint256"
						}
					],
					"name": "tokenURI",
					"outputs": [
						{
							"internalType": "string",
							"name": "",
							"type": "string"
						}
					],
					"stateMutability": "view",
					"type": "function"
				},
				{
					"inputs": [],
					"name": "totalSupply",
					"outputs": [
						{
							"internalType": "uint256",
							"name": "",
							"type": "uint256"
						}
					],
					"stateMutability": "view",
					"type": "function"
				},
				{
					"inputs": [
						{
							"internalType": "address",
							"name": "to",
							"type": "address"
						},
						{
							"internalType": "uint256",
							"name": "amount",
							"type": "uint256"
						}
					],
					"name": "transfer",
					"outputs": [
						{
							"internalType": "bool",
							"name": "",
							"type": "bool"
						}
					],
					"stateMutability": "nonpayable",
					"type": "function"
				},
				{
					"inputs": [
						{
							"internalType": "address",
							"name": "from",
							"type": "address"
						},
						{
							"internalType": "address",
							"name": "to",
							"type": "address"
						},
						{
							"internalType": "uint256",
							"name": "amountOrId",
							"type": "uint256"
						}
					],
					"name": "transferFrom",
					"outputs": [
						{
							"internalType": "bool",
							"name": "",
							"type": "bool"
						}
					],
					"stateMutability": "nonpayable",
					"type": "function"
				},
				{
					"inputs": [
						{
							"internalType": "address",
							"name": "_owner",
							"type": "address"
						}
					],
					"name": "transferOwnership",
					"outputs": [],
					"stateMutability": "nonpayable",
					"type": "function"
				},
				{
					"inputs": [
						{
							"internalType": "address",
							"name": "",
							"type": "address"
						}
					],
					"name": "whitelist",
					"outputs": [
						{
							"internalType": "bool",
							"name": "",
							"type": "bool"
						}
					],
					"stateMutability": "view",
					"type": "function"
				},
				{
					"inputs": [
						{
							"internalType": "uint256",
							"name": "amount",
							"type": "uint256"
						}
					],
					"name": "yeet",
					"outputs": [],
					"stateMutability": "nonpayable",
					"type": "function"
				}
			],
			"devdoc": {
				"kind": "dev",
				"methods": {
					"approve(address,uint256)": {
						"details": "This function assumes id / native if amount less than or equal to current max id"
					},
					"transferFrom(address,address,uint256)": {
						"details": "This function assumes id / native if amount less than or equal to current max id"
					}
				},
				"version": 1
			},
			"evm": {
				"assembly": "    /* \"src/Void.sol\":139:1743  contract Void is ERC404 {... */\n  mstore(0x40, 0xa0)\n    /* \"src/Void.sol\":229:386  constructor(address _owner) ERC404(\"Void\", \"VOID\", 18, 10000, _owner) {... */\n  callvalue\n  dup1\n  iszero\n  tag_1\n  jumpi\n  0x00\n  dup1\n  revert\ntag_1:\n  pop\n  mload(0x40)\n  sub(codesize, bytecodeSize)\n  dup1\n  bytecodeSize\n  dup4\n  codecopy\n  dup2\n  add\n  0x40\n  dup2\n  swap1\n  mstore\n  tag_2\n  swap2\n  tag_3\n  jump\t// in\ntag_2:\n    /* \"src/ERC404.sol\":4181:4506  constructor(... */\n  mload(0x40)\n  dup1\n  0x40\n  add\n  0x40\n  mstore\n  dup1\n  0x04\n  dup2\n  mstore\n  0x20\n  add\n  shl(0xe2, 0x159bda59)\n  dup2\n  mstore\n  pop\n  mload(0x40)\n  dup1\n  0x40\n  add\n  0x40\n  mstore\n  dup1\n  0x04\n  dup2\n  mstore\n  0x20\n  add\n  shl(0xe2, 0x1593d251)\n  dup2\n  mstore\n  pop\n    /* \"src/Void.sol\":280:282  18 */\n  0x12\n    /* \"src/Void.sol\":284:289  10000 */\n  0x2710\n    /* \"src/Void.sol\":291:297  _owner */\n  dup5\n    /* \"src/ERC404.sol\":4352:4358  _owner */\n  dup1\n    /* \"src/ERC404.sol\":426:427  0 */\n  0x00\n  sub(shl(0xa0, 0x01), 0x01)\n    /* \"src/ERC404.sol\":408:428  _owner == address(0) */\n  and\n    /* \"src/ERC404.sol\":408:414  _owner */\n  dup2\n  sub(shl(0xa0, 0x01), 0x01)\n    /* \"src/ERC404.sol\":408:428  _owner == address(0) */\n  and\n  sub\n    /* \"src/ERC404.sol\":404:451  if (_owner == address(0)) revert InvalidOwner() */\n  tag_8\n  jumpi\n    /* \"src/ERC404.sol\":437:451  InvalidOwner() */\n  mload(0x40)\n  shl(0xe0, 0x49e27cff)\n  dup2\n  mstore\n  0x04\n  add\n  mload(0x40)\n  dup1\n  swap2\n  sub\n  swap1\n  revert\n    /* \"src/ERC404.sol\":404:451  if (_owner == address(0)) revert InvalidOwner() */\ntag_8:\n    /* \"src/ERC404.sol\":462:467  owner */\n  0x00\n    /* \"src/ERC404.sol\":462:476  owner = _owner */\n  dup1\n  sload\n  not(sub(shl(0xa0, 0x01), 0x01))\n  and\n  sub(shl(0xa0, 0x01), 0x01)\n  dup4\n  and\n  swap1\n  dup2\n  or\n  dup3\n  sstore\n    /* \"src/ERC404.sol\":492:532  OwnershipTransferred(address(0), _owner) */\n  mload(0x40)\n    /* \"src/ERC404.sol\":462:476  owner = _owner */\n  swap1\n  swap2\n    /* \"src/ERC404.sol\":462:467  owner */\n  swap1\n    /* \"src/ERC404.sol\":492:532  OwnershipTransferred(address(0), _owner) */\n  0x8be0079c531659141344cd1fd0a4f28419497f9722a3daafe3b4186f6b6457e0\n  swap1\n    /* \"src/ERC404.sol\":462:467  owner */\n  dup3\n  swap1\n    /* \"src/ERC404.sol\":492:532  OwnershipTransferred(address(0), _owner) */\n  log3\n  pop\n    /* \"src/ERC404.sol\":4370:4374  name */\n  0x01\n    /* \"src/ERC404.sol\":4370:4382  name = _name */\n  tag_10\n    /* \"src/ERC404.sol\":4377:4382  _name */\n  dup7\n    /* \"src/ERC404.sol\":4370:4374  name */\n  dup3\n    /* \"src/ERC404.sol\":4370:4382  name = _name */\n  tag_11\n  jump\t// in\ntag_10:\n  pop\n    /* \"src/ERC404.sol\":4392:4398  symbol */\n  0x02\n    /* \"src/ERC404.sol\":4392:4408  symbol = _symbol */\n  tag_12\n    /* \"src/ERC404.sol\":4401:4408  _symbol */\n  dup6\n    /* \"src/ERC404.sol\":4392:4398  symbol */\n  dup3\n    /* \"src/ERC404.sol\":4392:4408  symbol = _symbol */\n  tag_11\n  jump\t// in\ntag_12:\n  pop\n    /* \"src/ERC404.sol\":4418:4438  decimals = _decimals */\n  0xff\n  dup4\n  and\n  0x80\n  dup2\n  swap1\n  mstore\n    /* \"src/ERC404.sol\":4484:4498  10 ** decimals */\n  tag_13\n  swap1\n    /* \"src/ERC404.sol\":4484:4486  10 */\n  0x0a\n    /* \"src/ERC404.sol\":4484:4498  10 ** decimals */\n  tag_14\n  jump\t// in\ntag_13:\n    /* \"src/ERC404.sol\":4462:4499  _totalNativeSupply * (10 ** decimals) */\n  tag_15\n  swap1\n    /* \"src/ERC404.sol\":4462:4480  _totalNativeSupply */\n  dup4\n    /* \"src/ERC404.sol\":4462:4499  _totalNativeSupply * (10 ** decimals) */\n  tag_16\n  jump\t// in\ntag_15:\n    /* \"src/ERC404.sol\":4448:4459  totalSupply */\n  0x03\n    /* \"src/ERC404.sol\":4448:4499  totalSupply = _totalNativeSupply * (10 ** decimals) */\n  sstore\n  pop\n  pop\n  pop\n  sub(shl(0xa0, 0x01), 0x01)\n    /* \"src/Void.sol\":309:326  balanceOf[_owner] */\n  swap1\n  swap3\n  and\n  0x00\n  swap1\n  dup2\n  mstore\n    /* \"src/Void.sol\":309:318  balanceOf */\n  0x05\n    /* \"src/Void.sol\":309:326  balanceOf[_owner] */\n  0x20\n  swap1\n  dup2\n  mstore\n  0x40\n  dup1\n  dup4\n  keccak256\n    /* \"src/Void.sol\":329:345  10000 * 10 ** 18 */\n  0x021e19e0c9bab2400000\n    /* \"src/Void.sol\":309:345  balanceOf[_owner] = 10000 * 10 ** 18 */\n  swap1\n  sstore\n    /* \"src/Void.sol\":355:364  whitelist */\n  0x0c\n    /* \"src/Void.sol\":355:372  whitelist[_owner] */\n  swap1\n  swap2\n  mstore\n  swap1\n  keccak256\n    /* \"src/Void.sol\":355:379  whitelist[_owner] = true */\n  dup1\n  sload\n  not(0xff)\n  and\n    /* \"src/Void.sol\":375:379  true */\n  0x01\n    /* \"src/Void.sol\":355:379  whitelist[_owner] = true */\n  or\n  swap1\n  sstore\n  pop\n    /* \"src/Void.sol\":139:1743  contract Void is ERC404 {... */\n  tag_27\n  swap1\n  pop\n  jump\n    /* \"#utility.yul\":14:304   */\ntag_3:\n    /* \"#utility.yul\":84:90   */\n  0x00\n    /* \"#utility.yul\":137:139   */\n  0x20\n    /* \"#utility.yul\":125:134   */\n  dup3\n    /* \"#utility.yul\":116:123   */\n  dup5\n    /* \"#utility.yul\":112:135   */\n  sub\n    /* \"#utility.yul\":108:140   */\n  slt\n    /* \"#utility.yul\":105:157   */\n  iszero\n  tag_29\n  jumpi\n    /* \"#utility.yul\":153:154   */\n  0x00\n    /* \"#utility.yul\":150:151   */\n  dup1\n    /* \"#utility.yul\":143:155   */\n  revert\n    /* \"#utility.yul\":105:157   */\ntag_29:\n    /* \"#utility.yul\":179:195   */\n  dup2\n  mload\n  sub(shl(0xa0, 0x01), 0x01)\n    /* \"#utility.yul\":224:255   */\n  dup2\n  and\n    /* \"#utility.yul\":214:256   */\n  dup2\n  eq\n    /* \"#utility.yul\":204:274   */\n  tag_30\n  jumpi\n    /* \"#utility.yul\":270:271   */\n  0x00\n    /* \"#utility.yul\":267:268   */\n  dup1\n    /* \"#utility.yul\":260:272   */\n  revert\n    /* \"#utility.yul\":204:274   */\ntag_30:\n    /* \"#utility.yul\":293:298   */\n  swap4\n    /* \"#utility.yul\":14:304   */\n  swap3\n  pop\n  pop\n  pop\n  jump\t// out\n    /* \"#utility.yul\":309:436   */\ntag_19:\n    /* \"#utility.yul\":370:380   */\n  0x4e487b71\n    /* \"#utility.yul\":365:368   */\n  0xe0\n    /* \"#utility.yul\":361:381   */\n  shl\n    /* \"#utility.yul\":358:359   */\n  0x00\n    /* \"#utility.yul\":351:382   */\n  mstore\n    /* \"#utility.yul\":401:405   */\n  0x41\n    /* \"#utility.yul\":398:399   */\n  0x04\n    /* \"#utility.yul\":391:406   */\n  mstore\n    /* \"#utility.yul\":425:429   */\n  0x24\n    /* \"#utility.yul\":422:423   */\n  0x00\n    /* \"#utility.yul\":415:430   */\n  revert\n    /* \"#utility.yul\":441:821   */\ntag_20:\n    /* \"#utility.yul\":520:521   */\n  0x01\n    /* \"#utility.yul\":516:528   */\n  dup2\n  dup2\n  shr\n  swap1\n    /* \"#utility.yul\":563:575   */\n  dup3\n  and\n  dup1\n    /* \"#utility.yul\":584:645   */\n  tag_33\n  jumpi\n    /* \"#utility.yul\":638:642   */\n  0x7f\n    /* \"#utility.yul\":630:636   */\n  dup3\n    /* \"#utility.yul\":626:643   */\n  and\n    /* \"#utility.yul\":616:643   */\n  swap2\n  pop\n    /* \"#utility.yul\":584:645   */\ntag_33:\n    /* \"#utility.yul\":691:693   */\n  0x20\n    /* \"#utility.yul\":683:689   */\n  dup3\n    /* \"#utility.yul\":680:694   */\n  lt\n    /* \"#utility.yul\":660:678   */\n  dup2\n    /* \"#utility.yul\":657:695   */\n  sub\n    /* \"#utility.yul\":654:815   */\n  tag_34\n  jumpi\n    /* \"#utility.yul\":737:747   */\n  0x4e487b71\n    /* \"#utility.yul\":732:735   */\n  0xe0\n    /* \"#utility.yul\":728:748   */\n  shl\n    /* \"#utility.yul\":725:726   */\n  0x00\n    /* \"#utility.yul\":718:749   */\n  mstore\n    /* \"#utility.yul\":772:776   */\n  0x22\n    /* \"#utility.yul\":769:770   */\n  0x04\n    /* \"#utility.yul\":762:777   */\n  mstore\n    /* \"#utility.yul\":800:804   */\n  0x24\n    /* \"#utility.yul\":797:798   */\n  0x00\n    /* \"#utility.yul\":790:805   */\n  revert\n    /* \"#utility.yul\":654:815   */\ntag_34:\n  pop\n    /* \"#utility.yul\":441:821   */\n  swap2\n  swap1\n  pop\n  jump\t// out\n    /* \"#utility.yul\":952:1470   */\ntag_22:\n    /* \"#utility.yul\":1054:1056   */\n  0x1f\n    /* \"#utility.yul\":1049:1052   */\n  dup3\n    /* \"#utility.yul\":1046:1057   */\n  gt\n    /* \"#utility.yul\":1043:1464   */\n  iszero\n  tag_37\n  jumpi\n    /* \"#utility.yul\":1090:1095   */\n  dup1\n    /* \"#utility.yul\":1087:1088   */\n  0x00\n    /* \"#utility.yul\":1080:1096   */\n  mstore\n    /* \"#utility.yul\":1134:1138   */\n  0x20\n    /* \"#utility.yul\":1131:1132   */\n  0x00\n    /* \"#utility.yul\":1121:1139   */\n  keccak256\n    /* \"#utility.yul\":1204:1206   */\n  0x1f\n    /* \"#utility.yul\":1192:1202   */\n  dup5\n    /* \"#utility.yul\":1188:1207   */\n  add\n    /* \"#utility.yul\":1185:1186   */\n  0x05\n    /* \"#utility.yul\":1181:1208   */\n  shr\n    /* \"#utility.yul\":1175:1179   */\n  dup2\n    /* \"#utility.yul\":1171:1209   */\n  add\n    /* \"#utility.yul\":1240:1244   */\n  0x20\n    /* \"#utility.yul\":1228:1238   */\n  dup6\n    /* \"#utility.yul\":1225:1245   */\n  lt\n    /* \"#utility.yul\":1222:1269   */\n  iszero\n  tag_38\n  jumpi\n  pop\n    /* \"#utility.yul\":1263:1267   */\n  dup1\n    /* \"#utility.yul\":1222:1269   */\ntag_38:\n    /* \"#utility.yul\":1318:1320   */\n  0x1f\n    /* \"#utility.yul\":1313:1316   */\n  dup5\n    /* \"#utility.yul\":1309:1321   */\n  add\n    /* \"#utility.yul\":1306:1307   */\n  0x05\n    /* \"#utility.yul\":1302:1322   */\n  shr\n    /* \"#utility.yul\":1296:1300   */\n  dup3\n    /* \"#utility.yul\":1292:1323   */\n  add\n    /* \"#utility.yul\":1282:1323   */\n  swap2\n  pop\n    /* \"#utility.yul\":1373:1454   */\ntag_39:\n    /* \"#utility.yul\":1391:1393   */\n  dup2\n    /* \"#utility.yul\":1384:1389   */\n  dup2\n    /* \"#utility.yul\":1381:1394   */\n  lt\n    /* \"#utility.yul\":1373:1454   */\n  iszero\n  tag_41\n  jumpi\n    /* \"#utility.yul\":1450:1451   */\n  0x00\n    /* \"#utility.yul\":1436:1452   */\n  dup2\n  sstore\n    /* \"#utility.yul\":1417:1418   */\n  0x01\n    /* \"#utility.yul\":1406:1419   */\n  add\n    /* \"#utility.yul\":1373:1454   */\n  jump(tag_39)\ntag_41:\n    /* \"#utility.yul\":1377:1380   */\n  pop\n  pop\n    /* \"#utility.yul\":1043:1464   */\ntag_37:\n    /* \"#utility.yul\":952:1470   */\n  pop\n  pop\n  pop\n  jump\t// out\n    /* \"#utility.yul\":1646:2991   */\ntag_11:\n    /* \"#utility.yul\":1766:1776   */\n  dup2\n  mload\n  sub(shl(0x40, 0x01), 0x01)\n    /* \"#utility.yul\":1788:1818   */\n  dup2\n  gt\n    /* \"#utility.yul\":1785:1841   */\n  iszero\n  tag_45\n  jumpi\n    /* \"#utility.yul\":1821:1839   */\n  tag_45\n  tag_19\n  jump\t// in\ntag_45:\n    /* \"#utility.yul\":1850:1947   */\n  tag_46\n    /* \"#utility.yul\":1940:1946   */\n  dup2\n    /* \"#utility.yul\":1900:1938   */\n  tag_47\n    /* \"#utility.yul\":1932:1936   */\n  dup5\n    /* \"#utility.yul\":1926:1937   */\n  sload\n    /* \"#utility.yul\":1900:1938   */\n  tag_20\n  jump\t// in\ntag_47:\n    /* \"#utility.yul\":1894:1898   */\n  dup5\n    /* \"#utility.yul\":1850:1947   */\n  tag_22\n  jump\t// in\ntag_46:\n    /* \"#utility.yul\":2002:2006   */\n  0x20\n  dup1\n    /* \"#utility.yul\":2059:2061   */\n  0x1f\n    /* \"#utility.yul\":2048:2062   */\n  dup4\n  gt\n    /* \"#utility.yul\":2076:2077   */\n  0x01\n    /* \"#utility.yul\":2071:2734   */\n  dup2\n  eq\n  tag_49\n  jumpi\n    /* \"#utility.yul\":2778:2779   */\n  0x00\n    /* \"#utility.yul\":2795:2801   */\n  dup5\n    /* \"#utility.yul\":2792:2881   */\n  iszero\n  tag_50\n  jumpi\n  pop\n    /* \"#utility.yul\":2847:2866   */\n  dup6\n  dup4\n  add\n    /* \"#utility.yul\":2841:2867   */\n  mload\n    /* \"#utility.yul\":2792:2881   */\ntag_50:\n  not(0x00)\n    /* \"#utility.yul\":1603:1604   */\n  0x03\n    /* \"#utility.yul\":1599:1610   */\n  dup7\n  swap1\n  shl\n    /* \"#utility.yul\":1595:1619   */\n  shr\n    /* \"#utility.yul\":1591:1620   */\n  not\n    /* \"#utility.yul\":1581:1621   */\n  and\n    /* \"#utility.yul\":1627:1628   */\n  0x01\n    /* \"#utility.yul\":1623:1634   */\n  dup6\n  swap1\n  shl\n    /* \"#utility.yul\":1578:1635   */\n  or\n    /* \"#utility.yul\":2894:2975   */\n  dup6\n  sstore\n    /* \"#utility.yul\":2041:2985   */\n  jump(tag_48)\n    /* \"#utility.yul\":2071:2734   */\ntag_49:\n    /* \"#utility.yul\":899:900   */\n  0x00\n    /* \"#utility.yul\":892:906   */\n  dup6\n  dup2\n  mstore\n    /* \"#utility.yul\":936:940   */\n  0x20\n    /* \"#utility.yul\":923:941   */\n  dup2\n  keccak256\n  not(0x1f)\n    /* \"#utility.yul\":2107:2127   */\n  dup7\n  and\n  swap2\n    /* \"#utility.yul\":2225:2461   */\ntag_53:\n    /* \"#utility.yul\":2239:2246   */\n  dup3\n    /* \"#utility.yul\":2236:2237   */\n  dup2\n    /* \"#utility.yul\":2233:2247   */\n  lt\n    /* \"#utility.yul\":2225:2461   */\n  iszero\n  tag_55\n  jumpi\n    /* \"#utility.yul\":2328:2347   */\n  dup9\n  dup7\n  add\n    /* \"#utility.yul\":2322:2348   */\n  mload\n    /* \"#utility.yul\":2307:2349   */\n  dup3\n  sstore\n    /* \"#utility.yul\":2420:2447   */\n  swap5\n  dup5\n  add\n  swap5\n    /* \"#utility.yul\":2388:2389   */\n  0x01\n    /* \"#utility.yul\":2376:2390   */\n  swap1\n  swap2\n  add\n  swap1\n    /* \"#utility.yul\":2255:2274   */\n  dup5\n  add\n    /* \"#utility.yul\":2225:2461   */\n  jump(tag_53)\ntag_55:\n    /* \"#utility.yul\":2229:2232   */\n  pop\n    /* \"#utility.yul\":2489:2495   */\n  dup6\n    /* \"#utility.yul\":2480:2487   */\n  dup3\n    /* \"#utility.yul\":2477:2496   */\n  lt\n    /* \"#utility.yul\":2474:2675   */\n  iszero\n  tag_56\n  jumpi\n    /* \"#utility.yul\":2550:2569   */\n  dup8\n  dup6\n  add\n    /* \"#utility.yul\":2544:2570   */\n  mload\n  not(0x00)\n    /* \"#utility.yul\":2633:2634   */\n  0x03\n    /* \"#utility.yul\":2629:2643   */\n  dup9\n  swap1\n  shl\n    /* \"#utility.yul\":2645:2648   */\n  0xf8\n    /* \"#utility.yul\":2625:2649   */\n  and\n    /* \"#utility.yul\":2621:2658   */\n  shr\n    /* \"#utility.yul\":2617:2659   */\n  not\n    /* \"#utility.yul\":2602:2660   */\n  and\n    /* \"#utility.yul\":2587:2661   */\n  dup2\n  sstore\n    /* \"#utility.yul\":2474:2675   */\ntag_56:\n  pop\n  pop\n    /* \"#utility.yul\":2721:2722   */\n  0x01\n    /* \"#utility.yul\":2712:2718   */\n  dup5\n    /* \"#utility.yul\":2709:2710   */\n  0x01\n    /* \"#utility.yul\":2705:2719   */\n  shl\n    /* \"#utility.yul\":2701:2723   */\n  add\n    /* \"#utility.yul\":2695:2699   */\n  dup6\n    /* \"#utility.yul\":2688:2724   */\n  sstore\n    /* \"#utility.yul\":2041:2985   */\ntag_48:\n  pop\n  pop\n  pop\n  pop\n    /* \"#utility.yul\":1646:2991   */\n  pop\n  pop\n  jump\t// out\n    /* \"#utility.yul\":2996:3123   */\ntag_24:\n    /* \"#utility.yul\":3057:3067   */\n  0x4e487b71\n    /* \"#utility.yul\":3052:3055   */\n  0xe0\n    /* \"#utility.yul\":3048:3068   */\n  shl\n    /* \"#utility.yul\":3045:3046   */\n  0x00\n    /* \"#utility.yul\":3038:3069   */\n  mstore\n    /* \"#utility.yul\":3088:3092   */\n  0x11\n    /* \"#utility.yul\":3085:3086   */\n  0x04\n    /* \"#utility.yul\":3078:3093   */\n  mstore\n    /* \"#utility.yul\":3112:3116   */\n  0x24\n    /* \"#utility.yul\":3109:3110   */\n  0x00\n    /* \"#utility.yul\":3102:3117   */\n  revert\n    /* \"#utility.yul\":3128:3544   */\ntag_25:\n    /* \"#utility.yul\":3217:3218   */\n  0x01\n    /* \"#utility.yul\":3254:3259   */\n  dup2\n    /* \"#utility.yul\":3217:3218   */\n  dup2\n    /* \"#utility.yul\":3268:3538   */\ntag_59:\n    /* \"#utility.yul\":3289:3296   */\n  dup1\n    /* \"#utility.yul\":3279:3287   */\n  dup6\n    /* \"#utility.yul\":3276:3297   */\n  gt\n    /* \"#utility.yul\":3268:3538   */\n  iszero\n  tag_61\n  jumpi\n    /* \"#utility.yul\":3348:3352   */\n  dup2\n    /* \"#utility.yul\":3344:3345   */\n  0x00\n    /* \"#utility.yul\":3340:3346   */\n  not\n    /* \"#utility.yul\":3336:3353   */\n  div\n    /* \"#utility.yul\":3330:3334   */\n  dup3\n    /* \"#utility.yul\":3327:3354   */\n  gt\n    /* \"#utility.yul\":3324:3377   */\n  iszero\n  tag_63\n  jumpi\n    /* \"#utility.yul\":3357:3375   */\n  tag_63\n  tag_24\n  jump\t// in\ntag_63:\n    /* \"#utility.yul\":3407:3414   */\n  dup1\n    /* \"#utility.yul\":3397:3405   */\n  dup6\n    /* \"#utility.yul\":3393:3415   */\n  and\n    /* \"#utility.yul\":3390:3445   */\n  iszero\n  tag_64\n  jumpi\n    /* \"#utility.yul\":3427:3443   */\n  swap2\n  dup2\n  mul\n  swap2\n    /* \"#utility.yul\":3390:3445   */\ntag_64:\n    /* \"#utility.yul\":3506:3528   */\n  swap4\n  dup5\n  shr\n  swap4\n    /* \"#utility.yul\":3466:3481   */\n  swap1\n  dup1\n  mul\n  swap1\n    /* \"#utility.yul\":3268:3538   */\n  jump(tag_59)\ntag_61:\n    /* \"#utility.yul\":3272:3275   */\n  pop\n    /* \"#utility.yul\":3128:3544   */\n  swap3\n  pop\n  swap3\n  swap1\n  pop\n  jump\t// out\n    /* \"#utility.yul\":3549:4355   */\ntag_26:\n    /* \"#utility.yul\":3598:3603   */\n  0x00\n    /* \"#utility.yul\":3628:3636   */\n  dup3\n    /* \"#utility.yul\":3618:3698   */\n  tag_66\n  jumpi\n  pop\n    /* \"#utility.yul\":3669:3670   */\n  0x01\n    /* \"#utility.yul\":3683:3688   */\n  jump(tag_65)\n    /* \"#utility.yul\":3618:3698   */\ntag_66:\n    /* \"#utility.yul\":3717:3721   */\n  dup2\n    /* \"#utility.yul\":3707:3783   */\n  tag_67\n  jumpi\n  pop\n    /* \"#utility.yul\":3754:3755   */\n  0x00\n    /* \"#utility.yul\":3768:3773   */\n  jump(tag_65)\n    /* \"#utility.yul\":3707:3783   */\ntag_67:\n    /* \"#utility.yul\":3799:3803   */\n  dup2\n    /* \"#utility.yul\":3817:3818   */\n  0x01\n    /* \"#utility.yul\":3812:3871   */\n  dup2\n  eq\n  tag_69\n  jumpi\n    /* \"#utility.yul\":3885:3886   */\n  0x02\n    /* \"#utility.yul\":3880:4010   */\n  dup2\n  eq\n  tag_70\n  jumpi\n    /* \"#utility.yul\":3792:4010   */\n  jump(tag_68)\n    /* \"#utility.yul\":3812:3871   */\ntag_69:\n    /* \"#utility.yul\":3842:3843   */\n  0x01\n    /* \"#utility.yul\":3833:3843   */\n  swap2\n  pop\n    /* \"#utility.yul\":3856:3861   */\n  pop\n  jump(tag_65)\n    /* \"#utility.yul\":3880:4010   */\ntag_70:\n    /* \"#utility.yul\":3917:3920   */\n  0xff\n    /* \"#utility.yul\":3907:3915   */\n  dup5\n    /* \"#utility.yul\":3904:3921   */\n  gt\n    /* \"#utility.yul\":3901:3944   */\n  iszero\n  tag_72\n  jumpi\n    /* \"#utility.yul\":3924:3942   */\n  tag_72\n  tag_24\n  jump\t// in\ntag_72:\n  pop\n  pop\n    /* \"#utility.yul\":3980:3981   */\n  0x01\n    /* \"#utility.yul\":3966:3982   */\n  dup3\n  shl\n    /* \"#utility.yul\":3995:4000   */\n  jump(tag_65)\n    /* \"#utility.yul\":3792:4010   */\ntag_68:\n  pop\n    /* \"#utility.yul\":4094:4096   */\n  0x20\n    /* \"#utility.yul\":4084:4092   */\n  dup4\n    /* \"#utility.yul\":4081:4097   */\n  lt\n    /* \"#utility.yul\":4075:4078   */\n  0x0133\n    /* \"#utility.yul\":4069:4073   */\n  dup4\n    /* \"#utility.yul\":4066:4079   */\n  lt\n    /* \"#utility.yul\":4062:4098   */\n  and\n    /* \"#utility.yul\":4056:4058   */\n  0x4e\n    /* \"#utility.yul\":4046:4054   */\n  dup5\n    /* \"#utility.yul\":4043:4059   */\n  lt\n    /* \"#utility.yul\":4038:4040   */\n  0x0b\n    /* \"#utility.yul\":4032:4036   */\n  dup5\n    /* \"#utility.yul\":4029:4041   */\n  lt\n    /* \"#utility.yul\":4025:4060   */\n  and\n    /* \"#utility.yul\":4022:4099   */\n  or\n    /* \"#utility.yul\":4019:4178   */\n  iszero\n  tag_73\n  jumpi\n  pop\n    /* \"#utility.yul\":4131:4150   */\n  dup2\n  dup2\n  exp\n    /* \"#utility.yul\":4163:4168   */\n  jump(tag_65)\n    /* \"#utility.yul\":4019:4178   */\ntag_73:\n    /* \"#utility.yul\":4210:4244   */\n  tag_74\n    /* \"#utility.yul\":4235:4243   */\n  dup4\n    /* \"#utility.yul\":4229:4233   */\n  dup4\n    /* \"#utility.yul\":4210:4244   */\n  tag_25\n  jump\t// in\ntag_74:\n    /* \"#utility.yul\":4280:4286   */\n  dup1\n    /* \"#utility.yul\":4276:4277   */\n  0x00\n    /* \"#utility.yul\":4272:4278   */\n  not\n    /* \"#utility.yul\":4268:4287   */\n  div\n    /* \"#utility.yul\":4259:4266   */\n  dup3\n    /* \"#utility.yul\":4256:4288   */\n  gt\n    /* \"#utility.yul\":4253:4311   */\n  iszero\n  tag_76\n  jumpi\n    /* \"#utility.yul\":4291:4309   */\n  tag_76\n  tag_24\n  jump\t// in\ntag_76:\n    /* \"#utility.yul\":4329:4349   */\n  mul\n  swap1\n  pop\n    /* \"#utility.yul\":3549:4355   */\ntag_65:\n  swap3\n  swap2\n  pop\n  pop\n  jump\t// out\n    /* \"#utility.yul\":4360:4500   */\ntag_14:\n    /* \"#utility.yul\":4418:4423   */\n  0x00\n    /* \"#utility.yul\":4447:4494   */\n  tag_30\n    /* \"#utility.yul\":4488:4492   */\n  0xff\n    /* \"#utility.yul\":4478:4486   */\n  dup5\n    /* \"#utility.yul\":4474:4493   */\n  and\n    /* \"#utility.yul\":4468:4472   */\n  dup4\n    /* \"#utility.yul\":4447:4494   */\n  tag_26\n  jump\t// in\n    /* \"#utility.yul\":4505:4673   */\ntag_16:\n    /* \"#utility.yul\":4578:4587   */\n  dup1\n  dup3\n  mul\n    /* \"#utility.yul\":4609:4618   */\n  dup2\n  iszero\n    /* \"#utility.yul\":4626:4641   */\n  dup3\n  dup3\n  div\n    /* \"#utility.yul\":4620:4642   */\n  dup5\n  eq\n    /* \"#utility.yul\":4606:4643   */\n  or\n    /* \"#utility.yul\":4596:4667   */\n  tag_65\n  jumpi\n    /* \"#utility.yul\":4647:4665   */\n  tag_65\n  tag_24\n  jump\t// in\n    /* \"#utility.yul\":4505:4673   */\ntag_27:\n    /* \"src/Void.sol\":139:1743  contract Void is ERC404 {... */\n  mload(0x80)\n  codecopy(0x00, dataOffset(sub_0), dataSize(sub_0))\n  0x00\n  assignImmutable(\"0x9bca270d0850fcb8a3fcc18af189ab4779e3d042217bf9eb693aea2595978cd8\")\n  return(0x00, dataSize(sub_0))\nstop\n\nsub_0: assembly {\n        /* \"src/Void.sol\":139:1743  contract Void is ERC404 {... */\n      mstore(0x40, 0x80)\n      callvalue\n      dup1\n      iszero\n      tag_1\n      jumpi\n      0x00\n      dup1\n      revert\n    tag_1:\n      pop\n      jumpi(tag_2, lt(calldatasize, 0x04))\n      shr(0xe0, calldataload(0x00))\n      dup1\n      0x70a08231\n      gt\n      tag_31\n      jumpi\n      dup1\n      0xc87b56dd\n      gt\n      tag_32\n      jumpi\n      dup1\n      0xe0df5b6f\n      gt\n      tag_33\n      jumpi\n      dup1\n      0xe0df5b6f\n      eq\n      tag_27\n      jumpi\n      dup1\n      0xe985e9c5\n      eq\n      tag_28\n      jumpi\n      dup1\n      0xf28ca1dd\n      eq\n      tag_29\n      jumpi\n      dup1\n      0xf2fde38b\n      eq\n      tag_30\n      jumpi\n      0x00\n      dup1\n      revert\n    tag_33:\n      dup1\n      0xc87b56dd\n      eq\n      tag_24\n      jumpi\n      dup1\n      0xd547cfb7\n      eq\n      tag_25\n      jumpi\n      dup1\n      0xdd62ed3e\n      eq\n      tag_26\n      jumpi\n      0x00\n      dup1\n      revert\n    tag_32:\n      dup1\n      0x9b19251a\n      gt\n      tag_34\n      jumpi\n      dup1\n      0x9b19251a\n      eq\n      tag_20\n      jumpi\n      dup1\n      0xa22cb465\n      eq\n      tag_21\n      jumpi\n      dup1\n      0xa9059cbb\n      eq\n      tag_22\n      jumpi\n      dup1\n      0xb88d4fde\n      eq\n      tag_23\n      jumpi\n      0x00\n      dup1\n      revert\n    tag_34:\n      dup1\n      0x70a08231\n      eq\n      tag_17\n      jumpi\n      dup1\n      0x8da5cb5b\n      eq\n      tag_18\n      jumpi\n      dup1\n      0x95d89b41\n      eq\n      tag_19\n      jumpi\n      0x00\n      dup1\n      revert\n    tag_31:\n      dup1\n      0x313ce567\n      gt\n      tag_35\n      jumpi\n      dup1\n      0x504334c2\n      gt\n      tag_36\n      jumpi\n      dup1\n      0x504334c2\n      eq\n      tag_13\n      jumpi\n      dup1\n      0x53d6fd59\n      eq\n      tag_14\n      jumpi\n      dup1\n      0x6352211e\n      eq\n      tag_15\n      jumpi\n      dup1\n      0x664dfa01\n      eq\n      tag_16\n      jumpi\n      0x00\n      dup1\n      revert\n    tag_36:\n      dup1\n      0x313ce567\n      eq\n      tag_10\n      jumpi\n      dup1\n      0x42842e0e\n      eq\n      tag_11\n      jumpi\n      dup1\n      0x4f02c420\n      eq\n      tag_12\n      jumpi\n      0x00\n      dup1\n      revert\n    tag_35:\n      dup1\n      0x18160ddd\n      gt\n      tag_37\n      jumpi\n      dup1\n      0x18160ddd\n      eq\n      tag_6\n      jumpi\n      dup1\n      0x18d217c3\n      eq\n      tag_7\n      jumpi\n      dup1\n      0x23b872dd\n      eq\n      tag_8\n      jumpi\n      dup1\n      0x2b968958\n      eq\n      tag_9\n      jumpi\n      0x00\n      dup1\n      revert\n    tag_37:\n      dup1\n      0x06fdde03\n      eq\n      tag_3\n      jumpi\n      dup1\n      0x081812fc\n      eq\n      tag_4\n      jumpi\n      dup1\n      0x095ea7b3\n      eq\n      tag_5\n      jumpi\n    tag_2:\n      0x00\n      dup1\n      revert\n        /* \"src/ERC404.sol\":2838:2856  string public name */\n    tag_3:\n      tag_38\n      tag_39\n      jump\t// in\n    tag_38:\n      mload(0x40)\n      tag_40\n      swap2\n      swap1\n      tag_41\n      jump\t// in\n    tag_40:\n      mload(0x40)\n      dup1\n      swap2\n      sub\n      swap1\n      return\n        /* \"src/ERC404.sol\":3518:3564  mapping(uint256 => address) public getApproved */\n    tag_4:\n      tag_42\n      tag_43\n      calldatasize\n      0x04\n      tag_44\n      jump\t// in\n    tag_43:\n      mstore(0x20, 0x07)\n      0x00\n      swap1\n      dup2\n      mstore\n      0x40\n      swap1\n      keccak256\n      sload\n      sub(shl(0xa0, 0x01), 0x01)\n      and\n      dup2\n      jump\n    tag_42:\n      mload(0x40)\n      sub(shl(0xa0, 0x01), 0x01)\n        /* \"#utility.yul\":1019:1051   */\n      swap1\n      swap2\n      and\n        /* \"#utility.yul\":1001:1052   */\n      dup2\n      mstore\n        /* \"#utility.yul\":989:991   */\n      0x20\n        /* \"#utility.yul\":974:992   */\n      add\n        /* \"src/ERC404.sol\":3518:3564  mapping(uint256 => address) public getApproved */\n      tag_40\n        /* \"#utility.yul\":855:1058   */\n      jump\n        /* \"src/ERC404.sol\":5298:6045  function approve(... */\n    tag_5:\n      tag_48\n      tag_49\n      calldatasize\n      0x04\n      tag_50\n      jump\t// in\n    tag_49:\n      tag_51\n      jump\t// in\n    tag_48:\n      mload(0x40)\n        /* \"#utility.yul\":1665:1679   */\n      swap1\n      iszero\n        /* \"#utility.yul\":1658:1680   */\n      iszero\n        /* \"#utility.yul\":1640:1681   */\n      dup2\n      mstore\n        /* \"#utility.yul\":1628:1630   */\n      0x20\n        /* \"#utility.yul\":1613:1631   */\n      add\n        /* \"src/ERC404.sol\":5298:6045  function approve(... */\n      tag_40\n        /* \"#utility.yul\":1500:1687   */\n      jump\n        /* \"src/ERC404.sol\":3065:3091  uint256 public totalSupply */\n    tag_6:\n      tag_54\n      sload(0x03)\n      dup2\n      jump\n    tag_54:\n      mload(0x40)\n        /* \"#utility.yul\":1838:1863   */\n      swap1\n      dup2\n      mstore\n        /* \"#utility.yul\":1826:1828   */\n      0x20\n        /* \"#utility.yul\":1811:1829   */\n      add\n        /* \"src/ERC404.sol\":3065:3091  uint256 public totalSupply */\n      tag_40\n        /* \"#utility.yul\":1692:1869   */\n      jump\n        /* \"src/Void.sol\":570:666  function setDataURI(string memory _dataURI) public onlyOwner {... */\n    tag_7:\n      tag_58\n      tag_59\n      calldatasize\n      0x04\n      tag_60\n      jump\t// in\n    tag_59:\n      tag_61\n      jump\t// in\n    tag_58:\n      stop\n        /* \"src/ERC404.sol\":6441:8305  function transferFrom(... */\n    tag_8:\n      tag_48\n      tag_63\n      calldatasize\n      0x04\n      tag_64\n      jump\t// in\n    tag_63:\n      tag_65\n      jump\t// in\n        /* \"src/ERC404.sol\":764:911  function revokeOwnership() public virtual onlyOwner {... */\n    tag_9:\n      tag_58\n      tag_68\n      jump\t// in\n        /* \"src/ERC404.sol\":2968:2999  uint8 public immutable decimals */\n    tag_10:\n      tag_69\n      immutable(\"0x9bca270d0850fcb8a3fcc18af189ab4779e3d042217bf9eb693aea2595978cd8\")\n      dup2\n      jump\n    tag_69:\n      mload(0x40)\n        /* \"#utility.yul\":3562:3566   */\n      0xff\n        /* \"#utility.yul\":3550:3567   */\n      swap1\n      swap2\n      and\n        /* \"#utility.yul\":3532:3568   */\n      dup2\n      mstore\n        /* \"#utility.yul\":3520:3522   */\n      0x20\n        /* \"#utility.yul\":3505:3523   */\n      add\n        /* \"src/ERC404.sol\":2968:2999  uint8 public immutable decimals */\n      tag_40\n        /* \"#utility.yul\":3390:3574   */\n      jump\n        /* \"src/ERC404.sol\":8590:9062  function safeTransferFrom(... */\n    tag_11:\n      tag_58\n      tag_74\n      calldatasize\n      0x04\n      tag_64\n      jump\t// in\n    tag_74:\n      tag_75\n      jump\t// in\n        /* \"src/ERC404.sol\":3187:3208  uint256 public minted */\n    tag_12:\n      tag_54\n      sload(0x04)\n      dup2\n      jump\n        /* \"src/Void.sol\":782:913  function setNameSymbol(string memory _name, string memory _symbol) public onlyOwner {... */\n    tag_13:\n      tag_58\n      tag_80\n      calldatasize\n      0x04\n      tag_81\n      jump\t// in\n    tag_80:\n      tag_82\n      jump\t// in\n        /* \"src/ERC404.sol\":4645:4754  function setWhitelist(address target, bool state) public onlyOwner {... */\n    tag_14:\n      tag_58\n      tag_84\n      calldatasize\n      0x04\n      tag_85\n      jump\t// in\n    tag_84:\n      tag_86\n      jump\t// in\n        /* \"src/ERC404.sol\":4823:5010  function ownerOf(uint256 id) public view virtual returns (address owner) {... */\n    tag_15:\n      tag_42\n      tag_88\n      calldatasize\n      0x04\n      tag_44\n      jump\t// in\n    tag_88:\n      tag_89\n      jump\t// in\n        /* \"src/Void.sol\":392:564  function yeet(uint256 amount) public {... */\n    tag_16:\n      tag_58\n      tag_92\n      calldatasize\n      0x04\n      tag_44\n      jump\t// in\n    tag_92:\n      tag_93\n      jump\t// in\n        /* \"src/ERC404.sol\":3290:3334  mapping(address => uint256) public balanceOf */\n    tag_17:\n      tag_54\n      tag_95\n      calldatasize\n      0x04\n      tag_96\n      jump\t// in\n    tag_95:\n      mstore(0x20, 0x05)\n      0x00\n      swap1\n      dup2\n      mstore\n      0x40\n      swap1\n      keccak256\n      sload\n      dup2\n      jump\n        /* \"src/ERC404.sol\":229:249  address public owner */\n    tag_18:\n      sload(0x00)\n      tag_42\n      swap1\n      sub(shl(0xa0, 0x01), 0x01)\n      and\n      dup2\n      jump\n        /* \"src/ERC404.sol\":2889:2909  string public symbol */\n    tag_19:\n      tag_38\n      tag_103\n      jump\t// in\n        /* \"src/ERC404.sol\":4114:4155  mapping(address => bool) public whitelist */\n    tag_20:\n      tag_48\n      tag_106\n      calldatasize\n      0x04\n      tag_96\n      jump\t// in\n    tag_106:\n      mstore(0x20, 0x0c)\n      0x00\n      swap1\n      dup2\n      mstore\n      0x40\n      swap1\n      keccak256\n      sload\n      0xff\n      and\n      dup2\n      jump\n        /* \"src/ERC404.sol\":6093:6296  function setApprovalForAll(address operator, bool approved) public virtual {... */\n    tag_21:\n      tag_58\n      tag_110\n      calldatasize\n      0x04\n      tag_85\n      jump\t// in\n    tag_110:\n      tag_111\n      jump\t// in\n        /* \"src/ERC404.sol\":8361:8516  function transfer(... */\n    tag_22:\n      tag_48\n      tag_113\n      calldatasize\n      0x04\n      tag_50\n      jump\t// in\n    tag_113:\n      tag_114\n      jump\t// in\n        /* \"src/ERC404.sol\":9154:9666  function safeTransferFrom(... */\n    tag_23:\n      tag_58\n      tag_117\n      calldatasize\n      0x04\n      tag_118\n      jump\t// in\n    tag_117:\n      tag_119\n      jump\t// in\n        /* \"src/Void.sol\":919:1741  function tokenURI(uint256 id) public view override returns (string memory) {... */\n    tag_24:\n      tag_38\n      tag_121\n      calldatasize\n      0x04\n      tag_44\n      jump\t// in\n    tag_121:\n      tag_122\n      jump\t// in\n        /* \"src/Void.sol\":196:222  string public baseTokenURI */\n    tag_25:\n      tag_38\n      tag_125\n      jump\t// in\n        /* \"src/ERC404.sol\":3401:3465  mapping(address => mapping(address => uint256)) public allowance */\n    tag_26:\n      tag_54\n      tag_128\n      calldatasize\n      0x04\n      tag_129\n      jump\t// in\n    tag_128:\n      0x06\n      0x20\n      swap1\n      dup2\n      mstore\n      0x00\n      swap3\n      dup4\n      mstore\n      0x40\n      dup1\n      dup5\n      keccak256\n      swap1\n      swap2\n      mstore\n      swap1\n      dup3\n      mstore\n      swap1\n      keccak256\n      sload\n      dup2\n      jump\n        /* \"src/Void.sol\":672:776  function setTokenURI(string memory _tokenURI) public onlyOwner {... */\n    tag_27:\n      tag_58\n      tag_133\n      calldatasize\n      0x04\n      tag_60\n      jump\t// in\n    tag_133:\n      tag_134\n      jump\t// in\n        /* \"src/ERC404.sol\":3626:3694  mapping(address => mapping(address => bool)) public isApprovedForAll */\n    tag_28:\n      tag_48\n      tag_136\n      calldatasize\n      0x04\n      tag_129\n      jump\t// in\n    tag_136:\n      0x08\n      0x20\n      swap1\n      dup2\n      mstore\n      0x00\n      swap3\n      dup4\n      mstore\n      0x40\n      dup1\n      dup5\n      keccak256\n      swap1\n      swap2\n      mstore\n      swap1\n      dup3\n      mstore\n      swap1\n      keccak256\n      sload\n      0xff\n      and\n      dup2\n      jump\n        /* \"src/Void.sol\":169:190  string public dataURI */\n    tag_29:\n      tag_38\n      tag_140\n      jump\t// in\n        /* \"src/ERC404.sol\":545:758  function transferOwnership(address _owner) public virtual onlyOwner {... */\n    tag_30:\n      tag_58\n      tag_143\n      calldatasize\n      0x04\n      tag_96\n      jump\t// in\n    tag_143:\n      tag_144\n      jump\t// in\n        /* \"src/ERC404.sol\":2838:2856  string public name */\n    tag_39:\n      0x01\n      dup1\n      sload\n      tag_145\n      swap1\n      tag_146\n      jump\t// in\n    tag_145:\n      dup1\n      0x1f\n      add\n      0x20\n      dup1\n      swap2\n      div\n      mul\n      0x20\n      add\n      mload(0x40)\n      swap1\n      dup2\n      add\n      0x40\n      mstore\n      dup1\n      swap3\n      swap2\n      swap1\n      dup2\n      dup2\n      mstore\n      0x20\n      add\n      dup3\n      dup1\n      sload\n      tag_147\n      swap1\n      tag_146\n      jump\t// in\n    tag_147:\n      dup1\n      iszero\n      tag_148\n      jumpi\n      dup1\n      0x1f\n      lt\n      tag_149\n      jumpi\n      0x0100\n      dup1\n      dup4\n      sload\n      div\n      mul\n      dup4\n      mstore\n      swap2\n      0x20\n      add\n      swap2\n      jump(tag_148)\n    tag_149:\n      dup3\n      add\n      swap2\n      swap1\n      0x00\n      mstore\n      keccak256(0x00, 0x20)\n      swap1\n    tag_150:\n      dup2\n      sload\n      dup2\n      mstore\n      swap1\n      0x01\n      add\n      swap1\n      0x20\n      add\n      dup1\n      dup4\n      gt\n      tag_150\n      jumpi\n      dup3\n      swap1\n      sub\n      0x1f\n      and\n      dup3\n      add\n      swap2\n    tag_148:\n      pop\n      pop\n      pop\n      pop\n      pop\n      dup2\n      jump\t// out\n        /* \"src/ERC404.sol\":5298:6045  function approve(... */\n    tag_51:\n        /* \"src/ERC404.sol\":5398:5402  bool */\n      0x00\n        /* \"src/ERC404.sol\":5432:5438  minted */\n      sload(0x04)\n        /* \"src/ERC404.sol\":5418:5428  amountOrId */\n      dup3\n        /* \"src/ERC404.sol\":5418:5438  amountOrId <= minted */\n      gt\n      iszero\n        /* \"src/ERC404.sol\":5418:5456  amountOrId <= minted && amountOrId > 0 */\n      dup1\n      iszero\n      tag_152\n      jumpi\n      pop\n        /* \"src/ERC404.sol\":5455:5456  0 */\n      0x00\n        /* \"src/ERC404.sol\":5442:5452  amountOrId */\n      dup3\n        /* \"src/ERC404.sol\":5442:5456  amountOrId > 0 */\n      gt\n        /* \"src/ERC404.sol\":5418:5456  amountOrId <= minted && amountOrId > 0 */\n    tag_152:\n        /* \"src/ERC404.sol\":5414:6017  if (amountOrId <= minted && amountOrId > 0) {... */\n      iszero\n      tag_153\n      jumpi\n        /* \"src/ERC404.sol\":5472:5485  address owner */\n      0x00\n        /* \"src/ERC404.sol\":5488:5508  _ownerOf[amountOrId] */\n      dup3\n      dup2\n      mstore\n        /* \"src/ERC404.sol\":5488:5496  _ownerOf */\n      0x09\n        /* \"src/ERC404.sol\":5488:5508  _ownerOf[amountOrId] */\n      0x20\n      mstore\n      0x40\n      swap1\n      keccak256\n      sload\n      sub(shl(0xa0, 0x01), 0x01)\n      and\n        /* \"src/ERC404.sol\":5527:5537  msg.sender */\n      caller\n        /* \"src/ERC404.sol\":5527:5546  msg.sender != owner */\n      dup2\n      eq\n      dup1\n      iszero\n      swap1\n        /* \"src/ERC404.sol\":5527:5586  msg.sender != owner && !isApprovedForAll[owner][msg.sender] */\n      tag_154\n      jumpi\n      pop\n      sub(shl(0xa0, 0x01), 0x01)\n        /* \"src/ERC404.sol\":5551:5574  isApprovedForAll[owner] */\n      dup2\n      and\n      0x00\n      swap1\n      dup2\n      mstore\n        /* \"src/ERC404.sol\":5551:5567  isApprovedForAll */\n      0x08\n        /* \"src/ERC404.sol\":5551:5574  isApprovedForAll[owner] */\n      0x20\n      swap1\n      dup2\n      mstore\n      0x40\n      dup1\n      dup4\n      keccak256\n        /* \"src/ERC404.sol\":5575:5585  msg.sender */\n      caller\n        /* \"src/ERC404.sol\":5551:5586  isApprovedForAll[owner][msg.sender] */\n      dup5\n      mstore\n      swap1\n      swap2\n      mstore\n      swap1\n      keccak256\n      sload\n      0xff\n      and\n        /* \"src/ERC404.sol\":5550:5586  !isApprovedForAll[owner][msg.sender] */\n      iszero\n        /* \"src/ERC404.sol\":5527:5586  msg.sender != owner && !isApprovedForAll[owner][msg.sender] */\n    tag_154:\n        /* \"src/ERC404.sol\":5523:5642  if (msg.sender != owner && !isApprovedForAll[owner][msg.sender]) {... */\n      iszero\n      tag_155\n      jumpi\n        /* \"src/ERC404.sol\":5613:5627  Unauthorized() */\n      mload(0x40)\n      shl(0xe8, 0x82b429)\n      dup2\n      mstore\n      0x04\n      add\n      mload(0x40)\n      dup1\n      swap2\n      sub\n      swap1\n      revert\n        /* \"src/ERC404.sol\":5523:5642  if (msg.sender != owner && !isApprovedForAll[owner][msg.sender]) {... */\n    tag_155:\n        /* \"src/ERC404.sol\":5656:5679  getApproved[amountOrId] */\n      0x00\n      dup4\n      dup2\n      mstore\n        /* \"src/ERC404.sol\":5656:5667  getApproved */\n      0x07\n        /* \"src/ERC404.sol\":5656:5679  getApproved[amountOrId] */\n      0x20\n      swap1\n      dup2\n      mstore\n      0x40\n      swap2\n      dup3\n      swap1\n      keccak256\n        /* \"src/ERC404.sol\":5656:5689  getApproved[amountOrId] = spender */\n      dup1\n      sload\n      not(sub(shl(0xa0, 0x01), 0x01))\n      and\n      sub(shl(0xa0, 0x01), 0x01)\n      dup9\n      dup2\n      and\n      swap2\n      dup3\n      or\n      swap1\n      swap3\n      sstore\n        /* \"src/ERC404.sol\":5709:5745  Approval(owner, spender, amountOrId) */\n      swap3\n      mload\n        /* \"#utility.yul\":1838:1863   */\n      dup7\n      dup2\n      mstore\n        /* \"src/ERC404.sol\":5709:5745  Approval(owner, spender, amountOrId) */\n      swap1\n      dup5\n      and\n      swap2\n      0x8c5be1e5ebec7d5bd14f71427d1e84f3dd0314c0f7b2291e5b200ac8c7c3b925\n      swap2\n        /* \"#utility.yul\":1811:1829   */\n      add\n        /* \"src/ERC404.sol\":5709:5745  Approval(owner, spender, amountOrId) */\n      mload(0x40)\n      dup1\n      swap2\n      sub\n      swap1\n      log3\n        /* \"src/ERC404.sol\":5795:5805  amountOrId */\n      dup3\n        /* \"src/ERC404.sol\":5786:5793  spender */\n      dup5\n      sub(shl(0xa0, 0x01), 0x01)\n        /* \"src/ERC404.sol\":5764:5806  ERC721Approval(owner, spender, amountOrId) */\n      and\n        /* \"src/ERC404.sol\":5779:5784  owner */\n      dup3\n      sub(shl(0xa0, 0x01), 0x01)\n        /* \"src/ERC404.sol\":5764:5806  ERC721Approval(owner, spender, amountOrId) */\n      and\n      0x797365dabb18fa726ccbccbe18c6f24c34e3b0653f2e99ea873bd7b84763dde6\n      mload(0x40)\n      mload(0x40)\n      dup1\n      swap2\n      sub\n      swap1\n      log4\n        /* \"src/ERC404.sol\":5458:5817  {... */\n      pop\n        /* \"src/ERC404.sol\":5414:6017  if (amountOrId <= minted && amountOrId > 0) {... */\n      jump(tag_157)\n    tag_153:\n        /* \"src/ERC404.sol\":5847:5857  msg.sender */\n      caller\n        /* \"src/ERC404.sol\":5837:5858  allowance[msg.sender] */\n      0x00\n      dup2\n      dup2\n      mstore\n        /* \"src/ERC404.sol\":5837:5846  allowance */\n      0x06\n        /* \"src/ERC404.sol\":5837:5858  allowance[msg.sender] */\n      0x20\n      swap1\n      dup2\n      mstore\n      0x40\n      dup1\n      dup4\n      keccak256\n      sub(shl(0xa0, 0x01), 0x01)\n        /* \"src/ERC404.sol\":5837:5867  allowance[msg.sender][spender] */\n      dup9\n      and\n      dup1\n      dup6\n      mstore\n      swap1\n      dup4\n      mstore\n      swap3\n      dup2\n      swap1\n      keccak256\n        /* \"src/ERC404.sol\":5837:5880  allowance[msg.sender][spender] = amountOrId */\n      dup7\n      swap1\n      sstore\n        /* \"src/ERC404.sol\":5900:5941  Approval(msg.sender, spender, amountOrId) */\n      mload\n        /* \"#utility.yul\":1838:1863   */\n      dup6\n      dup2\n      mstore\n        /* \"src/ERC404.sol\":5837:5867  allowance[msg.sender][spender] */\n      swap2\n      swap3\n        /* \"src/ERC404.sol\":5847:5857  msg.sender */\n      swap2\n        /* \"src/ERC404.sol\":5900:5941  Approval(msg.sender, spender, amountOrId) */\n      0x8c5be1e5ebec7d5bd14f71427d1e84f3dd0314c0f7b2291e5b200ac8c7c3b925\n      swap2\n        /* \"#utility.yul\":1811:1829   */\n      add\n        /* \"src/ERC404.sol\":5900:5941  Approval(msg.sender, spender, amountOrId) */\n      mload(0x40)\n      dup1\n      swap2\n      sub\n      swap1\n      log3\n        /* \"src/ERC404.sol\":5960:6006  ERC20Approval(msg.sender, spender, amountOrId) */\n      mload(0x40)\n        /* \"#utility.yul\":1838:1863   */\n      dup3\n      dup2\n      mstore\n      sub(shl(0xa0, 0x01), 0x01)\n        /* \"src/ERC404.sol\":5960:6006  ERC20Approval(msg.sender, spender, amountOrId) */\n      dup5\n      and\n      swap1\n        /* \"src/ERC404.sol\":5974:5984  msg.sender */\n      caller\n      swap1\n        /* \"src/ERC404.sol\":5960:6006  ERC20Approval(msg.sender, spender, amountOrId) */\n      0x1f01303a1ce9329d9963e1937c201e23c5543a9e3536e9edead087aec7dc6d83\n      swap1\n        /* \"#utility.yul\":1826:1828   */\n      0x20\n        /* \"#utility.yul\":1811:1829   */\n      add\n        /* \"src/ERC404.sol\":5960:6006  ERC20Approval(msg.sender, spender, amountOrId) */\n      mload(0x40)\n      dup1\n      swap2\n      sub\n      swap1\n      log3\n        /* \"src/ERC404.sol\":5414:6017  if (amountOrId <= minted && amountOrId > 0) {... */\n    tag_157:\n      pop\n        /* \"src/ERC404.sol\":6034:6038  true */\n      0x01\n        /* \"src/ERC404.sol\":5298:6045  function approve(... */\n    tag_151:\n      swap3\n      swap2\n      pop\n      pop\n      jump\t// out\n        /* \"src/Void.sol\":570:666  function setDataURI(string memory _dataURI) public onlyOwner {... */\n    tag_61:\n        /* \"src/ERC404.sol\":313:318  owner */\n      and(sub(shl(0xa0, 0x01), 0x01), sload(0x00))\n        /* \"src/ERC404.sol\":299:309  msg.sender */\n      caller\n        /* \"src/ERC404.sol\":299:318  msg.sender != owner */\n      eq\n        /* \"src/ERC404.sol\":295:341  if (msg.sender != owner) revert Unauthorized() */\n      tag_161\n      jumpi\n        /* \"src/ERC404.sol\":327:341  Unauthorized() */\n      mload(0x40)\n      shl(0xe8, 0x82b429)\n      dup2\n      mstore\n      0x04\n      add\n      mload(0x40)\n      dup1\n      swap2\n      sub\n      swap1\n      revert\n        /* \"src/ERC404.sol\":295:341  if (msg.sender != owner) revert Unauthorized() */\n    tag_161:\n        /* \"src/Void.sol\":641:648  dataURI */\n      0x0d\n        /* \"src/Void.sol\":641:659  dataURI = _dataURI */\n      tag_163\n        /* \"src/Void.sol\":651:659  _dataURI */\n      dup3\n        /* \"src/Void.sol\":641:648  dataURI */\n      dup3\n        /* \"src/Void.sol\":641:659  dataURI = _dataURI */\n      tag_164\n      jump\t// in\n    tag_163:\n      pop\n        /* \"src/Void.sol\":570:666  function setDataURI(string memory _dataURI) public onlyOwner {... */\n      pop\n      jump\t// out\n        /* \"src/ERC404.sol\":6441:8305  function transferFrom(... */\n    tag_65:\n        /* \"src/ERC404.sol\":6561:6565  bool */\n      0x00\n        /* \"src/ERC404.sol\":6595:6601  minted */\n      sload(0x04)\n        /* \"src/ERC404.sol\":6581:6591  amountOrId */\n      dup3\n        /* \"src/ERC404.sol\":6581:6601  amountOrId <= minted */\n      gt\n      iszero\n        /* \"src/ERC404.sol\":6581:6619  amountOrId <= minted && amountOrId > 0 */\n      dup1\n      iszero\n      tag_166\n      jumpi\n      pop\n        /* \"src/ERC404.sol\":6618:6619  0 */\n      0x00\n        /* \"src/ERC404.sol\":6605:6615  amountOrId */\n      dup3\n        /* \"src/ERC404.sol\":6605:6619  amountOrId > 0 */\n      gt\n        /* \"src/ERC404.sol\":6581:6619  amountOrId <= minted && amountOrId > 0 */\n    tag_166:\n        /* \"src/ERC404.sol\":6577:8278  if (amountOrId <= minted && amountOrId > 0) {... */\n      iszero\n      tag_167\n      jumpi\n        /* \"src/ERC404.sol\":6647:6667  _ownerOf[amountOrId] */\n      0x00\n      dup3\n      dup2\n      mstore\n        /* \"src/ERC404.sol\":6647:6655  _ownerOf */\n      0x09\n        /* \"src/ERC404.sol\":6647:6667  _ownerOf[amountOrId] */\n      0x20\n      mstore\n      0x40\n      swap1\n      keccak256\n      sload\n      sub(shl(0xa0, 0x01), 0x01)\n        /* \"src/ERC404.sol\":6639:6667  from != _ownerOf[amountOrId] */\n      dup6\n      dup2\n      and\n        /* \"src/ERC404.sol\":6647:6667  _ownerOf[amountOrId] */\n      swap2\n      and\n        /* \"src/ERC404.sol\":6639:6667  from != _ownerOf[amountOrId] */\n      eq\n        /* \"src/ERC404.sol\":6635:6724  if (from != _ownerOf[amountOrId]) {... */\n      tag_168\n      jumpi\n        /* \"src/ERC404.sol\":6694:6709  InvalidSender() */\n      mload(0x40)\n      shl(0xe1, 0x6edaef2f)\n      dup2\n      mstore\n      0x04\n      add\n      mload(0x40)\n      dup1\n      swap2\n      sub\n      swap1\n      revert\n        /* \"src/ERC404.sol\":6635:6724  if (from != _ownerOf[amountOrId]) {... */\n    tag_168:\n      sub(shl(0xa0, 0x01), 0x01)\n        /* \"src/ERC404.sol\":6742:6758  to == address(0) */\n      dup4\n      and\n        /* \"src/ERC404.sol\":6738:6818  if (to == address(0)) {... */\n      tag_169\n      jumpi\n        /* \"src/ERC404.sol\":6785:6803  InvalidRecipient() */\n      mload(0x40)\n      shl(0xe1, 0x4e469669)\n      dup2\n      mstore\n      0x04\n      add\n      mload(0x40)\n      dup1\n      swap2\n      sub\n      swap1\n      revert\n        /* \"src/ERC404.sol\":6738:6818  if (to == address(0)) {... */\n    tag_169:\n        /* \"src/ERC404.sol\":6853:6863  msg.sender */\n      caller\n      sub(shl(0xa0, 0x01), 0x01)\n        /* \"src/ERC404.sol\":6853:6871  msg.sender != from */\n      dup6\n      and\n      eq\n      dup1\n      iszero\n      swap1\n        /* \"src/ERC404.sol\":6853:6926  msg.sender != from &&... */\n      tag_170\n      jumpi\n      pop\n      sub(shl(0xa0, 0x01), 0x01)\n        /* \"src/ERC404.sol\":6892:6914  isApprovedForAll[from] */\n      dup5\n      and\n      0x00\n      swap1\n      dup2\n      mstore\n        /* \"src/ERC404.sol\":6892:6908  isApprovedForAll */\n      0x08\n        /* \"src/ERC404.sol\":6892:6914  isApprovedForAll[from] */\n      0x20\n      swap1\n      dup2\n      mstore\n      0x40\n      dup1\n      dup4\n      keccak256\n        /* \"src/ERC404.sol\":6915:6925  msg.sender */\n      caller\n        /* \"src/ERC404.sol\":6892:6926  isApprovedForAll[from][msg.sender] */\n      dup5\n      mstore\n      swap1\n      swap2\n      mstore\n      swap1\n      keccak256\n      sload\n      0xff\n      and\n        /* \"src/ERC404.sol\":6891:6926  !isApprovedForAll[from][msg.sender] */\n      iszero\n        /* \"src/ERC404.sol\":6853:6926  msg.sender != from &&... */\n    tag_170:\n        /* \"src/ERC404.sol\":6853:6983  msg.sender != from &&... */\n      dup1\n      iszero\n      tag_171\n      jumpi\n      pop\n        /* \"src/ERC404.sol\":6960:6983  getApproved[amountOrId] */\n      0x00\n      dup3\n      dup2\n      mstore\n        /* \"src/ERC404.sol\":6960:6971  getApproved */\n      0x07\n        /* \"src/ERC404.sol\":6960:6983  getApproved[amountOrId] */\n      0x20\n      mstore\n      0x40\n      swap1\n      keccak256\n      sload\n      sub(shl(0xa0, 0x01), 0x01)\n      and\n        /* \"src/ERC404.sol\":6946:6956  msg.sender */\n      caller\n        /* \"src/ERC404.sol\":6946:6983  msg.sender != getApproved[amountOrId] */\n      eq\n      iszero\n        /* \"src/ERC404.sol\":6853:6983  msg.sender != from &&... */\n    tag_171:\n        /* \"src/ERC404.sol\":6832:7052  if (... */\n      iszero\n      tag_172\n      jumpi\n        /* \"src/ERC404.sol\":7023:7037  Unauthorized() */\n      mload(0x40)\n      shl(0xe8, 0x82b429)\n      dup2\n      mstore\n      0x04\n      add\n      mload(0x40)\n      dup1\n      swap2\n      sub\n      swap1\n      revert\n        /* \"src/ERC404.sol\":6832:7052  if (... */\n    tag_172:\n        /* \"src/ERC404.sol\":7085:7095  _getUnit() */\n      tag_173\n        /* \"src/ERC404.sol\":7085:7093  _getUnit */\n      tag_174\n        /* \"src/ERC404.sol\":7085:7095  _getUnit() */\n      jump\t// in\n    tag_173:\n      sub(shl(0xa0, 0x01), 0x01)\n        /* \"src/ERC404.sol\":7066:7081  balanceOf[from] */\n      dup6\n      and\n      0x00\n      swap1\n      dup2\n      mstore\n        /* \"src/ERC404.sol\":7066:7075  balanceOf */\n      0x05\n        /* \"src/ERC404.sol\":7066:7081  balanceOf[from] */\n      0x20\n      mstore\n      0x40\n      dup2\n      keccak256\n        /* \"src/ERC404.sol\":7066:7095  balanceOf[from] -= _getUnit() */\n      dup1\n      sload\n        /* \"src/ERC404.sol\":7066:7081  balanceOf[from] */\n      swap1\n      swap2\n      swap1\n        /* \"src/ERC404.sol\":7066:7095  balanceOf[from] -= _getUnit() */\n      tag_175\n      swap1\n      dup5\n      swap1\n      tag_176\n      jump\t// in\n    tag_175:\n      swap1\n      swap2\n      sstore\n      pop\n        /* \"src/ERC404.sol\":7155:7165  _getUnit() */\n      tag_177\n      swap1\n      pop\n        /* \"src/ERC404.sol\":7155:7163  _getUnit */\n      tag_174\n        /* \"src/ERC404.sol\":7155:7165  _getUnit() */\n      jump\t// in\n    tag_177:\n      sub(shl(0xa0, 0x01), 0x01)\n        /* \"src/ERC404.sol\":7138:7151  balanceOf[to] */\n      dup1\n      dup6\n      and\n      0x00\n      dup2\n      dup2\n      mstore\n        /* \"src/ERC404.sol\":7138:7147  balanceOf */\n      0x05\n        /* \"src/ERC404.sol\":7138:7151  balanceOf[to] */\n      0x20\n      swap1\n      dup2\n      mstore\n      0x40\n      dup1\n      dup4\n      keccak256\n        /* \"src/ERC404.sol\":7138:7165  balanceOf[to] += _getUnit() */\n      dup1\n      sload\n      swap1\n      swap7\n      add\n      swap1\n      swap6\n      sstore\n        /* \"src/ERC404.sol\":7194:7214  _ownerOf[amountOrId] */\n      dup7\n      dup3\n      mstore\n        /* \"src/ERC404.sol\":7194:7202  _ownerOf */\n      0x09\n        /* \"src/ERC404.sol\":7194:7214  _ownerOf[amountOrId] */\n      dup2\n      mstore\n      dup5\n      dup3\n      keccak256\n        /* \"src/ERC404.sol\":7194:7219  _ownerOf[amountOrId] = to */\n      dup1\n      sload\n      not(sub(shl(0xa0, 0x01), 0x01))\n      swap1\n      dup2\n      and\n      swap1\n      swap5\n      or\n      swap1\n      sstore\n        /* \"src/ERC404.sol\":7240:7251  getApproved */\n      0x07\n        /* \"src/ERC404.sol\":7240:7263  getApproved[amountOrId] */\n      dup2\n      mstore\n      dup5\n      dup3\n      keccak256\n        /* \"src/ERC404.sol\":7233:7263  delete getApproved[amountOrId] */\n      dup1\n      sload\n      swap1\n      swap4\n      and\n      swap1\n      swap3\n      sstore\n        /* \"src/ERC404.sol\":7338:7350  _owned[from] */\n      swap2\n      dup8\n      and\n      dup3\n      mstore\n        /* \"src/ERC404.sol\":7338:7344  _owned */\n      0x0a\n        /* \"src/ERC404.sol\":7338:7350  _owned[from] */\n      swap1\n      mstore\n      swap1\n      dup2\n      keccak256\n        /* \"src/ERC404.sol\":7351:7370  _owned[from].length */\n      dup1\n      sload\n        /* \"src/ERC404.sol\":7351:7374  _owned[from].length - 1 */\n      tag_178\n      swap1\n      0x01\n      swap1\n      tag_176\n      jump\t// in\n    tag_178:\n        /* \"src/ERC404.sol\":7338:7375  _owned[from][_owned[from].length - 1] */\n      dup2\n      sload\n      dup2\n      lt\n      tag_180\n      jumpi\n      tag_180\n      tag_181\n      jump\t// in\n    tag_180:\n      swap1\n      0x00\n      mstore\n      keccak256(0x00, 0x20)\n      add\n      sload\n        /* \"src/ERC404.sol\":7318:7375  uint256 updatedId = _owned[from][_owned[from].length - 1] */\n      swap1\n      pop\n        /* \"src/ERC404.sol\":7419:7429  amountOrId */\n      dup3\n        /* \"src/ERC404.sol\":7406:7415  updatedId */\n      dup2\n        /* \"src/ERC404.sol\":7406:7429  updatedId != amountOrId */\n      eq\n        /* \"src/ERC404.sol\":7402:7687  if (updatedId != amountOrId) {... */\n      tag_183\n      jumpi\n      sub(shl(0xa0, 0x01), 0x01)\n        /* \"src/ERC404.sol\":7508:7520  _owned[from] */\n      dup6\n      and\n      0x00\n      swap1\n      dup2\n      mstore\n        /* \"src/ERC404.sol\":7508:7514  _owned */\n      0x0a\n        /* \"src/ERC404.sol\":7508:7520  _owned[from] */\n      0x20\n      swap1\n      dup2\n      mstore\n      0x40\n      dup1\n      dup4\n      keccak256\n        /* \"src/ERC404.sol\":7521:7544  _ownedIndex[amountOrId] */\n      dup7\n      dup5\n      mstore\n        /* \"src/ERC404.sol\":7521:7532  _ownedIndex */\n      0x0b\n        /* \"src/ERC404.sol\":7521:7544  _ownedIndex[amountOrId] */\n      swap1\n      swap3\n      mstore\n      swap1\n      swap2\n      keccak256\n      sload\n        /* \"src/ERC404.sol\":7508:7545  _owned[from][_ownedIndex[amountOrId]] */\n      dup2\n      sload\n        /* \"src/ERC404.sol\":7548:7557  updatedId */\n      dup4\n      swap3\n        /* \"src/ERC404.sol\":7508:7520  _owned[from] */\n      swap2\n        /* \"src/ERC404.sol\":7521:7544  _ownedIndex[amountOrId] */\n      swap1\n        /* \"src/ERC404.sol\":7508:7545  _owned[from][_ownedIndex[amountOrId]] */\n      dup2\n      lt\n      tag_185\n      jumpi\n      tag_185\n      tag_181\n      jump\t// in\n    tag_185:\n      0x00\n      swap2\n      dup3\n      mstore\n      0x20\n      dup1\n      dup4\n      keccak256\n      swap1\n      swap2\n      add\n        /* \"src/ERC404.sol\":7508:7557  _owned[from][_ownedIndex[amountOrId]] = updatedId */\n      swap3\n      swap1\n      swap3\n      sstore\n        /* \"src/ERC404.sol\":7649:7672  _ownedIndex[amountOrId] */\n      dup5\n      dup2\n      mstore\n        /* \"src/ERC404.sol\":7649:7660  _ownedIndex */\n      0x0b\n        /* \"src/ERC404.sol\":7649:7672  _ownedIndex[amountOrId] */\n      swap1\n      swap2\n      mstore\n      0x40\n      dup1\n      dup3\n      keccak256\n      sload\n        /* \"src/ERC404.sol\":7624:7646  _ownedIndex[updatedId] */\n      dup4\n      dup4\n      mstore\n      swap2\n      keccak256\n        /* \"src/ERC404.sol\":7624:7672  _ownedIndex[updatedId] = _ownedIndex[amountOrId] */\n      sstore\n        /* \"src/ERC404.sol\":7402:7687  if (updatedId != amountOrId) {... */\n    tag_183:\n      sub(shl(0xa0, 0x01), 0x01)\n        /* \"src/ERC404.sol\":7720:7732  _owned[from] */\n      dup6\n      and\n      0x00\n      swap1\n      dup2\n      mstore\n        /* \"src/ERC404.sol\":7720:7726  _owned */\n      0x0a\n        /* \"src/ERC404.sol\":7720:7732  _owned[from] */\n      0x20\n      mstore\n      0x40\n      swap1\n      keccak256\n        /* \"src/ERC404.sol\":7720:7738  _owned[from].pop() */\n      dup1\n      sload\n      dup1\n      tag_188\n      jumpi\n      tag_188\n      tag_189\n      jump\t// in\n    tag_188:\n      0x00\n      dup3\n      dup2\n      mstore\n      0x20\n      dup1\n      dup3\n      keccak256\n      dup4\n      add\n      not(0x00)\n      swap1\n      dup2\n      add\n      dup4\n      swap1\n      sstore\n      swap1\n      swap3\n      add\n      swap1\n      swap3\n      sstore\n      sub(shl(0xa0, 0x01), 0x01)\n        /* \"src/ERC404.sol\":7790:7800  _owned[to] */\n      dup7\n      and\n      dup1\n      dup4\n      mstore\n        /* \"src/ERC404.sol\":7790:7796  _owned */\n      0x0a\n        /* \"src/ERC404.sol\":7790:7800  _owned[to] */\n      dup3\n      mstore\n      0x40\n      dup4\n      keccak256\n        /* \"src/ERC404.sol\":7790:7817  _owned[to].push(amountOrId) */\n      dup1\n      sload\n        /* \"src/ERC404.sol\":7720:7738  _owned[from].pop() */\n      0x01\n        /* \"src/ERC404.sol\":7790:7817  _owned[to].push(amountOrId) */\n      dup2\n      dup2\n      add\n      dup4\n      sstore\n      dup3\n      dup7\n      mstore\n      swap4\n      dup6\n      keccak256\n      add\n      dup8\n      swap1\n      sstore\n        /* \"src/ERC404.sol\":7898:7908  _owned[to] */\n      swap3\n      mstore\n        /* \"src/ERC404.sol\":7898:7915  _owned[to].length */\n      swap1\n      sload\n        /* \"src/ERC404.sol\":7898:7919  _owned[to].length - 1 */\n      tag_192\n      swap2\n        /* \"src/ERC404.sol\":7720:7738  _owned[from].pop() */\n      swap1\n        /* \"src/ERC404.sol\":7898:7919  _owned[to].length - 1 */\n      tag_176\n      jump\t// in\n    tag_192:\n        /* \"src/ERC404.sol\":7872:7895  _ownedIndex[amountOrId] */\n      0x00\n      dup5\n      dup2\n      mstore\n        /* \"src/ERC404.sol\":7872:7883  _ownedIndex */\n      0x0b\n        /* \"src/ERC404.sol\":7872:7895  _ownedIndex[amountOrId] */\n      0x20\n      mstore\n      0x40\n      dup1\n      dup3\n      keccak256\n        /* \"src/ERC404.sol\":7872:7919  _ownedIndex[amountOrId] = _owned[to].length - 1 */\n      swap3\n      swap1\n      swap3\n      sstore\n        /* \"src/ERC404.sol\":7939:7969  Transfer(from, to, amountOrId) */\n      swap1\n      mload\n        /* \"src/ERC404.sol\":7884:7894  amountOrId */\n      dup5\n      swap2\n      sub(shl(0xa0, 0x01), 0x01)\n        /* \"src/ERC404.sol\":7939:7969  Transfer(from, to, amountOrId) */\n      dup1\n      dup9\n      and\n      swap3\n      swap1\n      dup10\n      and\n      swap2\n      0xddf252ad1be2c89b69c2b068fc378daa952ba7f163c4a11628f55a4df523b3ef\n      swap2\n      log4\n        /* \"src/ERC404.sol\":8008:8010  to */\n      dup4\n      sub(shl(0xa0, 0x01), 0x01)\n        /* \"src/ERC404.sol\":7988:8023  ERC20Transfer(from, to, _getUnit()) */\n      and\n        /* \"src/ERC404.sol\":8002:8006  from */\n      dup6\n      sub(shl(0xa0, 0x01), 0x01)\n        /* \"src/ERC404.sol\":7988:8023  ERC20Transfer(from, to, _getUnit()) */\n      and\n      0xe59fdd36d0d223c0c7d996db7ad796880f45e1936cb0bb7ac102e7082e031487\n        /* \"src/ERC404.sol\":8012:8022  _getUnit() */\n      tag_193\n        /* \"src/ERC404.sol\":8012:8020  _getUnit */\n      tag_174\n        /* \"src/ERC404.sol\":8012:8022  _getUnit() */\n      jump\t// in\n    tag_193:\n        /* \"src/ERC404.sol\":7988:8023  ERC20Transfer(from, to, _getUnit()) */\n      mload(0x40)\n        /* \"#utility.yul\":1838:1863   */\n      swap1\n      dup2\n      mstore\n        /* \"#utility.yul\":1826:1828   */\n      0x20\n        /* \"#utility.yul\":1811:1829   */\n      add\n        /* \"src/ERC404.sol\":7988:8023  ERC20Transfer(from, to, _getUnit()) */\n      mload(0x40)\n      dup1\n      swap2\n      sub\n      swap1\n      log3\n        /* \"src/ERC404.sol\":6621:8034  {... */\n      pop\n        /* \"src/ERC404.sol\":6577:8278  if (amountOrId <= minted && amountOrId > 0) {... */\n      jump(tag_195)\n    tag_167:\n      sub(shl(0xa0, 0x01), 0x01)\n        /* \"src/ERC404.sol\":8072:8087  allowance[from] */\n      dup5\n      and\n        /* \"src/ERC404.sol\":8054:8069  uint256 allowed */\n      0x00\n        /* \"src/ERC404.sol\":8072:8087  allowance[from] */\n      swap1\n      dup2\n      mstore\n        /* \"src/ERC404.sol\":8072:8081  allowance */\n      0x06\n        /* \"src/ERC404.sol\":8072:8087  allowance[from] */\n      0x20\n      swap1\n      dup2\n      mstore\n      0x40\n      dup1\n      dup4\n      keccak256\n        /* \"src/ERC404.sol\":8088:8098  msg.sender */\n      caller\n        /* \"src/ERC404.sol\":8072:8099  allowance[from][msg.sender] */\n      dup5\n      mstore\n      swap1\n      swap2\n      mstore\n      swap1\n      keccak256\n      sload\n      not(0x00)\n        /* \"src/ERC404.sol\":8118:8146  allowed != type(uint256).max */\n      dup2\n      eq\n        /* \"src/ERC404.sol\":8114:8214  if (allowed != type(uint256).max)... */\n      tag_196\n      jumpi\n        /* \"src/ERC404.sol\":8194:8214  allowed - amountOrId */\n      tag_197\n        /* \"src/ERC404.sol\":8204:8214  amountOrId */\n      dup4\n        /* \"src/ERC404.sol\":8194:8201  allowed */\n      dup3\n        /* \"src/ERC404.sol\":8194:8214  allowed - amountOrId */\n      tag_176\n      jump\t// in\n    tag_197:\n      sub(shl(0xa0, 0x01), 0x01)\n        /* \"src/ERC404.sol\":8164:8179  allowance[from] */\n      dup7\n      and\n      0x00\n      swap1\n      dup2\n      mstore\n        /* \"src/ERC404.sol\":8164:8173  allowance */\n      0x06\n        /* \"src/ERC404.sol\":8164:8179  allowance[from] */\n      0x20\n      swap1\n      dup2\n      mstore\n      0x40\n      dup1\n      dup4\n      keccak256\n        /* \"src/ERC404.sol\":8180:8190  msg.sender */\n      caller\n        /* \"src/ERC404.sol\":8164:8191  allowance[from][msg.sender] */\n      dup5\n      mstore\n      swap1\n      swap2\n      mstore\n      swap1\n      keccak256\n        /* \"src/ERC404.sol\":8164:8214  allowance[from][msg.sender] = allowed - amountOrId */\n      sstore\n        /* \"src/ERC404.sol\":8114:8214  if (allowed != type(uint256).max)... */\n    tag_196:\n        /* \"src/ERC404.sol\":8236:8267  _transfer(from, to, amountOrId) */\n      tag_198\n        /* \"src/ERC404.sol\":8246:8250  from */\n      dup6\n        /* \"src/ERC404.sol\":8252:8254  to */\n      dup6\n        /* \"src/ERC404.sol\":8256:8266  amountOrId */\n      dup6\n        /* \"src/ERC404.sol\":8236:8245  _transfer */\n      tag_199\n        /* \"src/ERC404.sol\":8236:8267  _transfer(from, to, amountOrId) */\n      jump\t// in\n    tag_198:\n        /* \"src/ERC404.sol\":8229:8267  return _transfer(from, to, amountOrId) */\n      swap2\n      pop\n      pop\n      jump(tag_165)\n        /* \"src/ERC404.sol\":6577:8278  if (amountOrId <= minted && amountOrId > 0) {... */\n    tag_195:\n      pop\n        /* \"src/ERC404.sol\":8294:8298  true */\n      0x01\n        /* \"src/ERC404.sol\":6441:8305  function transferFrom(... */\n    tag_165:\n      swap4\n      swap3\n      pop\n      pop\n      pop\n      jump\t// out\n        /* \"src/ERC404.sol\":764:911  function revokeOwnership() public virtual onlyOwner {... */\n    tag_68:\n        /* \"src/ERC404.sol\":313:318  owner */\n      and(sub(shl(0xa0, 0x01), 0x01), sload(0x00))\n        /* \"src/ERC404.sol\":299:309  msg.sender */\n      caller\n        /* \"src/ERC404.sol\":299:318  msg.sender != owner */\n      eq\n        /* \"src/ERC404.sol\":295:341  if (msg.sender != owner) revert Unauthorized() */\n      tag_201\n      jumpi\n        /* \"src/ERC404.sol\":327:341  Unauthorized() */\n      mload(0x40)\n      shl(0xe8, 0x82b429)\n      dup2\n      mstore\n      0x04\n      add\n      mload(0x40)\n      dup1\n      swap2\n      sub\n      swap1\n      revert\n        /* \"src/ERC404.sol\":295:341  if (msg.sender != owner) revert Unauthorized() */\n    tag_201:\n        /* \"src/ERC404.sol\":842:843  0 */\n      0x00\n        /* \"src/ERC404.sol\":826:844  owner = address(0) */\n      dup1\n      sload\n      not(sub(shl(0xa0, 0x01), 0x01))\n      and\n      dup2\n      sstore\n        /* \"src/ERC404.sol\":860:904  OwnershipTransferred(msg.sender, address(0)) */\n      mload(0x40)\n        /* \"src/ERC404.sol\":881:891  msg.sender */\n      caller\n      swap1\n        /* \"src/ERC404.sol\":860:904  OwnershipTransferred(msg.sender, address(0)) */\n      0x8be0079c531659141344cd1fd0a4f28419497f9722a3daafe3b4186f6b6457e0\n      swap1\n        /* \"src/ERC404.sol\":842:843  0 */\n      dup4\n      swap1\n        /* \"src/ERC404.sol\":860:904  OwnershipTransferred(msg.sender, address(0)) */\n      log3\n        /* \"src/ERC404.sol\":764:911  function revokeOwnership() public virtual onlyOwner {... */\n      jump\t// out\n        /* \"src/ERC404.sol\":8590:9062  function safeTransferFrom(... */\n    tag_75:\n        /* \"src/ERC404.sol\":8718:8724  minted */\n      sload(0x04)\n        /* \"src/ERC404.sol\":8713:8715  id */\n      dup2\n        /* \"src/ERC404.sol\":8713:8724  id > minted */\n      gt\n        /* \"src/ERC404.sol\":8713:8735  id > minted || id == 0 */\n      dup1\n      tag_204\n      jumpi\n      pop\n        /* \"src/ERC404.sol\":8728:8735  id == 0 */\n      dup1\n      iszero\n        /* \"src/ERC404.sol\":8713:8735  id > minted || id == 0 */\n    tag_204:\n        /* \"src/ERC404.sol\":8709:8780  if (id > minted || id == 0) {... */\n      iszero\n      tag_205\n      jumpi\n        /* \"src/ERC404.sol\":8758:8769  InvalidId() */\n      mload(0x40)\n      shl(0xe3, 0x1bf43481)\n      dup2\n      mstore\n      0x04\n      add\n      mload(0x40)\n      dup1\n      swap2\n      sub\n      swap1\n      revert\n        /* \"src/ERC404.sol\":8709:8780  if (id > minted || id == 0) {... */\n    tag_205:\n        /* \"src/ERC404.sol\":8790:8816  transferFrom(from, to, id) */\n      tag_206\n        /* \"src/ERC404.sol\":8803:8807  from */\n      dup4\n        /* \"src/ERC404.sol\":8809:8811  to */\n      dup4\n        /* \"src/ERC404.sol\":8813:8815  id */\n      dup4\n        /* \"src/ERC404.sol\":8790:8802  transferFrom */\n      tag_65\n        /* \"src/ERC404.sol\":8790:8816  transferFrom(from, to, id) */\n      jump\t// in\n    tag_206:\n      pop\n      sub(shl(0xa0, 0x01), 0x01)\n        /* \"src/ERC404.sol\":8844:8858  to.code.length */\n      dup3\n      and\n      extcodesize\n        /* \"src/ERC404.sol\":8844:8863  to.code.length != 0 */\n      iszero\n      dup1\n      iszero\n      swap1\n        /* \"src/ERC404.sol\":8844:8996  to.code.length != 0 &&... */\n      tag_207\n      jumpi\n      pop\n        /* \"src/ERC404.sol\":8879:8940  ERC721Receiver(to).onERC721Received(msg.sender, from, id, \"\") */\n      mload(0x40)\n      shl(0xe1, 0x0a85bd01)\n      dup1\n      dup3\n      mstore\n        /* \"src/ERC404.sol\":8915:8925  msg.sender */\n      caller\n        /* \"src/ERC404.sol\":8879:8940  ERC721Receiver(to).onERC721Received(msg.sender, from, id, \"\") */\n      0x04\n      dup4\n      add\n        /* \"#utility.yul\":9137:9171   */\n      mstore\n      sub(shl(0xa0, 0x01), 0x01)\n        /* \"#utility.yul\":9207:9222   */\n      dup6\n      dup2\n      and\n        /* \"#utility.yul\":9187:9205   */\n      0x24\n      dup5\n      add\n        /* \"#utility.yul\":9180:9223   */\n      mstore\n        /* \"#utility.yul\":9239:9257   */\n      0x44\n      dup4\n      add\n        /* \"#utility.yul\":9232:9266   */\n      dup5\n      swap1\n      mstore\n        /* \"#utility.yul\":9302:9305   */\n      0x80\n        /* \"#utility.yul\":9282:9300   */\n      0x64\n      dup5\n      add\n        /* \"#utility.yul\":9275:9306   */\n      mstore\n      0x00\n        /* \"#utility.yul\":9322:9341   */\n      0x84\n      dup5\n      add\n        /* \"#utility.yul\":9315:9345   */\n      mstore\n        /* \"src/ERC404.sol\":8956:8996  ERC721Receiver.onERC721Received.selector */\n      swap1\n      swap2\n        /* \"src/ERC404.sol\":8879:8914  ERC721Receiver(to).onERC721Received */\n      swap1\n      dup5\n      and\n      swap1\n        /* \"src/ERC404.sol\":8956:8996  ERC721Receiver.onERC721Received.selector */\n      0x150b7a02\n      swap1\n        /* \"#utility.yul\":9362:9381   */\n      0xa4\n      add\n        /* \"src/ERC404.sol\":8879:8940  ERC721Receiver(to).onERC721Received(msg.sender, from, id, \"\") */\n      0x20\n      mload(0x40)\n      dup1\n      dup4\n      sub\n      dup2\n      0x00\n      dup8\n      gas\n      call\n      iszero\n      dup1\n      iszero\n      tag_211\n      jumpi\n      returndatasize\n      0x00\n      dup1\n      returndatacopy\n      revert(0x00, returndatasize)\n    tag_211:\n      pop\n      pop\n      pop\n      pop\n      mload(0x40)\n      returndatasize\n      not(0x1f)\n      0x1f\n      dup3\n      add\n      and\n      dup3\n      add\n      dup1\n      0x40\n      mstore\n      pop\n      dup2\n      add\n      swap1\n      tag_212\n      swap2\n      swap1\n      tag_213\n      jump\t// in\n    tag_212:\n      not(sub(shl(0xe0, 0x01), 0x01))\n        /* \"src/ERC404.sol\":8879:8996  ERC721Receiver(to).onERC721Received(msg.sender, from, id, \"\") !=... */\n      and\n      eq\n      iszero\n        /* \"src/ERC404.sol\":8844:8996  to.code.length != 0 &&... */\n    tag_207:\n        /* \"src/ERC404.sol\":8827:9056  if (... */\n      iszero\n      tag_214\n      jumpi\n        /* \"src/ERC404.sol\":9028:9045  UnsafeRecipient() */\n      mload(0x40)\n      shl(0xe0, 0x3da63931)\n      dup2\n      mstore\n      0x04\n      add\n      mload(0x40)\n      dup1\n      swap2\n      sub\n      swap1\n      revert\n        /* \"src/ERC404.sol\":8827:9056  if (... */\n    tag_214:\n        /* \"src/ERC404.sol\":8590:9062  function safeTransferFrom(... */\n      pop\n      pop\n      pop\n      jump\t// out\n        /* \"src/Void.sol\":782:913  function setNameSymbol(string memory _name, string memory _symbol) public onlyOwner {... */\n    tag_82:\n        /* \"src/ERC404.sol\":313:318  owner */\n      and(sub(shl(0xa0, 0x01), 0x01), sload(0x00))\n        /* \"src/ERC404.sol\":299:309  msg.sender */\n      caller\n        /* \"src/ERC404.sol\":299:318  msg.sender != owner */\n      eq\n        /* \"src/ERC404.sol\":295:341  if (msg.sender != owner) revert Unauthorized() */\n      tag_216\n      jumpi\n        /* \"src/ERC404.sol\":327:341  Unauthorized() */\n      mload(0x40)\n      shl(0xe8, 0x82b429)\n      dup2\n      mstore\n      0x04\n      add\n      mload(0x40)\n      dup1\n      swap2\n      sub\n      swap1\n      revert\n        /* \"src/ERC404.sol\":295:341  if (msg.sender != owner) revert Unauthorized() */\n    tag_216:\n        /* \"src/Void.sol\":876:906  _setNameSymbol(_name, _symbol) */\n      tag_163\n        /* \"src/Void.sol\":891:896  _name */\n      dup3\n        /* \"src/Void.sol\":898:905  _symbol */\n      dup3\n        /* \"src/Void.sol\":876:890  _setNameSymbol */\n      tag_219\n        /* \"src/Void.sol\":876:906  _setNameSymbol(_name, _symbol) */\n      jump\t// in\n        /* \"src/ERC404.sol\":4645:4754  function setWhitelist(address target, bool state) public onlyOwner {... */\n    tag_86:\n        /* \"src/ERC404.sol\":313:318  owner */\n      and(sub(shl(0xa0, 0x01), 0x01), sload(0x00))\n        /* \"src/ERC404.sol\":299:309  msg.sender */\n      caller\n        /* \"src/ERC404.sol\":299:318  msg.sender != owner */\n      eq\n        /* \"src/ERC404.sol\":295:341  if (msg.sender != owner) revert Unauthorized() */\n      tag_221\n      jumpi\n        /* \"src/ERC404.sol\":327:341  Unauthorized() */\n      mload(0x40)\n      shl(0xe8, 0x82b429)\n      dup2\n      mstore\n      0x04\n      add\n      mload(0x40)\n      dup1\n      swap2\n      sub\n      swap1\n      revert\n        /* \"src/ERC404.sol\":295:341  if (msg.sender != owner) revert Unauthorized() */\n    tag_221:\n      sub(shl(0xa0, 0x01), 0x01)\n        /* \"src/ERC404.sol\":4722:4739  whitelist[target] */\n      swap2\n      swap1\n      swap2\n      and\n      0x00\n      swap1\n      dup2\n      mstore\n        /* \"src/ERC404.sol\":4722:4731  whitelist */\n      0x0c\n        /* \"src/ERC404.sol\":4722:4739  whitelist[target] */\n      0x20\n      mstore\n      0x40\n      swap1\n      keccak256\n        /* \"src/ERC404.sol\":4722:4747  whitelist[target] = state */\n      dup1\n      sload\n      not(0xff)\n      and\n      swap2\n      iszero\n      iszero\n      swap2\n      swap1\n      swap2\n      or\n      swap1\n      sstore\n        /* \"src/ERC404.sol\":4645:4754  function setWhitelist(address target, bool state) public onlyOwner {... */\n      jump\t// out\n        /* \"src/ERC404.sol\":4823:5010  function ownerOf(uint256 id) public view virtual returns (address owner) {... */\n    tag_89:\n        /* \"src/ERC404.sol\":4881:4894  address owner */\n      0x00\n        /* \"src/ERC404.sol\":4914:4926  _ownerOf[id] */\n      dup2\n      dup2\n      mstore\n        /* \"src/ERC404.sol\":4914:4922  _ownerOf */\n      0x09\n        /* \"src/ERC404.sol\":4914:4926  _ownerOf[id] */\n      0x20\n      mstore\n      0x40\n      swap1\n      keccak256\n      sload\n      sub(shl(0xa0, 0x01), 0x01)\n      and\n      dup1\n        /* \"src/ERC404.sol\":4937:5004  if (owner == address(0)) {... */\n      tag_224\n      jumpi\n        /* \"src/ERC404.sol\":4983:4993  NotFound() */\n      mload(0x40)\n      shl(0xe0, 0xc5723b51)\n      dup2\n      mstore\n      0x04\n      add\n      mload(0x40)\n      dup1\n      swap2\n      sub\n      swap1\n      revert\n        /* \"src/ERC404.sol\":4937:5004  if (owner == address(0)) {... */\n    tag_224:\n        /* \"src/ERC404.sol\":4823:5010  function ownerOf(uint256 id) public view virtual returns (address owner) {... */\n      swap2\n      swap1\n      pop\n      jump\t// out\n        /* \"src/Void.sol\":392:564  function yeet(uint256 amount) public {... */\n    tag_93:\n        /* \"src/Void.sol\":439:451  bool yeeting */\n      0x00\n        /* \"src/Void.sol\":454:482  transfer(address(0), amount) */\n      tag_226\n        /* \"src/Void.sol\":471:472  0 */\n      0x00\n        /* \"src/Void.sol\":475:481  amount */\n      dup4\n        /* \"src/Void.sol\":454:462  transfer */\n      tag_114\n        /* \"src/Void.sol\":454:482  transfer(address(0), amount) */\n      jump\t// in\n    tag_226:\n        /* \"src/Void.sol\":439:482  bool yeeting = transfer(address(0), amount) */\n      swap1\n      pop\n        /* \"src/Void.sol\":496:511  yeeting == true */\n      dup1\n      iszero\n      iszero\n        /* \"src/Void.sol\":507:511  true */\n      0x01\n        /* \"src/Void.sol\":496:511  yeeting == true */\n      sub\n        /* \"src/Void.sol\":492:558  if (yeeting == true){... */\n      tag_163\n      jumpi\n        /* \"src/Void.sol\":541:547  amount */\n      dup2\n        /* \"src/Void.sol\":526:537  totalSupply */\n      0x03\n      0x00\n        /* \"src/Void.sol\":526:547  totalSupply -= amount */\n      dup3\n      dup3\n      sload\n      tag_228\n      swap2\n      swap1\n      tag_176\n      jump\t// in\n    tag_228:\n      swap1\n      swap2\n      sstore\n      pop\n      pop\n        /* \"src/Void.sol\":429:564  {... */\n      pop\n        /* \"src/Void.sol\":392:564  function yeet(uint256 amount) public {... */\n      pop\n      jump\t// out\n        /* \"src/ERC404.sol\":2889:2909  string public symbol */\n    tag_103:\n      0x02\n      dup1\n      sload\n      tag_145\n      swap1\n      tag_146\n      jump\t// in\n        /* \"src/ERC404.sol\":6093:6296  function setApprovalForAll(address operator, bool approved) public virtual {... */\n    tag_111:\n        /* \"src/ERC404.sol\":6195:6205  msg.sender */\n      caller\n        /* \"src/ERC404.sol\":6178:6206  isApprovedForAll[msg.sender] */\n      0x00\n      dup2\n      dup2\n      mstore\n        /* \"src/ERC404.sol\":6178:6194  isApprovedForAll */\n      0x08\n        /* \"src/ERC404.sol\":6178:6206  isApprovedForAll[msg.sender] */\n      0x20\n      swap1\n      dup2\n      mstore\n      0x40\n      dup1\n      dup4\n      keccak256\n      sub(shl(0xa0, 0x01), 0x01)\n        /* \"src/ERC404.sol\":6178:6216  isApprovedForAll[msg.sender][operator] */\n      dup8\n      and\n      dup1\n      dup6\n      mstore\n      swap1\n      dup4\n      mstore\n      swap3\n      dup2\n      swap1\n      keccak256\n        /* \"src/ERC404.sol\":6178:6227  isApprovedForAll[msg.sender][operator] = approved */\n      dup1\n      sload\n      not(0xff)\n      and\n      dup7\n      iszero\n      iszero\n      swap1\n      dup2\n      or\n      swap1\n      swap2\n      sstore\n        /* \"src/ERC404.sol\":6243:6289  ApprovalForAll(msg.sender, operator, approved) */\n      swap1\n      mload\n        /* \"#utility.yul\":1640:1681   */\n      swap1\n      dup2\n      mstore\n        /* \"src/ERC404.sol\":6178:6216  isApprovedForAll[msg.sender][operator] */\n      swap2\n      swap3\n        /* \"src/ERC404.sol\":6195:6205  msg.sender */\n      swap2\n        /* \"src/ERC404.sol\":6243:6289  ApprovalForAll(msg.sender, operator, approved) */\n      0x17307eab39ab6107e8899845ad3d59bd9653f200f220920489ca2b5937696c31\n      swap2\n        /* \"#utility.yul\":1613:1631   */\n      add\n        /* \"src/ERC404.sol\":6243:6289  ApprovalForAll(msg.sender, operator, approved) */\n      mload(0x40)\n      dup1\n      swap2\n      sub\n      swap1\n      log3\n        /* \"src/ERC404.sol\":6093:6296  function setApprovalForAll(address operator, bool approved) public virtual {... */\n      pop\n      pop\n      jump\t// out\n        /* \"src/ERC404.sol\":8361:8516  function transfer(... */\n    tag_114:\n        /* \"src/ERC404.sol\":8453:8457  bool */\n      0x00\n        /* \"src/ERC404.sol\":8476:8509  _transfer(msg.sender, to, amount) */\n      tag_165\n        /* \"src/ERC404.sol\":8486:8496  msg.sender */\n      caller\n        /* \"src/ERC404.sol\":8498:8500  to */\n      dup5\n        /* \"src/ERC404.sol\":8502:8508  amount */\n      dup5\n        /* \"src/ERC404.sol\":8476:8485  _transfer */\n      tag_199\n        /* \"src/ERC404.sol\":8476:8509  _transfer(msg.sender, to, amount) */\n      jump\t// in\n        /* \"src/ERC404.sol\":9154:9666  function safeTransferFrom(... */\n    tag_119:\n        /* \"src/ERC404.sol\":9312:9318  minted */\n      sload(0x04)\n        /* \"src/ERC404.sol\":9307:9309  id */\n      dup4\n        /* \"src/ERC404.sol\":9307:9318  id > minted */\n      gt\n        /* \"src/ERC404.sol\":9307:9329  id > minted || id == 0 */\n      dup1\n      tag_239\n      jumpi\n      pop\n        /* \"src/ERC404.sol\":9322:9329  id == 0 */\n      dup3\n      iszero\n        /* \"src/ERC404.sol\":9307:9329  id > minted || id == 0 */\n    tag_239:\n        /* \"src/ERC404.sol\":9303:9374  if (id > minted || id == 0) {... */\n      iszero\n      tag_240\n      jumpi\n        /* \"src/ERC404.sol\":9352:9363  InvalidId() */\n      mload(0x40)\n      shl(0xe3, 0x1bf43481)\n      dup2\n      mstore\n      0x04\n      add\n      mload(0x40)\n      dup1\n      swap2\n      sub\n      swap1\n      revert\n        /* \"src/ERC404.sol\":9303:9374  if (id > minted || id == 0) {... */\n    tag_240:\n        /* \"src/ERC404.sol\":9392:9418  transferFrom(from, to, id) */\n      tag_241\n        /* \"src/ERC404.sol\":9405:9409  from */\n      dup6\n        /* \"src/ERC404.sol\":9411:9413  to */\n      dup6\n        /* \"src/ERC404.sol\":9415:9417  id */\n      dup6\n        /* \"src/ERC404.sol\":9392:9404  transferFrom */\n      tag_65\n        /* \"src/ERC404.sol\":9392:9418  transferFrom(from, to, id) */\n      jump\t// in\n    tag_241:\n      pop\n      sub(shl(0xa0, 0x01), 0x01)\n        /* \"src/ERC404.sol\":9446:9460  to.code.length */\n      dup5\n      and\n      extcodesize\n        /* \"src/ERC404.sol\":9446:9465  to.code.length != 0 */\n      iszero\n      dup1\n      iszero\n      swap1\n        /* \"src/ERC404.sol\":9446:9600  to.code.length != 0 &&... */\n      tag_242\n      jumpi\n      pop\n        /* \"src/ERC404.sol\":9481:9544  ERC721Receiver(to).onERC721Received(msg.sender, from, id, data) */\n      mload(0x40)\n      shl(0xe1, 0x0a85bd01)\n      dup1\n      dup3\n      mstore\n        /* \"src/ERC404.sol\":9560:9600  ERC721Receiver.onERC721Received.selector */\n      swap1\n      sub(shl(0xa0, 0x01), 0x01)\n        /* \"src/ERC404.sol\":9481:9516  ERC721Receiver(to).onERC721Received */\n      dup7\n      and\n      swap1\n        /* \"src/ERC404.sol\":9560:9600  ERC721Receiver.onERC721Received.selector */\n      0x150b7a02\n      swap1\n        /* \"src/ERC404.sol\":9481:9544  ERC721Receiver(to).onERC721Received(msg.sender, from, id, data) */\n      tag_243\n      swap1\n        /* \"src/ERC404.sol\":9517:9527  msg.sender */\n      caller\n      swap1\n        /* \"src/ERC404.sol\":9529:9533  from */\n      dup11\n      swap1\n        /* \"src/ERC404.sol\":9535:9537  id */\n      dup10\n      swap1\n        /* \"src/ERC404.sol\":9539:9543  data */\n      dup10\n      swap1\n      dup10\n      swap1\n        /* \"src/ERC404.sol\":9481:9544  ERC721Receiver(to).onERC721Received(msg.sender, from, id, data) */\n      0x04\n      add\n      tag_244\n      jump\t// in\n    tag_243:\n      0x20\n      mload(0x40)\n      dup1\n      dup4\n      sub\n      dup2\n      0x00\n      dup8\n      gas\n      call\n      iszero\n      dup1\n      iszero\n      tag_246\n      jumpi\n      returndatasize\n      0x00\n      dup1\n      returndatacopy\n      revert(0x00, returndatasize)\n    tag_246:\n      pop\n      pop\n      pop\n      pop\n      mload(0x40)\n      returndatasize\n      not(0x1f)\n      0x1f\n      dup3\n      add\n      and\n      dup3\n      add\n      dup1\n      0x40\n      mstore\n      pop\n      dup2\n      add\n      swap1\n      tag_247\n      swap2\n      swap1\n      tag_213\n      jump\t// in\n    tag_247:\n      not(sub(shl(0xe0, 0x01), 0x01))\n        /* \"src/ERC404.sol\":9481:9600  ERC721Receiver(to).onERC721Received(msg.sender, from, id, data) !=... */\n      and\n      eq\n      iszero\n        /* \"src/ERC404.sol\":9446:9600  to.code.length != 0 &&... */\n    tag_242:\n        /* \"src/ERC404.sol\":9429:9660  if (... */\n      iszero\n      tag_248\n      jumpi\n        /* \"src/ERC404.sol\":9632:9649  UnsafeRecipient() */\n      mload(0x40)\n      shl(0xe0, 0x3da63931)\n      dup2\n      mstore\n      0x04\n      add\n      mload(0x40)\n      dup1\n      swap2\n      sub\n      swap1\n      revert\n        /* \"src/ERC404.sol\":9429:9660  if (... */\n    tag_248:\n        /* \"src/ERC404.sol\":9154:9666  function safeTransferFrom(... */\n      pop\n      pop\n      pop\n      pop\n      pop\n      jump\t// out\n        /* \"src/Void.sol\":919:1741  function tokenURI(uint256 id) public view override returns (string memory) {... */\n    tag_122:\n        /* \"src/Void.sol\":979:992  string memory */\n      0x60\n        /* \"src/Void.sol\":1037:1038  0 */\n      0x00\n        /* \"src/Void.sol\":1014:1026  baseTokenURI */\n      0x0e\n        /* \"src/Void.sol\":1008:1034  bytes(baseTokenURI).length */\n      dup1\n      sload\n      tag_250\n      swap1\n      tag_146\n      jump\t// in\n    tag_250:\n      swap1\n      pop\n        /* \"src/Void.sol\":1008:1038  bytes(baseTokenURI).length > 0 */\n      gt\n        /* \"src/Void.sol\":1004:1735  if (bytes(baseTokenURI).length > 0) {... */\n      iszero\n      tag_251\n      jumpi\n        /* \"src/Void.sol\":1075:1087  baseTokenURI */\n      0x0e\n        /* \"src/Void.sol\":1089:1109  Strings.toString(id) */\n      tag_252\n        /* \"src/Void.sol\":1106:1108  id */\n      dup4\n        /* \"src/Void.sol\":1089:1105  Strings.toString */\n      tag_253\n        /* \"src/Void.sol\":1089:1109  Strings.toString(id) */\n      jump\t// in\n    tag_252:\n        /* \"src/Void.sol\":1061:1110  string.concat(baseTokenURI, Strings.toString(id)) */\n      add(0x20, mload(0x40))\n      tag_254\n      swap3\n      swap2\n      swap1\n      tag_255\n      jump\t// in\n    tag_254:\n      mload(0x40)\n      0x20\n      dup2\n      dup4\n      sub\n      sub\n      dup2\n      mstore\n      swap1\n      0x40\n      mstore\n        /* \"src/Void.sol\":1054:1110  return string.concat(baseTokenURI, Strings.toString(id)) */\n      swap1\n      pop\n        /* \"src/Void.sol\":919:1741  function tokenURI(uint256 id) public view override returns (string memory) {... */\n      swap2\n      swap1\n      pop\n      jump\t// out\n        /* \"src/Void.sol\":1004:1735  if (bytes(baseTokenURI).length > 0) {... */\n    tag_251:\n        /* \"src/Void.sol\":1141:1158  string memory URI */\n      0x60\n        /* \"src/Void.sol\":1172:1182  uint8 seed */\n      0x00\n        /* \"src/Void.sol\":1225:1227  id */\n      dup4\n        /* \"src/Void.sol\":1208:1228  abi.encodePacked(id) */\n      add(0x20, mload(0x40))\n      tag_257\n      swap2\n        /* \"#utility.yul\":11605:11624   */\n      dup2\n      mstore\n        /* \"#utility.yul\":11649:11651   */\n      0x20\n        /* \"#utility.yul\":11640:11652   */\n      add\n      swap1\n        /* \"#utility.yul\":11476:11658   */\n      jump\n        /* \"src/Void.sol\":1208:1228  abi.encodePacked(id) */\n    tag_257:\n      mload(0x40)\n      0x20\n      dup2\n      dup4\n      sub\n      sub\n      dup2\n      mstore\n      swap1\n      0x40\n      mstore\n        /* \"src/Void.sol\":1198:1229  keccak256(abi.encodePacked(id)) */\n      dup1\n      mload\n      swap1\n      0x20\n      add\n      keccak256\n        /* \"src/Void.sol\":1185:1231  uint8(bytes1(keccak256(abi.encodePacked(id)))) */\n      0xf8\n      shr\n        /* \"src/Void.sol\":1172:1231  uint8 seed = uint8(bytes1(keccak256(abi.encodePacked(id)))) */\n      swap1\n      pop\n        /* \"src/Void.sol\":1257:1260  100 */\n      0x64\n        /* \"src/Void.sol\":1249:1253  seed */\n      dup2\n        /* \"src/Void.sol\":1249:1260  seed <= 100 */\n      0xff\n      and\n      gt\n        /* \"src/Void.sol\":1245:1705  if (seed <= 100) {... */\n      tag_259\n      jumpi\n        /* \"src/Void.sol\":1300:1307  dataURI */\n      0x0d\n        /* \"src/Void.sol\":1286:1317  string.concat(dataURI,\"1.json\") */\n      add(0x20, mload(0x40))\n      tag_260\n      swap2\n      swap1\n      tag_261\n      jump\t// in\n    tag_260:\n      mload(0x40)\n      0x20\n      dup2\n      dup4\n      sub\n      sub\n      dup2\n      mstore\n      swap1\n      0x40\n      mstore\n        /* \"src/Void.sol\":1280:1317  URI = string.concat(dataURI,\"1.json\") */\n      swap2\n      pop\n        /* \"src/Void.sol\":1245:1705  if (seed <= 100) {... */\n      jump(tag_275)\n    tag_259:\n        /* \"src/Void.sol\":1350:1353  160 */\n      0xa0\n        /* \"src/Void.sol\":1342:1346  seed */\n      dup2\n        /* \"src/Void.sol\":1342:1353  seed <= 160 */\n      0xff\n      and\n      gt\n        /* \"src/Void.sol\":1338:1705  if (seed <= 160) {... */\n      tag_263\n      jumpi\n        /* \"src/Void.sol\":1393:1400  dataURI */\n      0x0d\n        /* \"src/Void.sol\":1379:1410  string.concat(dataURI,\"2.json\") */\n      add(0x20, mload(0x40))\n      tag_260\n      swap2\n      swap1\n      tag_265\n      jump\t// in\n        /* \"src/Void.sol\":1338:1705  if (seed <= 160) {... */\n    tag_263:\n        /* \"src/Void.sol\":1443:1446  210 */\n      0xd2\n        /* \"src/Void.sol\":1435:1439  seed */\n      dup2\n        /* \"src/Void.sol\":1435:1446  seed <= 210 */\n      0xff\n      and\n      gt\n        /* \"src/Void.sol\":1431:1705  if (seed <= 210) {... */\n      tag_267\n      jumpi\n        /* \"src/Void.sol\":1486:1493  dataURI */\n      0x0d\n        /* \"src/Void.sol\":1472:1503  string.concat(dataURI,\"3.json\") */\n      add(0x20, mload(0x40))\n      tag_260\n      swap2\n      swap1\n      tag_269\n      jump\t// in\n        /* \"src/Void.sol\":1431:1705  if (seed <= 210) {... */\n    tag_267:\n        /* \"src/Void.sol\":1536:1539  240 */\n      0xf0\n        /* \"src/Void.sol\":1528:1532  seed */\n      dup2\n        /* \"src/Void.sol\":1528:1539  seed <= 240 */\n      0xff\n      and\n      gt\n        /* \"src/Void.sol\":1524:1705  if (seed <= 240) {... */\n      tag_271\n      jumpi\n        /* \"src/Void.sol\":1579:1586  dataURI */\n      0x0d\n        /* \"src/Void.sol\":1565:1596  string.concat(dataURI,\"4.json\") */\n      add(0x20, mload(0x40))\n      tag_260\n      swap2\n      swap1\n      tag_273\n      jump\t// in\n        /* \"src/Void.sol\":1524:1705  if (seed <= 240) {... */\n    tag_271:\n        /* \"src/Void.sol\":1629:1632  255 */\n      0xff\n        /* \"src/Void.sol\":1621:1625  seed */\n      dup2\n        /* \"src/Void.sol\":1621:1632  seed <= 255 */\n      0xff\n      and\n      gt\n        /* \"src/Void.sol\":1617:1705  if (seed <= 255) {... */\n      tag_275\n      jumpi\n        /* \"src/Void.sol\":1672:1679  dataURI */\n      0x0d\n        /* \"src/Void.sol\":1658:1689  string.concat(dataURI,\"5.json\") */\n      add(0x20, mload(0x40))\n      tag_276\n      swap2\n      swap1\n      tag_277\n      jump\t// in\n    tag_276:\n      mload(0x40)\n      0x20\n      dup2\n      dup4\n      sub\n      sub\n      dup2\n      mstore\n      swap1\n      0x40\n      mstore\n        /* \"src/Void.sol\":1652:1689  URI = string.concat(dataURI,\"5.json\") */\n      swap2\n      pop\n        /* \"src/Void.sol\":1617:1705  if (seed <= 255) {... */\n    tag_275:\n      pop\n        /* \"src/Void.sol\":1721:1724  URI */\n      swap3\n        /* \"src/Void.sol\":919:1741  function tokenURI(uint256 id) public view override returns (string memory) {... */\n      swap2\n      pop\n      pop\n      jump\t// out\n        /* \"src/Void.sol\":196:222  string public baseTokenURI */\n    tag_125:\n      0x0e\n      dup1\n      sload\n      tag_145\n      swap1\n      tag_146\n      jump\t// in\n        /* \"src/Void.sol\":672:776  function setTokenURI(string memory _tokenURI) public onlyOwner {... */\n    tag_134:\n        /* \"src/ERC404.sol\":313:318  owner */\n      and(sub(shl(0xa0, 0x01), 0x01), sload(0x00))\n        /* \"src/ERC404.sol\":299:309  msg.sender */\n      caller\n        /* \"src/ERC404.sol\":299:318  msg.sender != owner */\n      eq\n        /* \"src/ERC404.sol\":295:341  if (msg.sender != owner) revert Unauthorized() */\n      tag_284\n      jumpi\n        /* \"src/ERC404.sol\":327:341  Unauthorized() */\n      mload(0x40)\n      shl(0xe8, 0x82b429)\n      dup2\n      mstore\n      0x04\n      add\n      mload(0x40)\n      dup1\n      swap2\n      sub\n      swap1\n      revert\n        /* \"src/ERC404.sol\":295:341  if (msg.sender != owner) revert Unauthorized() */\n    tag_284:\n        /* \"src/Void.sol\":745:757  baseTokenURI */\n      0x0e\n        /* \"src/Void.sol\":745:769  baseTokenURI = _tokenURI */\n      tag_163\n        /* \"src/Void.sol\":760:769  _tokenURI */\n      dup3\n        /* \"src/Void.sol\":745:757  baseTokenURI */\n      dup3\n        /* \"src/Void.sol\":745:769  baseTokenURI = _tokenURI */\n      tag_164\n      jump\t// in\n        /* \"src/Void.sol\":169:190  string public dataURI */\n    tag_140:\n      0x0d\n      dup1\n      sload\n      tag_145\n      swap1\n      tag_146\n      jump\t// in\n        /* \"src/ERC404.sol\":545:758  function transferOwnership(address _owner) public virtual onlyOwner {... */\n    tag_144:\n        /* \"src/ERC404.sol\":313:318  owner */\n      and(sub(shl(0xa0, 0x01), 0x01), sload(0x00))\n        /* \"src/ERC404.sol\":299:309  msg.sender */\n      caller\n        /* \"src/ERC404.sol\":299:318  msg.sender != owner */\n      eq\n        /* \"src/ERC404.sol\":295:341  if (msg.sender != owner) revert Unauthorized() */\n      tag_293\n      jumpi\n        /* \"src/ERC404.sol\":327:341  Unauthorized() */\n      mload(0x40)\n      shl(0xe8, 0x82b429)\n      dup2\n      mstore\n      0x04\n      add\n      mload(0x40)\n      dup1\n      swap2\n      sub\n      swap1\n      revert\n        /* \"src/ERC404.sol\":295:341  if (msg.sender != owner) revert Unauthorized() */\n    tag_293:\n      sub(shl(0xa0, 0x01), 0x01)\n        /* \"src/ERC404.sol\":627:647  _owner == address(0) */\n      dup2\n      and\n        /* \"src/ERC404.sol\":623:670  if (_owner == address(0)) revert InvalidOwner() */\n      tag_295\n      jumpi\n        /* \"src/ERC404.sol\":656:670  InvalidOwner() */\n      mload(0x40)\n      shl(0xe0, 0x49e27cff)\n      dup2\n      mstore\n      0x04\n      add\n      mload(0x40)\n      dup1\n      swap2\n      sub\n      swap1\n      revert\n        /* \"src/ERC404.sol\":623:670  if (_owner == address(0)) revert InvalidOwner() */\n    tag_295:\n        /* \"src/ERC404.sol\":681:686  owner */\n      0x00\n        /* \"src/ERC404.sol\":681:695  owner = _owner */\n      dup1\n      sload\n      not(sub(shl(0xa0, 0x01), 0x01))\n      and\n      sub(shl(0xa0, 0x01), 0x01)\n      dup4\n      and\n      swap1\n      dup2\n      or\n      dup3\n      sstore\n        /* \"src/ERC404.sol\":711:751  OwnershipTransferred(msg.sender, _owner) */\n      mload(0x40)\n        /* \"src/ERC404.sol\":681:695  owner = _owner */\n      swap1\n      swap2\n        /* \"src/ERC404.sol\":732:742  msg.sender */\n      caller\n      swap2\n        /* \"src/ERC404.sol\":711:751  OwnershipTransferred(msg.sender, _owner) */\n      0x8be0079c531659141344cd1fd0a4f28419497f9722a3daafe3b4186f6b6457e0\n      swap2\n        /* \"src/ERC404.sol\":681:686  owner */\n      swap1\n        /* \"src/ERC404.sol\":711:751  OwnershipTransferred(msg.sender, _owner) */\n      log3\n        /* \"src/ERC404.sol\":545:758  function transferOwnership(address _owner) public virtual onlyOwner {... */\n      pop\n      jump\t// out\n        /* \"src/ERC404.sol\":10825:10915  function _getUnit() internal view returns (uint256) {... */\n    tag_174:\n        /* \"src/ERC404.sol\":10868:10875  uint256 */\n      0x00\n        /* \"src/ERC404.sol\":10894:10908  10 ** decimals */\n      tag_297\n        /* \"src/ERC404.sol\":10900:10908  decimals */\n      immutable(\"0x9bca270d0850fcb8a3fcc18af189ab4779e3d042217bf9eb693aea2595978cd8\")\n        /* \"src/ERC404.sol\":10894:10896  10 */\n      0x0a\n        /* \"src/ERC404.sol\":10894:10908  10 ** decimals */\n      tag_298\n      jump\t// in\n    tag_297:\n        /* \"src/ERC404.sol\":10887:10908  return 10 ** decimals */\n      swap1\n      pop\n        /* \"src/ERC404.sol\":10825:10915  function _getUnit() internal view returns (uint256) {... */\n      swap1\n      jump\t// out\n        /* \"src/ERC404.sol\":9731:10789  function _transfer(... */\n    tag_199:\n        /* \"src/ERC404.sol\":9840:9844  bool */\n      0x00\n        /* \"src/ERC404.sol\":9856:9868  uint256 unit */\n      dup1\n        /* \"src/ERC404.sol\":9871:9881  _getUnit() */\n      tag_300\n        /* \"src/ERC404.sol\":9871:9879  _getUnit */\n      tag_174\n        /* \"src/ERC404.sol\":9871:9881  _getUnit() */\n      jump\t// in\n    tag_300:\n      sub(shl(0xa0, 0x01), 0x01)\n        /* \"src/ERC404.sol\":9921:9936  balanceOf[from] */\n      dup1\n      dup8\n      and\n        /* \"src/ERC404.sol\":9891:9918  uint256 balanceBeforeSender */\n      0x00\n        /* \"src/ERC404.sol\":9921:9936  balanceOf[from] */\n      dup2\n      dup2\n      mstore\n        /* \"src/ERC404.sol\":9921:9930  balanceOf */\n      0x05\n        /* \"src/ERC404.sol\":9921:9936  balanceOf[from] */\n      0x20\n      mstore\n      0x40\n      dup1\n      dup3\n      keccak256\n      dup1\n      sload\n        /* \"src/ERC404.sol\":9978:9991  balanceOf[to] */\n      swap5\n      dup11\n      and\n      dup4\n      mstore\n      swap1\n      dup3\n      keccak256\n      sload\n        /* \"src/ERC404.sol\":10002:10017  balanceOf[from] */\n      swap3\n      dup3\n      mstore\n        /* \"src/ERC404.sol\":9856:9881  uint256 unit = _getUnit() */\n      swap4\n      swap5\n      pop\n        /* \"src/ERC404.sol\":9921:9936  balanceOf[from] */\n      swap2\n      swap3\n        /* \"src/ERC404.sol\":9978:9991  balanceOf[to] */\n      swap1\n      swap2\n        /* \"src/ERC404.sol\":10021:10027  amount */\n      dup7\n      swap2\n        /* \"src/ERC404.sol\":9921:9936  balanceOf[from] */\n      swap1\n        /* \"src/ERC404.sol\":10002:10027  balanceOf[from] -= amount */\n      tag_301\n        /* \"src/ERC404.sol\":10021:10027  amount */\n      dup4\n        /* \"src/ERC404.sol\":9921:9936  balanceOf[from] */\n      dup7\n        /* \"src/ERC404.sol\":10002:10027  balanceOf[from] -= amount */\n      tag_176\n      jump\t// in\n    tag_301:\n      swap1\n      swap2\n      sstore\n      pop\n      pop\n      sub(shl(0xa0, 0x01), 0x01)\n        /* \"src/ERC404.sol\":10062:10075  balanceOf[to] */\n      dup1\n      dup8\n      and\n      0x00\n      swap1\n      dup2\n      mstore\n        /* \"src/ERC404.sol\":10062:10071  balanceOf */\n      0x05\n        /* \"src/ERC404.sol\":10062:10075  balanceOf[to] */\n      0x20\n      swap1\n      dup2\n      mstore\n      0x40\n      dup1\n      dup4\n      keccak256\n        /* \"src/ERC404.sol\":10062:10085  balanceOf[to] += amount */\n      dup1\n      sload\n      dup11\n      add\n      swap1\n      sstore\n        /* \"src/ERC404.sol\":10166:10181  whitelist[from] */\n      swap3\n      dup11\n      and\n      dup3\n      mstore\n        /* \"src/ERC404.sol\":10166:10175  whitelist */\n      0x0c\n        /* \"src/ERC404.sol\":10166:10181  whitelist[from] */\n      swap1\n      mstore\n      keccak256\n      sload\n      0xff\n      and\n        /* \"src/ERC404.sol\":10161:10406  if (!whitelist[from]) {... */\n      tag_302\n      jumpi\n      sub(shl(0xa0, 0x01), 0x01)\n        /* \"src/ERC404.sol\":10270:10285  balanceOf[from] */\n      dup8\n      and\n        /* \"src/ERC404.sol\":10197:10219  uint256 tokens_to_burn */\n      0x00\n        /* \"src/ERC404.sol\":10270:10285  balanceOf[from] */\n      swap1\n      dup2\n      mstore\n        /* \"src/ERC404.sol\":10270:10279  balanceOf */\n      0x05\n        /* \"src/ERC404.sol\":10270:10285  balanceOf[from] */\n      0x20\n      mstore\n      0x40\n      dup2\n      keccak256\n      sload\n        /* \"src/ERC404.sol\":10270:10292  balanceOf[from] / unit */\n      tag_303\n      swap1\n        /* \"src/ERC404.sol\":10288:10292  unit */\n      dup6\n      swap1\n        /* \"src/ERC404.sol\":10270:10292  balanceOf[from] / unit */\n      tag_304\n      jump\t// in\n    tag_303:\n        /* \"src/ERC404.sol\":10223:10249  balanceBeforeSender / unit */\n      tag_305\n        /* \"src/ERC404.sol\":10245:10249  unit */\n      dup6\n        /* \"src/ERC404.sol\":10223:10242  balanceBeforeSender */\n      dup6\n        /* \"src/ERC404.sol\":10223:10249  balanceBeforeSender / unit */\n      tag_304\n      jump\t// in\n    tag_305:\n        /* \"src/ERC404.sol\":10222:10293  (balanceBeforeSender / unit) -... */\n      tag_306\n      swap2\n      swap1\n      tag_176\n      jump\t// in\n    tag_306:\n        /* \"src/ERC404.sol\":10197:10293  uint256 tokens_to_burn = (balanceBeforeSender / unit) -... */\n      swap1\n      pop\n        /* \"src/ERC404.sol\":10312:10321  uint256 i */\n      0x00\n        /* \"src/ERC404.sol\":10307:10396  for (uint256 i = 0; i < tokens_to_burn; i++) {... */\n    tag_307:\n        /* \"src/ERC404.sol\":10331:10345  tokens_to_burn */\n      dup2\n        /* \"src/ERC404.sol\":10327:10328  i */\n      dup2\n        /* \"src/ERC404.sol\":10327:10345  i < tokens_to_burn */\n      lt\n        /* \"src/ERC404.sol\":10307:10396  for (uint256 i = 0; i < tokens_to_burn; i++) {... */\n      iszero\n      tag_308\n      jumpi\n        /* \"src/ERC404.sol\":10370:10381  _burn(from) */\n      tag_310\n        /* \"src/ERC404.sol\":10376:10380  from */\n      dup10\n        /* \"src/ERC404.sol\":10370:10375  _burn */\n      tag_311\n        /* \"src/ERC404.sol\":10370:10381  _burn(from) */\n      jump\t// in\n    tag_310:\n        /* \"src/ERC404.sol\":10347:10350  i++ */\n      0x01\n      add\n        /* \"src/ERC404.sol\":10307:10396  for (uint256 i = 0; i < tokens_to_burn; i++) {... */\n      jump(tag_307)\n    tag_308:\n      pop\n        /* \"src/ERC404.sol\":10183:10406  {... */\n      pop\n        /* \"src/ERC404.sol\":10161:10406  if (!whitelist[from]) {... */\n    tag_302:\n      sub(shl(0xa0, 0x01), 0x01)\n        /* \"src/ERC404.sol\":10479:10492  whitelist[to] */\n      dup7\n      and\n      0x00\n      swap1\n      dup2\n      mstore\n        /* \"src/ERC404.sol\":10479:10488  whitelist */\n      0x0c\n        /* \"src/ERC404.sol\":10479:10492  whitelist[to] */\n      0x20\n      mstore\n      0x40\n      swap1\n      keccak256\n      sload\n      0xff\n      and\n        /* \"src/ERC404.sol\":10474:10715  if (!whitelist[to]) {... */\n      tag_312\n      jumpi\n        /* \"src/ERC404.sol\":10508:10530  uint256 tokens_to_mint */\n      0x00\n        /* \"src/ERC404.sol\":10575:10603  balanceBeforeReceiver / unit */\n      tag_313\n        /* \"src/ERC404.sol\":10599:10603  unit */\n      dup5\n        /* \"src/ERC404.sol\":10575:10596  balanceBeforeReceiver */\n      dup4\n        /* \"src/ERC404.sol\":10575:10603  balanceBeforeReceiver / unit */\n      tag_304\n      jump\t// in\n    tag_313:\n      sub(shl(0xa0, 0x01), 0x01)\n        /* \"src/ERC404.sol\":10534:10547  balanceOf[to] */\n      dup9\n      and\n      0x00\n      swap1\n      dup2\n      mstore\n        /* \"src/ERC404.sol\":10534:10543  balanceOf */\n      0x05\n        /* \"src/ERC404.sol\":10534:10547  balanceOf[to] */\n      0x20\n      mstore\n      0x40\n      swap1\n      keccak256\n      sload\n        /* \"src/ERC404.sol\":10534:10554  balanceOf[to] / unit */\n      tag_314\n      swap1\n        /* \"src/ERC404.sol\":10550:10554  unit */\n      dup7\n      swap1\n        /* \"src/ERC404.sol\":10534:10554  balanceOf[to] / unit */\n      tag_304\n      jump\t// in\n    tag_314:\n        /* \"src/ERC404.sol\":10533:10604  (balanceOf[to] / unit) -... */\n      tag_315\n      swap2\n      swap1\n      tag_176\n      jump\t// in\n    tag_315:\n        /* \"src/ERC404.sol\":10508:10604  uint256 tokens_to_mint = (balanceOf[to] / unit) -... */\n      swap1\n      pop\n        /* \"src/ERC404.sol\":10623:10632  uint256 i */\n      0x00\n        /* \"src/ERC404.sol\":10618:10705  for (uint256 i = 0; i < tokens_to_mint; i++) {... */\n    tag_316:\n        /* \"src/ERC404.sol\":10642:10656  tokens_to_mint */\n      dup2\n        /* \"src/ERC404.sol\":10638:10639  i */\n      dup2\n        /* \"src/ERC404.sol\":10638:10656  i < tokens_to_mint */\n      lt\n        /* \"src/ERC404.sol\":10618:10705  for (uint256 i = 0; i < tokens_to_mint; i++) {... */\n      iszero\n      tag_317\n      jumpi\n        /* \"src/ERC404.sol\":10681:10690  _mint(to) */\n      tag_319\n        /* \"src/ERC404.sol\":10687:10689  to */\n      dup9\n        /* \"src/ERC404.sol\":10681:10686  _mint */\n      tag_320\n        /* \"src/ERC404.sol\":10681:10690  _mint(to) */\n      jump\t// in\n    tag_319:\n        /* \"src/ERC404.sol\":10658:10661  i++ */\n      0x01\n      add\n        /* \"src/ERC404.sol\":10618:10705  for (uint256 i = 0; i < tokens_to_mint; i++) {... */\n      jump(tag_316)\n    tag_317:\n      pop\n        /* \"src/ERC404.sol\":10494:10715  {... */\n      pop\n        /* \"src/ERC404.sol\":10474:10715  if (!whitelist[to]) {... */\n    tag_312:\n        /* \"src/ERC404.sol\":10750:10752  to */\n      dup6\n      sub(shl(0xa0, 0x01), 0x01)\n        /* \"src/ERC404.sol\":10730:10761  ERC20Transfer(from, to, amount) */\n      and\n        /* \"src/ERC404.sol\":10744:10748  from */\n      dup8\n      sub(shl(0xa0, 0x01), 0x01)\n        /* \"src/ERC404.sol\":10730:10761  ERC20Transfer(from, to, amount) */\n      and\n      0xe59fdd36d0d223c0c7d996db7ad796880f45e1936cb0bb7ac102e7082e031487\n        /* \"src/ERC404.sol\":10754:10760  amount */\n      dup8\n        /* \"src/ERC404.sol\":10730:10761  ERC20Transfer(from, to, amount) */\n      mload(0x40)\n      tag_321\n      swap2\n        /* \"#utility.yul\":1838:1863   */\n      dup2\n      mstore\n        /* \"#utility.yul\":1826:1828   */\n      0x20\n        /* \"#utility.yul\":1811:1829   */\n      add\n      swap1\n        /* \"#utility.yul\":1692:1869   */\n      jump\n        /* \"src/ERC404.sol\":10730:10761  ERC20Transfer(from, to, amount) */\n    tag_321:\n      mload(0x40)\n      dup1\n      swap2\n      sub\n      swap1\n      log3\n      pop\n        /* \"src/ERC404.sol\":10778:10782  true */\n      0x01\n      swap7\n        /* \"src/ERC404.sol\":9731:10789  function _transfer(... */\n      swap6\n      pop\n      pop\n      pop\n      pop\n      pop\n      pop\n      jump\t// out\n        /* \"src/ERC404.sol\":11785:11939  function _setNameSymbol(... */\n    tag_219:\n        /* \"src/ERC404.sol\":11894:11898  name */\n      0x01\n        /* \"src/ERC404.sol\":11894:11906  name = _name */\n      tag_323\n        /* \"src/ERC404.sol\":11901:11906  _name */\n      dup4\n        /* \"src/ERC404.sol\":11894:11898  name */\n      dup3\n        /* \"src/ERC404.sol\":11894:11906  name = _name */\n      tag_164\n      jump\t// in\n    tag_323:\n      pop\n        /* \"src/ERC404.sol\":11916:11922  symbol */\n      0x02\n        /* \"src/ERC404.sol\":11916:11932  symbol = _symbol */\n      tag_214\n        /* \"src/ERC404.sol\":11925:11932  _symbol */\n      dup3\n        /* \"src/ERC404.sol\":11916:11922  symbol */\n      dup3\n        /* \"src/ERC404.sol\":11916:11932  symbol = _symbol */\n      tag_164\n      jump\t// in\n        /* \"@openzeppelin/contracts/utils/Strings.sol\":637:1335  function toString(uint256 value) internal pure returns (string memory) {... */\n    tag_253:\n        /* \"@openzeppelin/contracts/utils/Strings.sol\":693:706  string memory */\n      0x60\n        /* \"@openzeppelin/contracts/utils/Strings.sol\":742:756  uint256 length */\n      0x00\n        /* \"@openzeppelin/contracts/utils/Strings.sol\":759:776  Math.log10(value) */\n      tag_326\n        /* \"@openzeppelin/contracts/utils/Strings.sol\":770:775  value */\n      dup4\n        /* \"@openzeppelin/contracts/utils/Strings.sol\":759:769  Math.log10 */\n      tag_327\n        /* \"@openzeppelin/contracts/utils/Strings.sol\":759:776  Math.log10(value) */\n      jump\t// in\n    tag_326:\n        /* \"@openzeppelin/contracts/utils/Strings.sol\":779:780  1 */\n      0x01\n        /* \"@openzeppelin/contracts/utils/Strings.sol\":759:780  Math.log10(value) + 1 */\n      add\n        /* \"@openzeppelin/contracts/utils/Strings.sol\":742:780  uint256 length = Math.log10(value) + 1 */\n      swap1\n      pop\n        /* \"@openzeppelin/contracts/utils/Strings.sol\":794:814  string memory buffer */\n      0x00\n        /* \"@openzeppelin/contracts/utils/Strings.sol\":828:834  length */\n      dup2\n        /* \"@openzeppelin/contracts/utils/Strings.sol\":817:835  new string(length) */\n      0xffffffffffffffff\n      dup2\n      gt\n      iszero\n      tag_329\n      jumpi\n      tag_329\n      tag_330\n      jump\t// in\n    tag_329:\n      mload(0x40)\n      swap1\n      dup1\n      dup3\n      mstore\n      dup1\n      0x1f\n      add\n      not(0x1f)\n      and\n      0x20\n      add\n      dup3\n      add\n      0x40\n      mstore\n      dup1\n      iszero\n      tag_331\n      jumpi\n      0x20\n      dup3\n      add\n      dup2\n      dup1\n      calldatasize\n      dup4\n      calldatacopy\n      add\n      swap1\n      pop\n    tag_331:\n      pop\n        /* \"@openzeppelin/contracts/utils/Strings.sol\":794:835  string memory buffer = new string(length) */\n      swap1\n      pop\n        /* \"@openzeppelin/contracts/utils/Strings.sol\":955:983  add(buffer, add(32, length)) */\n      dup2\n      dup2\n      add\n        /* \"@openzeppelin/contracts/utils/Strings.sol\":971:973  32 */\n      0x20\n        /* \"@openzeppelin/contracts/utils/Strings.sol\":955:983  add(buffer, add(32, length)) */\n      add\n        /* \"@openzeppelin/contracts/utils/Strings.sol\":1010:1292  while (true) {... */\n    tag_332:\n      not(0x00)\n        /* \"@openzeppelin/contracts/utils/Strings.sol\":1041:1046  ptr-- */\n      add\n      shl(0x81, 0x181899199a1a9b1b9c1cb0b131b232b3)\n        /* \"@openzeppelin/contracts/utils/Strings.sol\":1175:1177  10 */\n      0x0a\n        /* \"@openzeppelin/contracts/utils/Strings.sol\":1164:1178  mod(value, 10) */\n      dup7\n      mod\n        /* \"@openzeppelin/contracts/utils/Strings.sol\":1159:1191  byte(mod(value, 10), HEX_DIGITS) */\n      byte\n        /* \"@openzeppelin/contracts/utils/Strings.sol\":1041:1046  ptr-- */\n      dup2\n        /* \"@openzeppelin/contracts/utils/Strings.sol\":1146:1192  mstore8(ptr, byte(mod(value, 10), HEX_DIGITS)) */\n      mstore8\n        /* \"@openzeppelin/contracts/utils/Strings.sol\":1236:1238  10 */\n      0x0a\n        /* \"@openzeppelin/contracts/utils/Strings.sol\":1227:1238  value /= 10 */\n      dup6\n      div\n      swap5\n      pop\n        /* \"@openzeppelin/contracts/utils/Strings.sol\":1256:1277  if (value == 0) break */\n      dup5\n        /* \"@openzeppelin/contracts/utils/Strings.sol\":1010:1292  while (true) {... */\n      tag_332\n        /* \"@openzeppelin/contracts/utils/Strings.sol\":1256:1277  if (value == 0) break */\n      jumpi\n      pop\n        /* \"@openzeppelin/contracts/utils/Strings.sol\":1312:1318  buffer */\n      swap4\n        /* \"@openzeppelin/contracts/utils/Strings.sol\":637:1335  function toString(uint256 value) internal pure returns (string memory) {... */\n      swap3\n      pop\n      pop\n      pop\n      jump\t// out\n        /* \"src/ERC404.sol\":11418:11779  function _burn(address from) internal virtual {... */\n    tag_311:\n      sub(shl(0xa0, 0x01), 0x01)\n        /* \"src/ERC404.sol\":11478:11496  from == address(0) */\n      dup2\n      and\n        /* \"src/ERC404.sol\":11474:11545  if (from == address(0)) {... */\n      tag_339\n      jumpi\n        /* \"src/ERC404.sol\":11519:11534  InvalidSender() */\n      mload(0x40)\n      shl(0xe1, 0x6edaef2f)\n      dup2\n      mstore\n      0x04\n      add\n      mload(0x40)\n      dup1\n      swap2\n      sub\n      swap1\n      revert\n        /* \"src/ERC404.sol\":11474:11545  if (from == address(0)) {... */\n    tag_339:\n      sub(shl(0xa0, 0x01), 0x01)\n        /* \"src/ERC404.sol\":11568:11580  _owned[from] */\n      dup2\n      and\n        /* \"src/ERC404.sol\":11555:11565  uint256 id */\n      0x00\n        /* \"src/ERC404.sol\":11568:11580  _owned[from] */\n      swap1\n      dup2\n      mstore\n        /* \"src/ERC404.sol\":11568:11574  _owned */\n      0x0a\n        /* \"src/ERC404.sol\":11568:11580  _owned[from] */\n      0x20\n      mstore\n      0x40\n      dup2\n      keccak256\n        /* \"src/ERC404.sol\":11581:11600  _owned[from].length */\n      dup1\n      sload\n        /* \"src/ERC404.sol\":11581:11604  _owned[from].length - 1 */\n      tag_340\n      swap1\n        /* \"src/ERC404.sol\":11603:11604  1 */\n      0x01\n      swap1\n        /* \"src/ERC404.sol\":11581:11604  _owned[from].length - 1 */\n      tag_176\n      jump\t// in\n    tag_340:\n        /* \"src/ERC404.sol\":11568:11605  _owned[from][_owned[from].length - 1] */\n      dup2\n      sload\n      dup2\n      lt\n      tag_342\n      jumpi\n      tag_342\n      tag_181\n      jump\t// in\n    tag_342:\n      swap1\n      0x00\n      mstore\n      keccak256(0x00, 0x20)\n      add\n      sload\n        /* \"src/ERC404.sol\":11555:11605  uint256 id = _owned[from][_owned[from].length - 1] */\n      swap1\n      pop\n        /* \"src/ERC404.sol\":11615:11621  _owned */\n      0x0a\n        /* \"src/ERC404.sol\":11615:11627  _owned[from] */\n      0x00\n        /* \"src/ERC404.sol\":11622:11626  from */\n      dup4\n      sub(shl(0xa0, 0x01), 0x01)\n        /* \"src/ERC404.sol\":11615:11627  _owned[from] */\n      and\n      sub(shl(0xa0, 0x01), 0x01)\n      and\n      dup2\n      mstore\n      0x20\n      add\n      swap1\n      dup2\n      mstore\n      0x20\n      add\n      0x00\n      keccak256\n        /* \"src/ERC404.sol\":11615:11633  _owned[from].pop() */\n      dup1\n      sload\n      dup1\n      tag_345\n      jumpi\n      tag_345\n      tag_189\n      jump\t// in\n    tag_345:\n      0x00\n      dup3\n      dup2\n      mstore\n      0x20\n      dup1\n      dup3\n      keccak256\n      dup4\n      add\n      not(0x00)\n      swap1\n      dup2\n      add\n      dup4\n      swap1\n      sstore\n      swap1\n      swap3\n      add\n      swap1\n      swap3\n      sstore\n        /* \"src/ERC404.sol\":11650:11665  _ownedIndex[id] */\n      dup3\n      dup3\n      mstore\n        /* \"src/ERC404.sol\":11650:11661  _ownedIndex */\n      0x0b\n        /* \"src/ERC404.sol\":11650:11665  _ownedIndex[id] */\n      dup2\n      mstore\n      0x40\n      dup1\n      dup4\n      keccak256\n        /* \"src/ERC404.sol\":11643:11665  delete _ownedIndex[id] */\n      dup4\n      swap1\n      sstore\n        /* \"src/ERC404.sol\":11682:11690  _ownerOf */\n      0x09\n        /* \"src/ERC404.sol\":11682:11694  _ownerOf[id] */\n      dup3\n      mstore\n      dup1\n      dup4\n      keccak256\n        /* \"src/ERC404.sol\":11675:11694  delete _ownerOf[id] */\n      dup1\n      sload\n      not(sub(shl(0xa0, 0x01), 0x01))\n      swap1\n      dup2\n      and\n      swap1\n      swap2\n      sstore\n        /* \"src/ERC404.sol\":11711:11722  getApproved */\n      0x07\n        /* \"src/ERC404.sol\":11711:11726  getApproved[id] */\n      swap1\n      swap3\n      mstore\n      dup1\n      dup4\n      keccak256\n        /* \"src/ERC404.sol\":11704:11726  delete getApproved[id] */\n      dup1\n      sload\n      swap1\n      swap3\n      and\n      swap1\n      swap2\n      sstore\n        /* \"src/ERC404.sol\":11742:11772  Transfer(from, address(0), id) */\n      mload\n        /* \"src/ERC404.sol\":11662:11664  id */\n      dup3\n      swap2\n        /* \"src/ERC404.sol\":11615:11633  _owned[from].pop() */\n      swap1\n      sub(shl(0xa0, 0x01), 0x01)\n        /* \"src/ERC404.sol\":11742:11772  Transfer(from, address(0), id) */\n      dup6\n      and\n      swap1\n      0xddf252ad1be2c89b69c2b068fc378daa952ba7f163c4a11628f55a4df523b3ef\n      swap1\n        /* \"src/ERC404.sol\":11615:11633  _owned[from].pop() */\n      dup4\n      swap1\n        /* \"src/ERC404.sol\":11742:11772  Transfer(from, address(0), id) */\n      log4\n        /* \"src/ERC404.sol\":11464:11779  {... */\n      pop\n        /* \"src/ERC404.sol\":11418:11779  function _burn(address from) internal virtual {... */\n      pop\n      jump\t// out\n        /* \"src/ERC404.sol\":10921:11412  function _mint(address to) internal virtual {... */\n    tag_320:\n      sub(shl(0xa0, 0x01), 0x01)\n        /* \"src/ERC404.sol\":10979:10995  to == address(0) */\n      dup2\n      and\n        /* \"src/ERC404.sol\":10975:11047  if (to == address(0)) {... */\n      tag_348\n      jumpi\n        /* \"src/ERC404.sol\":11018:11036  InvalidRecipient() */\n      mload(0x40)\n      shl(0xe1, 0x4e469669)\n      dup2\n      mstore\n      0x04\n      add\n      mload(0x40)\n      dup1\n      swap2\n      sub\n      swap1\n      revert\n        /* \"src/ERC404.sol\":10975:11047  if (to == address(0)) {... */\n    tag_348:\n        /* \"src/ERC404.sol\":11081:11087  minted */\n      0x04\n        /* \"src/ERC404.sol\":11081:11089  minted++ */\n      dup1\n      sload\n      0x01\n      add\n      swap1\n      dup2\n      swap1\n      sstore\n        /* \"src/ERC404.sol\":11081:11087  minted */\n      0x00\n        /* \"src/ERC404.sol\":11181:11193  _ownerOf[id] */\n      dup2\n      dup2\n      mstore\n        /* \"src/ERC404.sol\":11181:11189  _ownerOf */\n      0x09\n        /* \"src/ERC404.sol\":11181:11193  _ownerOf[id] */\n      0x20\n      mstore\n      0x40\n      swap1\n      keccak256\n      sload\n      sub(shl(0xa0, 0x01), 0x01)\n      and\n        /* \"src/ERC404.sol\":11181:11207  _ownerOf[id] != address(0) */\n      iszero\n        /* \"src/ERC404.sol\":11177:11256  if (_ownerOf[id] != address(0)) {... */\n      tag_349\n      jumpi\n        /* \"src/ERC404.sol\":11230:11245  AlreadyExists() */\n      mload(0x40)\n      shl(0xe1, 0x119b4fd3)\n      dup2\n      mstore\n      0x04\n      add\n      mload(0x40)\n      dup1\n      swap2\n      sub\n      swap1\n      revert\n        /* \"src/ERC404.sol\":11177:11256  if (_ownerOf[id] != address(0)) {... */\n    tag_349:\n        /* \"src/ERC404.sol\":11266:11278  _ownerOf[id] */\n      0x00\n      dup2\n      dup2\n      mstore\n        /* \"src/ERC404.sol\":11266:11274  _ownerOf */\n      0x09\n        /* \"src/ERC404.sol\":11266:11278  _ownerOf[id] */\n      0x20\n      swap1\n      dup2\n      mstore\n      0x40\n      dup1\n      dup4\n      keccak256\n        /* \"src/ERC404.sol\":11266:11283  _ownerOf[id] = to */\n      dup1\n      sload\n      not(sub(shl(0xa0, 0x01), 0x01))\n      and\n      sub(shl(0xa0, 0x01), 0x01)\n      dup8\n      and\n      swap1\n      dup2\n      or\n      swap1\n      swap2\n      sstore\n        /* \"src/ERC404.sol\":11293:11303  _owned[to] */\n      dup1\n      dup5\n      mstore\n        /* \"src/ERC404.sol\":11293:11299  _owned */\n      0x0a\n        /* \"src/ERC404.sol\":11293:11303  _owned[to] */\n      dup4\n      mstore\n      swap1\n      dup4\n      keccak256\n        /* \"src/ERC404.sol\":11293:11312  _owned[to].push(id) */\n      dup1\n      sload\n      0x01\n      dup2\n      dup2\n      add\n      dup4\n      sstore\n      dup3\n      dup7\n      mstore\n      swap4\n      dup6\n      keccak256\n      add\n      dup6\n      swap1\n      sstore\n        /* \"src/ERC404.sol\":11340:11350  _owned[to] */\n      swap3\n      mstore\n        /* \"src/ERC404.sol\":11340:11357  _owned[to].length */\n      swap1\n      sload\n        /* \"src/ERC404.sol\":11340:11361  _owned[to].length - 1 */\n      tag_351\n      swap2\n      swap1\n      tag_176\n      jump\t// in\n    tag_351:\n        /* \"src/ERC404.sol\":11322:11337  _ownedIndex[id] */\n      0x00\n      dup3\n      dup2\n      mstore\n        /* \"src/ERC404.sol\":11322:11333  _ownedIndex */\n      0x0b\n        /* \"src/ERC404.sol\":11322:11337  _ownedIndex[id] */\n      0x20\n      mstore\n      0x40\n      dup1\n      dup3\n      keccak256\n        /* \"src/ERC404.sol\":11322:11361  _ownedIndex[id] = _owned[to].length - 1 */\n      swap3\n      swap1\n      swap3\n      sstore\n        /* \"src/ERC404.sol\":11377:11405  Transfer(address(0), to, id) */\n      swap1\n      mload\n        /* \"src/ERC404.sol\":11334:11336  id */\n      dup3\n      swap2\n      sub(shl(0xa0, 0x01), 0x01)\n        /* \"src/ERC404.sol\":11377:11405  Transfer(address(0), to, id) */\n      dup6\n      and\n      swap2\n      0xddf252ad1be2c89b69c2b068fc378daa952ba7f163c4a11628f55a4df523b3ef\n      swap1\n        /* \"src/ERC404.sol\":11322:11337  _ownedIndex[id] */\n      dup3\n      swap1\n        /* \"src/ERC404.sol\":11377:11405  Transfer(address(0), to, id) */\n      log4\n        /* \"src/ERC404.sol\":10965:11412  {... */\n      pop\n        /* \"src/ERC404.sol\":10921:11412  function _mint(address to) internal virtual {... */\n      pop\n      jump\t// out\n        /* \"@openzeppelin/contracts/utils/math/Math.sol\":12214:13130  function log10(uint256 value) internal pure returns (uint256) {... */\n    tag_327:\n        /* \"@openzeppelin/contracts/utils/math/Math.sol\":12267:12274  uint256 */\n      0x00\n      dup1\n      shl(0x40, 0x184f03e93ff9f4daa797ed6e38ed64bf6a1f01)\n        /* \"@openzeppelin/contracts/utils/math/Math.sol\":12342:12359  value >= 10 ** 64 */\n      dup4\n      lt\n        /* \"@openzeppelin/contracts/utils/math/Math.sol\":12338:12441  if (value >= 10 ** 64) {... */\n      tag_353\n      jumpi\n      shl(0x40, 0x184f03e93ff9f4daa797ed6e38ed64bf6a1f01)\n        /* \"@openzeppelin/contracts/utils/math/Math.sol\":12379:12396  value /= 10 ** 64 */\n      dup4\n      div\n      swap3\n      pop\n        /* \"@openzeppelin/contracts/utils/math/Math.sol\":12424:12426  64 */\n      0x40\n        /* \"@openzeppelin/contracts/utils/math/Math.sol\":12414:12426  result += 64 */\n      add\n        /* \"@openzeppelin/contracts/utils/math/Math.sol\":12338:12441  if (value >= 10 ** 64) {... */\n    tag_353:\n        /* \"@openzeppelin/contracts/utils/math/Math.sol\":12467:12475  10 ** 32 */\n      0x04ee2d6d415b85acef8100000000\n        /* \"@openzeppelin/contracts/utils/math/Math.sol\":12458:12463  value */\n      dup4\n        /* \"@openzeppelin/contracts/utils/math/Math.sol\":12458:12475  value >= 10 ** 32 */\n      lt\n        /* \"@openzeppelin/contracts/utils/math/Math.sol\":12454:12557  if (value >= 10 ** 32) {... */\n      tag_356\n      jumpi\n        /* \"@openzeppelin/contracts/utils/math/Math.sol\":12504:12512  10 ** 32 */\n      0x04ee2d6d415b85acef8100000000\n        /* \"@openzeppelin/contracts/utils/math/Math.sol\":12495:12512  value /= 10 ** 32 */\n      dup4\n      div\n      swap3\n      pop\n        /* \"@openzeppelin/contracts/utils/math/Math.sol\":12540:12542  32 */\n      0x20\n        /* \"@openzeppelin/contracts/utils/math/Math.sol\":12530:12542  result += 32 */\n      add\n        /* \"@openzeppelin/contracts/utils/math/Math.sol\":12454:12557  if (value >= 10 ** 32) {... */\n    tag_356:\n        /* \"@openzeppelin/contracts/utils/math/Math.sol\":12583:12591  10 ** 16 */\n      0x2386f26fc10000\n        /* \"@openzeppelin/contracts/utils/math/Math.sol\":12574:12579  value */\n      dup4\n        /* \"@openzeppelin/contracts/utils/math/Math.sol\":12574:12591  value >= 10 ** 16 */\n      lt\n        /* \"@openzeppelin/contracts/utils/math/Math.sol\":12570:12673  if (value >= 10 ** 16) {... */\n      tag_359\n      jumpi\n        /* \"@openzeppelin/contracts/utils/math/Math.sol\":12620:12628  10 ** 16 */\n      0x2386f26fc10000\n        /* \"@openzeppelin/contracts/utils/math/Math.sol\":12611:12628  value /= 10 ** 16 */\n      dup4\n      div\n      swap3\n      pop\n        /* \"@openzeppelin/contracts/utils/math/Math.sol\":12656:12658  16 */\n      0x10\n        /* \"@openzeppelin/contracts/utils/math/Math.sol\":12646:12658  result += 16 */\n      add\n        /* \"@openzeppelin/contracts/utils/math/Math.sol\":12570:12673  if (value >= 10 ** 16) {... */\n    tag_359:\n        /* \"@openzeppelin/contracts/utils/math/Math.sol\":12699:12706  10 ** 8 */\n      0x05f5e100\n        /* \"@openzeppelin/contracts/utils/math/Math.sol\":12690:12695  value */\n      dup4\n        /* \"@openzeppelin/contracts/utils/math/Math.sol\":12690:12706  value >= 10 ** 8 */\n      lt\n        /* \"@openzeppelin/contracts/utils/math/Math.sol\":12686:12786  if (value >= 10 ** 8) {... */\n      tag_362\n      jumpi\n        /* \"@openzeppelin/contracts/utils/math/Math.sol\":12735:12742  10 ** 8 */\n      0x05f5e100\n        /* \"@openzeppelin/contracts/utils/math/Math.sol\":12726:12742  value /= 10 ** 8 */\n      dup4\n      div\n      swap3\n      pop\n        /* \"@openzeppelin/contracts/utils/math/Math.sol\":12770:12771  8 */\n      0x08\n        /* \"@openzeppelin/contracts/utils/math/Math.sol\":12760:12771  result += 8 */\n      add\n        /* \"@openzeppelin/contracts/utils/math/Math.sol\":12686:12786  if (value >= 10 ** 8) {... */\n    tag_362:\n        /* \"@openzeppelin/contracts/utils/math/Math.sol\":12812:12819  10 ** 4 */\n      0x2710\n        /* \"@openzeppelin/contracts/utils/math/Math.sol\":12803:12808  value */\n      dup4\n        /* \"@openzeppelin/contracts/utils/math/Math.sol\":12803:12819  value >= 10 ** 4 */\n      lt\n        /* \"@openzeppelin/contracts/utils/math/Math.sol\":12799:12899  if (value >= 10 ** 4) {... */\n      tag_365\n      jumpi\n        /* \"@openzeppelin/contracts/utils/math/Math.sol\":12848:12855  10 ** 4 */\n      0x2710\n        /* \"@openzeppelin/contracts/utils/math/Math.sol\":12839:12855  value /= 10 ** 4 */\n      dup4\n      div\n      swap3\n      pop\n        /* \"@openzeppelin/contracts/utils/math/Math.sol\":12883:12884  4 */\n      0x04\n        /* \"@openzeppelin/contracts/utils/math/Math.sol\":12873:12884  result += 4 */\n      add\n        /* \"@openzeppelin/contracts/utils/math/Math.sol\":12799:12899  if (value >= 10 ** 4) {... */\n    tag_365:\n        /* \"@openzeppelin/contracts/utils/math/Math.sol\":12925:12932  10 ** 2 */\n      0x64\n        /* \"@openzeppelin/contracts/utils/math/Math.sol\":12916:12921  value */\n      dup4\n        /* \"@openzeppelin/contracts/utils/math/Math.sol\":12916:12932  value >= 10 ** 2 */\n      lt\n        /* \"@openzeppelin/contracts/utils/math/Math.sol\":12912:13012  if (value >= 10 ** 2) {... */\n      tag_368\n      jumpi\n        /* \"@openzeppelin/contracts/utils/math/Math.sol\":12961:12968  10 ** 2 */\n      0x64\n        /* \"@openzeppelin/contracts/utils/math/Math.sol\":12952:12968  value /= 10 ** 2 */\n      dup4\n      div\n      swap3\n      pop\n        /* \"@openzeppelin/contracts/utils/math/Math.sol\":12996:12997  2 */\n      0x02\n        /* \"@openzeppelin/contracts/utils/math/Math.sol\":12986:12997  result += 2 */\n      add\n        /* \"@openzeppelin/contracts/utils/math/Math.sol\":12912:13012  if (value >= 10 ** 2) {... */\n    tag_368:\n        /* \"@openzeppelin/contracts/utils/math/Math.sol\":13038:13045  10 ** 1 */\n      0x0a\n        /* \"@openzeppelin/contracts/utils/math/Math.sol\":13029:13034  value */\n      dup4\n        /* \"@openzeppelin/contracts/utils/math/Math.sol\":13029:13045  value >= 10 ** 1 */\n      lt\n        /* \"@openzeppelin/contracts/utils/math/Math.sol\":13025:13091  if (value >= 10 ** 1) {... */\n      tag_151\n      jumpi\n        /* \"@openzeppelin/contracts/utils/math/Math.sol\":13075:13076  1 */\n      0x01\n        /* \"@openzeppelin/contracts/utils/math/Math.sol\":13065:13076  result += 1 */\n      add\n        /* \"@openzeppelin/contracts/utils/math/Math.sol\":13117:13123  result */\n      swap3\n        /* \"@openzeppelin/contracts/utils/math/Math.sol\":12214:13130  function log10(uint256 value) internal pure returns (uint256) {... */\n      swap2\n      pop\n      pop\n      jump\t// out\n        /* \"#utility.yul\":14:264   */\n    tag_372:\n        /* \"#utility.yul\":99:100   */\n      0x00\n        /* \"#utility.yul\":109:222   */\n    tag_384:\n        /* \"#utility.yul\":123:129   */\n      dup4\n        /* \"#utility.yul\":120:121   */\n      dup2\n        /* \"#utility.yul\":117:130   */\n      lt\n        /* \"#utility.yul\":109:222   */\n      iszero\n      tag_386\n      jumpi\n        /* \"#utility.yul\":199:210   */\n      dup2\n      dup2\n      add\n        /* \"#utility.yul\":193:211   */\n      mload\n        /* \"#utility.yul\":180:191   */\n      dup4\n      dup3\n      add\n        /* \"#utility.yul\":173:212   */\n      mstore\n        /* \"#utility.yul\":145:147   */\n      0x20\n        /* \"#utility.yul\":138:148   */\n      add\n        /* \"#utility.yul\":109:222   */\n      jump(tag_384)\n    tag_386:\n      pop\n      pop\n        /* \"#utility.yul\":256:257   */\n      0x00\n        /* \"#utility.yul\":238:254   */\n      swap2\n      add\n        /* \"#utility.yul\":231:258   */\n      mstore\n        /* \"#utility.yul\":14:264   */\n      jump\t// out\n        /* \"#utility.yul\":269:665   */\n    tag_41:\n        /* \"#utility.yul\":418:420   */\n      0x20\n        /* \"#utility.yul\":407:416   */\n      dup2\n        /* \"#utility.yul\":400:421   */\n      mstore\n        /* \"#utility.yul\":381:385   */\n      0x00\n        /* \"#utility.yul\":450:456   */\n      dup3\n        /* \"#utility.yul\":444:457   */\n      mload\n        /* \"#utility.yul\":493:499   */\n      dup1\n        /* \"#utility.yul\":488:490   */\n      0x20\n        /* \"#utility.yul\":477:486   */\n      dup5\n        /* \"#utility.yul\":473:491   */\n      add\n        /* \"#utility.yul\":466:500   */\n      mstore\n        /* \"#utility.yul\":509:588   */\n      tag_388\n        /* \"#utility.yul\":581:587   */\n      dup2\n        /* \"#utility.yul\":576:578   */\n      0x40\n        /* \"#utility.yul\":565:574   */\n      dup6\n        /* \"#utility.yul\":561:579   */\n      add\n        /* \"#utility.yul\":556:558   */\n      0x20\n        /* \"#utility.yul\":548:554   */\n      dup8\n        /* \"#utility.yul\":544:559   */\n      add\n        /* \"#utility.yul\":509:588   */\n      tag_372\n      jump\t// in\n    tag_388:\n        /* \"#utility.yul\":649:651   */\n      0x1f\n        /* \"#utility.yul\":628:643   */\n      add\n      not(0x1f)\n        /* \"#utility.yul\":624:653   */\n      and\n        /* \"#utility.yul\":609:654   */\n      swap2\n      swap1\n      swap2\n      add\n        /* \"#utility.yul\":656:658   */\n      0x40\n        /* \"#utility.yul\":605:659   */\n      add\n      swap3\n        /* \"#utility.yul\":269:665   */\n      swap2\n      pop\n      pop\n      jump\t// out\n        /* \"#utility.yul\":670:850   */\n    tag_44:\n        /* \"#utility.yul\":729:735   */\n      0x00\n        /* \"#utility.yul\":782:784   */\n      0x20\n        /* \"#utility.yul\":770:779   */\n      dup3\n        /* \"#utility.yul\":761:768   */\n      dup5\n        /* \"#utility.yul\":757:780   */\n      sub\n        /* \"#utility.yul\":753:785   */\n      slt\n        /* \"#utility.yul\":750:802   */\n      iszero\n      tag_390\n      jumpi\n        /* \"#utility.yul\":798:799   */\n      0x00\n        /* \"#utility.yul\":795:796   */\n      dup1\n        /* \"#utility.yul\":788:800   */\n      revert\n        /* \"#utility.yul\":750:802   */\n    tag_390:\n      pop\n        /* \"#utility.yul\":821:844   */\n      calldataload\n      swap2\n        /* \"#utility.yul\":670:850   */\n      swap1\n      pop\n      jump\t// out\n        /* \"#utility.yul\":1063:1236   */\n    tag_373:\n        /* \"#utility.yul\":1131:1151   */\n      dup1\n      calldataload\n      sub(shl(0xa0, 0x01), 0x01)\n        /* \"#utility.yul\":1180:1211   */\n      dup2\n      and\n        /* \"#utility.yul\":1170:1212   */\n      dup2\n      eq\n        /* \"#utility.yul\":1160:1230   */\n      tag_224\n      jumpi\n        /* \"#utility.yul\":1226:1227   */\n      0x00\n        /* \"#utility.yul\":1223:1224   */\n      dup1\n        /* \"#utility.yul\":1216:1228   */\n      revert\n        /* \"#utility.yul\":1241:1495   */\n    tag_50:\n        /* \"#utility.yul\":1309:1315   */\n      0x00\n        /* \"#utility.yul\":1317:1323   */\n      dup1\n        /* \"#utility.yul\":1370:1372   */\n      0x40\n        /* \"#utility.yul\":1358:1367   */\n      dup4\n        /* \"#utility.yul\":1349:1356   */\n      dup6\n        /* \"#utility.yul\":1345:1368   */\n      sub\n        /* \"#utility.yul\":1341:1373   */\n      slt\n        /* \"#utility.yul\":1338:1390   */\n      iszero\n      tag_395\n      jumpi\n        /* \"#utility.yul\":1386:1387   */\n      0x00\n        /* \"#utility.yul\":1383:1384   */\n      dup1\n        /* \"#utility.yul\":1376:1388   */\n      revert\n        /* \"#utility.yul\":1338:1390   */\n    tag_395:\n        /* \"#utility.yul\":1409:1438   */\n      tag_396\n        /* \"#utility.yul\":1428:1437   */\n      dup4\n        /* \"#utility.yul\":1409:1438   */\n      tag_373\n      jump\t// in\n    tag_396:\n        /* \"#utility.yul\":1399:1438   */\n      swap5\n        /* \"#utility.yul\":1485:1487   */\n      0x20\n        /* \"#utility.yul\":1470:1488   */\n      swap4\n      swap1\n      swap4\n      add\n        /* \"#utility.yul\":1457:1489   */\n      calldataload\n      swap4\n      pop\n      pop\n      pop\n        /* \"#utility.yul\":1241:1495   */\n      jump\t// out\n        /* \"#utility.yul\":1874:2001   */\n    tag_330:\n        /* \"#utility.yul\":1935:1945   */\n      0x4e487b71\n        /* \"#utility.yul\":1930:1933   */\n      0xe0\n        /* \"#utility.yul\":1926:1946   */\n      shl\n        /* \"#utility.yul\":1923:1924   */\n      0x00\n        /* \"#utility.yul\":1916:1947   */\n      mstore\n        /* \"#utility.yul\":1966:1970   */\n      0x41\n        /* \"#utility.yul\":1963:1964   */\n      0x04\n        /* \"#utility.yul\":1956:1971   */\n      mstore\n        /* \"#utility.yul\":1990:1994   */\n      0x24\n        /* \"#utility.yul\":1987:1988   */\n      0x00\n        /* \"#utility.yul\":1980:1995   */\n      revert\n        /* \"#utility.yul\":2006:2725   */\n    tag_374:\n        /* \"#utility.yul\":2049:2054   */\n      0x00\n        /* \"#utility.yul\":2102:2105   */\n      dup3\n        /* \"#utility.yul\":2095:2099   */\n      0x1f\n        /* \"#utility.yul\":2087:2093   */\n      dup4\n        /* \"#utility.yul\":2083:2100   */\n      add\n        /* \"#utility.yul\":2079:2106   */\n      slt\n        /* \"#utility.yul\":2069:2124   */\n      tag_401\n      jumpi\n        /* \"#utility.yul\":2120:2121   */\n      0x00\n        /* \"#utility.yul\":2117:2118   */\n      dup1\n        /* \"#utility.yul\":2110:2122   */\n      revert\n        /* \"#utility.yul\":2069:2124   */\n    tag_401:\n        /* \"#utility.yul\":2156:2162   */\n      dup2\n        /* \"#utility.yul\":2143:2163   */\n      calldataload\n        /* \"#utility.yul\":2182:2200   */\n      0xffffffffffffffff\n        /* \"#utility.yul\":2219:2221   */\n      dup1\n        /* \"#utility.yul\":2215:2217   */\n      dup3\n        /* \"#utility.yul\":2212:2222   */\n      gt\n        /* \"#utility.yul\":2209:2245   */\n      iszero\n      tag_403\n      jumpi\n        /* \"#utility.yul\":2225:2243   */\n      tag_403\n      tag_330\n      jump\t// in\n    tag_403:\n        /* \"#utility.yul\":2300:2302   */\n      0x40\n        /* \"#utility.yul\":2294:2303   */\n      mload\n        /* \"#utility.yul\":2268:2270   */\n      0x1f\n        /* \"#utility.yul\":2354:2367   */\n      dup4\n      add\n      not(0x1f)\n        /* \"#utility.yul\":2350:2372   */\n      swap1\n      dup2\n      and\n        /* \"#utility.yul\":2374:2376   */\n      0x3f\n        /* \"#utility.yul\":2346:2377   */\n      add\n        /* \"#utility.yul\":2342:2382   */\n      and\n        /* \"#utility.yul\":2330:2383   */\n      dup2\n      add\n      swap1\n        /* \"#utility.yul\":2398:2416   */\n      dup3\n      dup3\n      gt\n        /* \"#utility.yul\":2418:2440   */\n      dup2\n      dup4\n      lt\n        /* \"#utility.yul\":2395:2441   */\n      or\n        /* \"#utility.yul\":2392:2464   */\n      iszero\n      tag_405\n      jumpi\n        /* \"#utility.yul\":2444:2462   */\n      tag_405\n      tag_330\n      jump\t// in\n    tag_405:\n        /* \"#utility.yul\":2484:2494   */\n      dup2\n        /* \"#utility.yul\":2480:2482   */\n      0x40\n        /* \"#utility.yul\":2473:2495   */\n      mstore\n        /* \"#utility.yul\":2519:2521   */\n      dup4\n        /* \"#utility.yul\":2511:2517   */\n      dup2\n        /* \"#utility.yul\":2504:2522   */\n      mstore\n        /* \"#utility.yul\":2565:2568   */\n      dup7\n        /* \"#utility.yul\":2558:2562   */\n      0x20\n        /* \"#utility.yul\":2553:2555   */\n      dup6\n        /* \"#utility.yul\":2545:2551   */\n      dup9\n        /* \"#utility.yul\":2541:2556   */\n      add\n        /* \"#utility.yul\":2537:2563   */\n      add\n        /* \"#utility.yul\":2534:2569   */\n      gt\n        /* \"#utility.yul\":2531:2586   */\n      iszero\n      tag_406\n      jumpi\n        /* \"#utility.yul\":2582:2583   */\n      0x00\n        /* \"#utility.yul\":2579:2580   */\n      dup1\n        /* \"#utility.yul\":2572:2584   */\n      revert\n        /* \"#utility.yul\":2531:2586   */\n    tag_406:\n        /* \"#utility.yul\":2646:2648   */\n      dup4\n        /* \"#utility.yul\":2639:2643   */\n      0x20\n        /* \"#utility.yul\":2631:2637   */\n      dup8\n        /* \"#utility.yul\":2627:2644   */\n      add\n        /* \"#utility.yul\":2620:2624   */\n      0x20\n        /* \"#utility.yul\":2612:2618   */\n      dup4\n        /* \"#utility.yul\":2608:2625   */\n      add\n        /* \"#utility.yul\":2595:2649   */\n      calldatacopy\n        /* \"#utility.yul\":2693:2694   */\n      0x00\n        /* \"#utility.yul\":2686:2690   */\n      0x20\n        /* \"#utility.yul\":2681:2683   */\n      dup6\n        /* \"#utility.yul\":2673:2679   */\n      dup4\n        /* \"#utility.yul\":2669:2684   */\n      add\n        /* \"#utility.yul\":2665:2691   */\n      add\n        /* \"#utility.yul\":2658:2695   */\n      mstore\n        /* \"#utility.yul\":2713:2719   */\n      dup1\n        /* \"#utility.yul\":2704:2719   */\n      swap5\n      pop\n      pop\n      pop\n      pop\n      pop\n        /* \"#utility.yul\":2006:2725   */\n      swap3\n      swap2\n      pop\n      pop\n      jump\t// out\n        /* \"#utility.yul\":2730:3052   */\n    tag_60:\n        /* \"#utility.yul\":2799:2805   */\n      0x00\n        /* \"#utility.yul\":2852:2854   */\n      0x20\n        /* \"#utility.yul\":2840:2849   */\n      dup3\n        /* \"#utility.yul\":2831:2838   */\n      dup5\n        /* \"#utility.yul\":2827:2850   */\n      sub\n        /* \"#utility.yul\":2823:2855   */\n      slt\n        /* \"#utility.yul\":2820:2872   */\n      iszero\n      tag_408\n      jumpi\n        /* \"#utility.yul\":2868:2869   */\n      0x00\n        /* \"#utility.yul\":2865:2866   */\n      dup1\n        /* \"#utility.yul\":2858:2870   */\n      revert\n        /* \"#utility.yul\":2820:2872   */\n    tag_408:\n        /* \"#utility.yul\":2908:2917   */\n      dup2\n        /* \"#utility.yul\":2895:2918   */\n      calldataload\n        /* \"#utility.yul\":2941:2959   */\n      0xffffffffffffffff\n        /* \"#utility.yul\":2933:2939   */\n      dup2\n        /* \"#utility.yul\":2930:2960   */\n      gt\n        /* \"#utility.yul\":2927:2977   */\n      iszero\n      tag_409\n      jumpi\n        /* \"#utility.yul\":2973:2974   */\n      0x00\n        /* \"#utility.yul\":2970:2971   */\n      dup1\n        /* \"#utility.yul\":2963:2975   */\n      revert\n        /* \"#utility.yul\":2927:2977   */\n    tag_409:\n        /* \"#utility.yul\":2996:3046   */\n      tag_410\n        /* \"#utility.yul\":3038:3045   */\n      dup5\n        /* \"#utility.yul\":3029:3035   */\n      dup3\n        /* \"#utility.yul\":3018:3027   */\n      dup6\n        /* \"#utility.yul\":3014:3036   */\n      add\n        /* \"#utility.yul\":2996:3046   */\n      tag_374\n      jump\t// in\n    tag_410:\n        /* \"#utility.yul\":2986:3046   */\n      swap5\n        /* \"#utility.yul\":2730:3052   */\n      swap4\n      pop\n      pop\n      pop\n      pop\n      jump\t// out\n        /* \"#utility.yul\":3057:3385   */\n    tag_64:\n        /* \"#utility.yul\":3134:3140   */\n      0x00\n        /* \"#utility.yul\":3142:3148   */\n      dup1\n        /* \"#utility.yul\":3150:3156   */\n      0x00\n        /* \"#utility.yul\":3203:3205   */\n      0x60\n        /* \"#utility.yul\":3191:3200   */\n      dup5\n        /* \"#utility.yul\":3182:3189   */\n      dup7\n        /* \"#utility.yul\":3178:3201   */\n      sub\n        /* \"#utility.yul\":3174:3206   */\n      slt\n        /* \"#utility.yul\":3171:3223   */\n      iszero\n      tag_412\n      jumpi\n        /* \"#utility.yul\":3219:3220   */\n      0x00\n        /* \"#utility.yul\":3216:3217   */\n      dup1\n        /* \"#utility.yul\":3209:3221   */\n      revert\n        /* \"#utility.yul\":3171:3223   */\n    tag_412:\n        /* \"#utility.yul\":3242:3271   */\n      tag_413\n        /* \"#utility.yul\":3261:3270   */\n      dup5\n        /* \"#utility.yul\":3242:3271   */\n      tag_373\n      jump\t// in\n    tag_413:\n        /* \"#utility.yul\":3232:3271   */\n      swap3\n      pop\n        /* \"#utility.yul\":3290:3328   */\n      tag_414\n        /* \"#utility.yul\":3324:3326   */\n      0x20\n        /* \"#utility.yul\":3313:3322   */\n      dup6\n        /* \"#utility.yul\":3309:3327   */\n      add\n        /* \"#utility.yul\":3290:3328   */\n      tag_373\n      jump\t// in\n    tag_414:\n        /* \"#utility.yul\":3280:3328   */\n      swap2\n      pop\n        /* \"#utility.yul\":3375:3377   */\n      0x40\n        /* \"#utility.yul\":3364:3373   */\n      dup5\n        /* \"#utility.yul\":3360:3378   */\n      add\n        /* \"#utility.yul\":3347:3379   */\n      calldataload\n        /* \"#utility.yul\":3337:3379   */\n      swap1\n      pop\n        /* \"#utility.yul\":3057:3385   */\n      swap3\n      pop\n      swap3\n      pop\n      swap3\n      jump\t// out\n        /* \"#utility.yul\":3579:4122   */\n    tag_81:\n        /* \"#utility.yul\":3667:3673   */\n      0x00\n        /* \"#utility.yul\":3675:3681   */\n      dup1\n        /* \"#utility.yul\":3728:3730   */\n      0x40\n        /* \"#utility.yul\":3716:3725   */\n      dup4\n        /* \"#utility.yul\":3707:3714   */\n      dup6\n        /* \"#utility.yul\":3703:3726   */\n      sub\n        /* \"#utility.yul\":3699:3731   */\n      slt\n        /* \"#utility.yul\":3696:3748   */\n      iszero\n      tag_417\n      jumpi\n        /* \"#utility.yul\":3744:3745   */\n      0x00\n        /* \"#utility.yul\":3741:3742   */\n      dup1\n        /* \"#utility.yul\":3734:3746   */\n      revert\n        /* \"#utility.yul\":3696:3748   */\n    tag_417:\n        /* \"#utility.yul\":3784:3793   */\n      dup3\n        /* \"#utility.yul\":3771:3794   */\n      calldataload\n        /* \"#utility.yul\":3813:3831   */\n      0xffffffffffffffff\n        /* \"#utility.yul\":3854:3856   */\n      dup1\n        /* \"#utility.yul\":3846:3852   */\n      dup3\n        /* \"#utility.yul\":3843:3857   */\n      gt\n        /* \"#utility.yul\":3840:3874   */\n      iszero\n      tag_418\n      jumpi\n        /* \"#utility.yul\":3870:3871   */\n      0x00\n        /* \"#utility.yul\":3867:3868   */\n      dup1\n        /* \"#utility.yul\":3860:3872   */\n      revert\n        /* \"#utility.yul\":3840:3874   */\n    tag_418:\n        /* \"#utility.yul\":3893:3943   */\n      tag_419\n        /* \"#utility.yul\":3935:3942   */\n      dup7\n        /* \"#utility.yul\":3926:3932   */\n      dup4\n        /* \"#utility.yul\":3915:3924   */\n      dup8\n        /* \"#utility.yul\":3911:3933   */\n      add\n        /* \"#utility.yul\":3893:3943   */\n      tag_374\n      jump\t// in\n    tag_419:\n        /* \"#utility.yul\":3883:3943   */\n      swap4\n      pop\n        /* \"#utility.yul\":3996:3998   */\n      0x20\n        /* \"#utility.yul\":3985:3994   */\n      dup6\n        /* \"#utility.yul\":3981:3999   */\n      add\n        /* \"#utility.yul\":3968:4000   */\n      calldataload\n        /* \"#utility.yul\":3952:4000   */\n      swap2\n      pop\n        /* \"#utility.yul\":4025:4027   */\n      dup1\n        /* \"#utility.yul\":4015:4023   */\n      dup3\n        /* \"#utility.yul\":4012:4028   */\n      gt\n        /* \"#utility.yul\":4009:4045   */\n      iszero\n      tag_420\n      jumpi\n        /* \"#utility.yul\":4041:4042   */\n      0x00\n        /* \"#utility.yul\":4038:4039   */\n      dup1\n        /* \"#utility.yul\":4031:4043   */\n      revert\n        /* \"#utility.yul\":4009:4045   */\n    tag_420:\n      pop\n        /* \"#utility.yul\":4064:4116   */\n      tag_421\n        /* \"#utility.yul\":4108:4115   */\n      dup6\n        /* \"#utility.yul\":4097:4105   */\n      dup3\n        /* \"#utility.yul\":4086:4095   */\n      dup7\n        /* \"#utility.yul\":4082:4106   */\n      add\n        /* \"#utility.yul\":4064:4116   */\n      tag_374\n      jump\t// in\n    tag_421:\n        /* \"#utility.yul\":4054:4116   */\n      swap2\n      pop\n      pop\n        /* \"#utility.yul\":3579:4122   */\n      swap3\n      pop\n      swap3\n      swap1\n      pop\n      jump\t// out\n        /* \"#utility.yul\":4127:4474   */\n    tag_85:\n        /* \"#utility.yul\":4192:4198   */\n      0x00\n        /* \"#utility.yul\":4200:4206   */\n      dup1\n        /* \"#utility.yul\":4253:4255   */\n      0x40\n        /* \"#utility.yul\":4241:4250   */\n      dup4\n        /* \"#utility.yul\":4232:4239   */\n      dup6\n        /* \"#utility.yul\":4228:4251   */\n      sub\n        /* \"#utility.yul\":4224:4256   */\n      slt\n        /* \"#utility.yul\":4221:4273   */\n      iszero\n      tag_423\n      jumpi\n        /* \"#utility.yul\":4269:4270   */\n      0x00\n        /* \"#utility.yul\":4266:4267   */\n      dup1\n        /* \"#utility.yul\":4259:4271   */\n      revert\n        /* \"#utility.yul\":4221:4273   */\n    tag_423:\n        /* \"#utility.yul\":4292:4321   */\n      tag_424\n        /* \"#utility.yul\":4311:4320   */\n      dup4\n        /* \"#utility.yul\":4292:4321   */\n      tag_373\n      jump\t// in\n    tag_424:\n        /* \"#utility.yul\":4282:4321   */\n      swap2\n      pop\n        /* \"#utility.yul\":4371:4373   */\n      0x20\n        /* \"#utility.yul\":4360:4369   */\n      dup4\n        /* \"#utility.yul\":4356:4374   */\n      add\n        /* \"#utility.yul\":4343:4375   */\n      calldataload\n        /* \"#utility.yul\":4418:4423   */\n      dup1\n        /* \"#utility.yul\":4411:4424   */\n      iszero\n        /* \"#utility.yul\":4404:4425   */\n      iszero\n        /* \"#utility.yul\":4397:4402   */\n      dup2\n        /* \"#utility.yul\":4394:4426   */\n      eq\n        /* \"#utility.yul\":4384:4444   */\n      tag_425\n      jumpi\n        /* \"#utility.yul\":4440:4441   */\n      0x00\n        /* \"#utility.yul\":4437:4438   */\n      dup1\n        /* \"#utility.yul\":4430:4442   */\n      revert\n        /* \"#utility.yul\":4384:4444   */\n    tag_425:\n        /* \"#utility.yul\":4463:4468   */\n      dup1\n        /* \"#utility.yul\":4453:4468   */\n      swap2\n      pop\n      pop\n        /* \"#utility.yul\":4127:4474   */\n      swap3\n      pop\n      swap3\n      swap1\n      pop\n      jump\t// out\n        /* \"#utility.yul\":4479:4665   */\n    tag_96:\n        /* \"#utility.yul\":4538:4544   */\n      0x00\n        /* \"#utility.yul\":4591:4593   */\n      0x20\n        /* \"#utility.yul\":4579:4588   */\n      dup3\n        /* \"#utility.yul\":4570:4577   */\n      dup5\n        /* \"#utility.yul\":4566:4589   */\n      sub\n        /* \"#utility.yul\":4562:4594   */\n      slt\n        /* \"#utility.yul\":4559:4611   */\n      iszero\n      tag_427\n      jumpi\n        /* \"#utility.yul\":4607:4608   */\n      0x00\n        /* \"#utility.yul\":4604:4605   */\n      dup1\n        /* \"#utility.yul\":4597:4609   */\n      revert\n        /* \"#utility.yul\":4559:4611   */\n    tag_427:\n        /* \"#utility.yul\":4630:4659   */\n      tag_165\n        /* \"#utility.yul\":4649:4658   */\n      dup3\n        /* \"#utility.yul\":4630:4659   */\n      tag_373\n      jump\t// in\n        /* \"#utility.yul\":4670:5478   */\n    tag_118:\n        /* \"#utility.yul\":4767:4773   */\n      0x00\n        /* \"#utility.yul\":4775:4781   */\n      dup1\n        /* \"#utility.yul\":4783:4789   */\n      0x00\n        /* \"#utility.yul\":4791:4797   */\n      dup1\n        /* \"#utility.yul\":4799:4805   */\n      0x00\n        /* \"#utility.yul\":4852:4855   */\n      0x80\n        /* \"#utility.yul\":4840:4849   */\n      dup7\n        /* \"#utility.yul\":4831:4838   */\n      dup9\n        /* \"#utility.yul\":4827:4850   */\n      sub\n        /* \"#utility.yul\":4823:4856   */\n      slt\n        /* \"#utility.yul\":4820:4873   */\n      iszero\n      tag_430\n      jumpi\n        /* \"#utility.yul\":4869:4870   */\n      0x00\n        /* \"#utility.yul\":4866:4867   */\n      dup1\n        /* \"#utility.yul\":4859:4871   */\n      revert\n        /* \"#utility.yul\":4820:4873   */\n    tag_430:\n        /* \"#utility.yul\":4892:4921   */\n      tag_431\n        /* \"#utility.yul\":4911:4920   */\n      dup7\n        /* \"#utility.yul\":4892:4921   */\n      tag_373\n      jump\t// in\n    tag_431:\n        /* \"#utility.yul\":4882:4921   */\n      swap5\n      pop\n        /* \"#utility.yul\":4940:4978   */\n      tag_432\n        /* \"#utility.yul\":4974:4976   */\n      0x20\n        /* \"#utility.yul\":4963:4972   */\n      dup8\n        /* \"#utility.yul\":4959:4977   */\n      add\n        /* \"#utility.yul\":4940:4978   */\n      tag_373\n      jump\t// in\n    tag_432:\n        /* \"#utility.yul\":4930:4978   */\n      swap4\n      pop\n        /* \"#utility.yul\":5025:5027   */\n      0x40\n        /* \"#utility.yul\":5014:5023   */\n      dup7\n        /* \"#utility.yul\":5010:5028   */\n      add\n        /* \"#utility.yul\":4997:5029   */\n      calldataload\n        /* \"#utility.yul\":4987:5029   */\n      swap3\n      pop\n        /* \"#utility.yul\":5080:5082   */\n      0x60\n        /* \"#utility.yul\":5069:5078   */\n      dup7\n        /* \"#utility.yul\":5065:5083   */\n      add\n        /* \"#utility.yul\":5052:5084   */\n      calldataload\n        /* \"#utility.yul\":5103:5121   */\n      0xffffffffffffffff\n        /* \"#utility.yul\":5144:5146   */\n      dup1\n        /* \"#utility.yul\":5136:5142   */\n      dup3\n        /* \"#utility.yul\":5133:5147   */\n      gt\n        /* \"#utility.yul\":5130:5164   */\n      iszero\n      tag_433\n      jumpi\n        /* \"#utility.yul\":5160:5161   */\n      0x00\n        /* \"#utility.yul\":5157:5158   */\n      dup1\n        /* \"#utility.yul\":5150:5162   */\n      revert\n        /* \"#utility.yul\":5130:5164   */\n    tag_433:\n        /* \"#utility.yul\":5198:5204   */\n      dup2\n        /* \"#utility.yul\":5187:5196   */\n      dup9\n        /* \"#utility.yul\":5183:5205   */\n      add\n        /* \"#utility.yul\":5173:5205   */\n      swap2\n      pop\n        /* \"#utility.yul\":5243:5250   */\n      dup9\n        /* \"#utility.yul\":5236:5240   */\n      0x1f\n        /* \"#utility.yul\":5232:5234   */\n      dup4\n        /* \"#utility.yul\":5228:5241   */\n      add\n        /* \"#utility.yul\":5224:5251   */\n      slt\n        /* \"#utility.yul\":5214:5269   */\n      tag_434\n      jumpi\n        /* \"#utility.yul\":5265:5266   */\n      0x00\n        /* \"#utility.yul\":5262:5263   */\n      dup1\n        /* \"#utility.yul\":5255:5267   */\n      revert\n        /* \"#utility.yul\":5214:5269   */\n    tag_434:\n        /* \"#utility.yul\":5305:5307   */\n      dup2\n        /* \"#utility.yul\":5292:5308   */\n      calldataload\n        /* \"#utility.yul\":5331:5333   */\n      dup2\n        /* \"#utility.yul\":5323:5329   */\n      dup2\n        /* \"#utility.yul\":5320:5334   */\n      gt\n        /* \"#utility.yul\":5317:5351   */\n      iszero\n      tag_435\n      jumpi\n        /* \"#utility.yul\":5347:5348   */\n      0x00\n        /* \"#utility.yul\":5344:5345   */\n      dup1\n        /* \"#utility.yul\":5337:5349   */\n      revert\n        /* \"#utility.yul\":5317:5351   */\n    tag_435:\n        /* \"#utility.yul\":5392:5399   */\n      dup10\n        /* \"#utility.yul\":5387:5389   */\n      0x20\n        /* \"#utility.yul\":5378:5384   */\n      dup3\n        /* \"#utility.yul\":5374:5376   */\n      dup6\n        /* \"#utility.yul\":5370:5385   */\n      add\n        /* \"#utility.yul\":5366:5390   */\n      add\n        /* \"#utility.yul\":5363:5400   */\n      gt\n        /* \"#utility.yul\":5360:5417   */\n      iszero\n      tag_436\n      jumpi\n        /* \"#utility.yul\":5413:5414   */\n      0x00\n        /* \"#utility.yul\":5410:5411   */\n      dup1\n        /* \"#utility.yul\":5403:5415   */\n      revert\n        /* \"#utility.yul\":5360:5417   */\n    tag_436:\n        /* \"#utility.yul\":4670:5478   */\n      swap7\n      swap10\n      swap6\n      swap9\n      pop\n      swap4\n      swap7\n      pop\n        /* \"#utility.yul\":5444:5446   */\n      0x20\n        /* \"#utility.yul\":5436:5447   */\n      add\n      swap5\n        /* \"#utility.yul\":5466:5472   */\n      swap4\n        /* \"#utility.yul\":4670:5478   */\n      swap3\n      pop\n      pop\n      pop\n      jump\t// out\n        /* \"#utility.yul\":5483:5743   */\n    tag_129:\n        /* \"#utility.yul\":5551:5557   */\n      0x00\n        /* \"#utility.yul\":5559:5565   */\n      dup1\n        /* \"#utility.yul\":5612:5614   */\n      0x40\n        /* \"#utility.yul\":5600:5609   */\n      dup4\n        /* \"#utility.yul\":5591:5598   */\n      dup6\n        /* \"#utility.yul\":5587:5610   */\n      sub\n        /* \"#utility.yul\":5583:5615   */\n      slt\n        /* \"#utility.yul\":5580:5632   */\n      iszero\n      tag_438\n      jumpi\n        /* \"#utility.yul\":5628:5629   */\n      0x00\n        /* \"#utility.yul\":5625:5626   */\n      dup1\n        /* \"#utility.yul\":5618:5630   */\n      revert\n        /* \"#utility.yul\":5580:5632   */\n    tag_438:\n        /* \"#utility.yul\":5651:5680   */\n      tag_439\n        /* \"#utility.yul\":5670:5679   */\n      dup4\n        /* \"#utility.yul\":5651:5680   */\n      tag_373\n      jump\t// in\n    tag_439:\n        /* \"#utility.yul\":5641:5680   */\n      swap2\n      pop\n        /* \"#utility.yul\":5699:5737   */\n      tag_440\n        /* \"#utility.yul\":5733:5735   */\n      0x20\n        /* \"#utility.yul\":5722:5731   */\n      dup5\n        /* \"#utility.yul\":5718:5736   */\n      add\n        /* \"#utility.yul\":5699:5737   */\n      tag_373\n      jump\t// in\n    tag_440:\n        /* \"#utility.yul\":5689:5737   */\n      swap1\n      pop\n        /* \"#utility.yul\":5483:5743   */\n      swap3\n      pop\n      swap3\n      swap1\n      pop\n      jump\t// out\n        /* \"#utility.yul\":5748:6128   */\n    tag_146:\n        /* \"#utility.yul\":5827:5828   */\n      0x01\n        /* \"#utility.yul\":5823:5835   */\n      dup2\n      dup2\n      shr\n      swap1\n        /* \"#utility.yul\":5870:5882   */\n      dup3\n      and\n      dup1\n        /* \"#utility.yul\":5891:5952   */\n      tag_442\n      jumpi\n        /* \"#utility.yul\":5945:5949   */\n      0x7f\n        /* \"#utility.yul\":5937:5943   */\n      dup3\n        /* \"#utility.yul\":5933:5950   */\n      and\n        /* \"#utility.yul\":5923:5950   */\n      swap2\n      pop\n        /* \"#utility.yul\":5891:5952   */\n    tag_442:\n        /* \"#utility.yul\":5998:6000   */\n      0x20\n        /* \"#utility.yul\":5990:5996   */\n      dup3\n        /* \"#utility.yul\":5987:6001   */\n      lt\n        /* \"#utility.yul\":5967:5985   */\n      dup2\n        /* \"#utility.yul\":5964:6002   */\n      sub\n        /* \"#utility.yul\":5961:6122   */\n      tag_443\n      jumpi\n        /* \"#utility.yul\":6044:6054   */\n      0x4e487b71\n        /* \"#utility.yul\":6039:6042   */\n      0xe0\n        /* \"#utility.yul\":6035:6055   */\n      shl\n        /* \"#utility.yul\":6032:6033   */\n      0x00\n        /* \"#utility.yul\":6025:6056   */\n      mstore\n        /* \"#utility.yul\":6079:6083   */\n      0x22\n        /* \"#utility.yul\":6076:6077   */\n      0x04\n        /* \"#utility.yul\":6069:6084   */\n      mstore\n        /* \"#utility.yul\":6107:6111   */\n      0x24\n        /* \"#utility.yul\":6104:6105   */\n      0x00\n        /* \"#utility.yul\":6097:6112   */\n      revert\n        /* \"#utility.yul\":5961:6122   */\n    tag_443:\n      pop\n        /* \"#utility.yul\":5748:6128   */\n      swap2\n      swap1\n      pop\n      jump\t// out\n        /* \"#utility.yul\":6259:6777   */\n    tag_376:\n        /* \"#utility.yul\":6361:6363   */\n      0x1f\n        /* \"#utility.yul\":6356:6359   */\n      dup3\n        /* \"#utility.yul\":6353:6364   */\n      gt\n        /* \"#utility.yul\":6350:6771   */\n      iszero\n      tag_214\n      jumpi\n        /* \"#utility.yul\":6397:6402   */\n      dup1\n        /* \"#utility.yul\":6394:6395   */\n      0x00\n        /* \"#utility.yul\":6387:6403   */\n      mstore\n        /* \"#utility.yul\":6441:6445   */\n      0x20\n        /* \"#utility.yul\":6438:6439   */\n      0x00\n        /* \"#utility.yul\":6428:6446   */\n      keccak256\n        /* \"#utility.yul\":6511:6513   */\n      0x1f\n        /* \"#utility.yul\":6499:6509   */\n      dup5\n        /* \"#utility.yul\":6495:6514   */\n      add\n        /* \"#utility.yul\":6492:6493   */\n      0x05\n        /* \"#utility.yul\":6488:6515   */\n      shr\n        /* \"#utility.yul\":6482:6486   */\n      dup2\n        /* \"#utility.yul\":6478:6516   */\n      add\n        /* \"#utility.yul\":6547:6551   */\n      0x20\n        /* \"#utility.yul\":6535:6545   */\n      dup6\n        /* \"#utility.yul\":6532:6552   */\n      lt\n        /* \"#utility.yul\":6529:6576   */\n      iszero\n      tag_447\n      jumpi\n      pop\n        /* \"#utility.yul\":6570:6574   */\n      dup1\n        /* \"#utility.yul\":6529:6576   */\n    tag_447:\n        /* \"#utility.yul\":6625:6627   */\n      0x1f\n        /* \"#utility.yul\":6620:6623   */\n      dup5\n        /* \"#utility.yul\":6616:6628   */\n      add\n        /* \"#utility.yul\":6613:6614   */\n      0x05\n        /* \"#utility.yul\":6609:6629   */\n      shr\n        /* \"#utility.yul\":6603:6607   */\n      dup3\n        /* \"#utility.yul\":6599:6630   */\n      add\n        /* \"#utility.yul\":6589:6630   */\n      swap2\n      pop\n        /* \"#utility.yul\":6680:6761   */\n    tag_448:\n        /* \"#utility.yul\":6698:6700   */\n      dup2\n        /* \"#utility.yul\":6691:6696   */\n      dup2\n        /* \"#utility.yul\":6688:6701   */\n      lt\n        /* \"#utility.yul\":6680:6761   */\n      iszero\n      tag_248\n      jumpi\n        /* \"#utility.yul\":6757:6758   */\n      0x00\n        /* \"#utility.yul\":6743:6759   */\n      dup2\n      sstore\n        /* \"#utility.yul\":6724:6725   */\n      0x01\n        /* \"#utility.yul\":6713:6726   */\n      add\n        /* \"#utility.yul\":6680:6761   */\n      jump(tag_448)\n        /* \"#utility.yul\":6953:8298   */\n    tag_164:\n        /* \"#utility.yul\":7079:7082   */\n      dup2\n        /* \"#utility.yul\":7073:7083   */\n      mload\n        /* \"#utility.yul\":7106:7124   */\n      0xffffffffffffffff\n        /* \"#utility.yul\":7098:7104   */\n      dup2\n        /* \"#utility.yul\":7095:7125   */\n      gt\n        /* \"#utility.yul\":7092:7148   */\n      iszero\n      tag_454\n      jumpi\n        /* \"#utility.yul\":7128:7146   */\n      tag_454\n      tag_330\n      jump\t// in\n    tag_454:\n        /* \"#utility.yul\":7157:7254   */\n      tag_455\n        /* \"#utility.yul\":7247:7253   */\n      dup2\n        /* \"#utility.yul\":7207:7245   */\n      tag_456\n        /* \"#utility.yul\":7239:7243   */\n      dup5\n        /* \"#utility.yul\":7233:7244   */\n      sload\n        /* \"#utility.yul\":7207:7245   */\n      tag_146\n      jump\t// in\n    tag_456:\n        /* \"#utility.yul\":7201:7205   */\n      dup5\n        /* \"#utility.yul\":7157:7254   */\n      tag_376\n      jump\t// in\n    tag_455:\n        /* \"#utility.yul\":7309:7313   */\n      0x20\n      dup1\n        /* \"#utility.yul\":7366:7368   */\n      0x1f\n        /* \"#utility.yul\":7355:7369   */\n      dup4\n      gt\n        /* \"#utility.yul\":7383:7384   */\n      0x01\n        /* \"#utility.yul\":7378:8041   */\n      dup2\n      eq\n      tag_458\n      jumpi\n        /* \"#utility.yul\":8085:8086   */\n      0x00\n        /* \"#utility.yul\":8102:8108   */\n      dup5\n        /* \"#utility.yul\":8099:8188   */\n      iszero\n      tag_459\n      jumpi\n      pop\n        /* \"#utility.yul\":8154:8173   */\n      dup6\n      dup4\n      add\n        /* \"#utility.yul\":8148:8174   */\n      mload\n        /* \"#utility.yul\":8099:8188   */\n    tag_459:\n      not(0x00)\n        /* \"#utility.yul\":6910:6911   */\n      0x03\n        /* \"#utility.yul\":6906:6917   */\n      dup7\n      swap1\n      shl\n        /* \"#utility.yul\":6902:6926   */\n      shr\n        /* \"#utility.yul\":6898:6927   */\n      not\n        /* \"#utility.yul\":6888:6928   */\n      and\n        /* \"#utility.yul\":6934:6935   */\n      0x01\n        /* \"#utility.yul\":6930:6941   */\n      dup6\n      swap1\n      shl\n        /* \"#utility.yul\":6885:6942   */\n      or\n        /* \"#utility.yul\":8201:8282   */\n      dup6\n      sstore\n        /* \"#utility.yul\":7348:8292   */\n      jump(tag_457)\n        /* \"#utility.yul\":7378:8041   */\n    tag_458:\n        /* \"#utility.yul\":6206:6207   */\n      0x00\n        /* \"#utility.yul\":6199:6213   */\n      dup6\n      dup2\n      mstore\n        /* \"#utility.yul\":6243:6247   */\n      0x20\n        /* \"#utility.yul\":6230:6248   */\n      dup2\n      keccak256\n      not(0x1f)\n        /* \"#utility.yul\":7414:7434   */\n      dup7\n      and\n      swap2\n        /* \"#utility.yul\":7532:7768   */\n    tag_462:\n        /* \"#utility.yul\":7546:7553   */\n      dup3\n        /* \"#utility.yul\":7543:7544   */\n      dup2\n        /* \"#utility.yul\":7540:7554   */\n      lt\n        /* \"#utility.yul\":7532:7768   */\n      iszero\n      tag_464\n      jumpi\n        /* \"#utility.yul\":7635:7654   */\n      dup9\n      dup7\n      add\n        /* \"#utility.yul\":7629:7655   */\n      mload\n        /* \"#utility.yul\":7614:7656   */\n      dup3\n      sstore\n        /* \"#utility.yul\":7727:7754   */\n      swap5\n      dup5\n      add\n      swap5\n        /* \"#utility.yul\":7695:7696   */\n      0x01\n        /* \"#utility.yul\":7683:7697   */\n      swap1\n      swap2\n      add\n      swap1\n        /* \"#utility.yul\":7562:7581   */\n      dup5\n      add\n        /* \"#utility.yul\":7532:7768   */\n      jump(tag_462)\n    tag_464:\n        /* \"#utility.yul\":7536:7539   */\n      pop\n        /* \"#utility.yul\":7796:7802   */\n      dup6\n        /* \"#utility.yul\":7787:7794   */\n      dup3\n        /* \"#utility.yul\":7784:7803   */\n      lt\n        /* \"#utility.yul\":7781:7982   */\n      iszero\n      tag_465\n      jumpi\n        /* \"#utility.yul\":7857:7876   */\n      dup8\n      dup6\n      add\n        /* \"#utility.yul\":7851:7877   */\n      mload\n      not(0x00)\n        /* \"#utility.yul\":7940:7941   */\n      0x03\n        /* \"#utility.yul\":7936:7950   */\n      dup9\n      swap1\n      shl\n        /* \"#utility.yul\":7952:7955   */\n      0xf8\n        /* \"#utility.yul\":7932:7956   */\n      and\n        /* \"#utility.yul\":7928:7965   */\n      shr\n        /* \"#utility.yul\":7924:7966   */\n      not\n        /* \"#utility.yul\":7909:7967   */\n      and\n        /* \"#utility.yul\":7894:7968   */\n      dup2\n      sstore\n        /* \"#utility.yul\":7781:7982   */\n    tag_465:\n      pop\n      pop\n        /* \"#utility.yul\":8028:8029   */\n      0x01\n        /* \"#utility.yul\":8019:8025   */\n      dup5\n        /* \"#utility.yul\":8016:8017   */\n      0x01\n        /* \"#utility.yul\":8012:8026   */\n      shl\n        /* \"#utility.yul\":8008:8030   */\n      add\n        /* \"#utility.yul\":8002:8006   */\n      dup6\n        /* \"#utility.yul\":7995:8031   */\n      sstore\n        /* \"#utility.yul\":7348:8292   */\n    tag_457:\n      pop\n      pop\n      pop\n      pop\n        /* \"#utility.yul\":6953:8298   */\n      pop\n      pop\n      jump\t// out\n        /* \"#utility.yul\":8303:8430   */\n    tag_378:\n        /* \"#utility.yul\":8364:8374   */\n      0x4e487b71\n        /* \"#utility.yul\":8359:8362   */\n      0xe0\n        /* \"#utility.yul\":8355:8375   */\n      shl\n        /* \"#utility.yul\":8352:8353   */\n      0x00\n        /* \"#utility.yul\":8345:8376   */\n      mstore\n        /* \"#utility.yul\":8395:8399   */\n      0x11\n        /* \"#utility.yul\":8392:8393   */\n      0x04\n        /* \"#utility.yul\":8385:8400   */\n      mstore\n        /* \"#utility.yul\":8419:8423   */\n      0x24\n        /* \"#utility.yul\":8416:8417   */\n      0x00\n        /* \"#utility.yul\":8409:8424   */\n      revert\n        /* \"#utility.yul\":8435:8563   */\n    tag_176:\n        /* \"#utility.yul\":8502:8511   */\n      dup2\n      dup2\n      sub\n        /* \"#utility.yul\":8523:8534   */\n      dup2\n      dup2\n      gt\n        /* \"#utility.yul\":8520:8557   */\n      iszero\n      tag_151\n      jumpi\n        /* \"#utility.yul\":8537:8555   */\n      tag_151\n      tag_378\n      jump\t// in\n        /* \"#utility.yul\":8568:8695   */\n    tag_181:\n        /* \"#utility.yul\":8629:8639   */\n      0x4e487b71\n        /* \"#utility.yul\":8624:8627   */\n      0xe0\n        /* \"#utility.yul\":8620:8640   */\n      shl\n        /* \"#utility.yul\":8617:8618   */\n      0x00\n        /* \"#utility.yul\":8610:8641   */\n      mstore\n        /* \"#utility.yul\":8660:8664   */\n      0x32\n        /* \"#utility.yul\":8657:8658   */\n      0x04\n        /* \"#utility.yul\":8650:8665   */\n      mstore\n        /* \"#utility.yul\":8684:8688   */\n      0x24\n        /* \"#utility.yul\":8681:8682   */\n      0x00\n        /* \"#utility.yul\":8674:8689   */\n      revert\n        /* \"#utility.yul\":8700:8827   */\n    tag_189:\n        /* \"#utility.yul\":8761:8771   */\n      0x4e487b71\n        /* \"#utility.yul\":8756:8759   */\n      0xe0\n        /* \"#utility.yul\":8752:8772   */\n      shl\n        /* \"#utility.yul\":8749:8750   */\n      0x00\n        /* \"#utility.yul\":8742:8773   */\n      mstore\n        /* \"#utility.yul\":8792:8796   */\n      0x31\n        /* \"#utility.yul\":8789:8790   */\n      0x04\n        /* \"#utility.yul\":8782:8797   */\n      mstore\n        /* \"#utility.yul\":8816:8820   */\n      0x24\n        /* \"#utility.yul\":8813:8814   */\n      0x00\n        /* \"#utility.yul\":8806:8821   */\n      revert\n        /* \"#utility.yul\":9392:9682   */\n    tag_213:\n        /* \"#utility.yul\":9461:9467   */\n      0x00\n        /* \"#utility.yul\":9514:9516   */\n      0x20\n        /* \"#utility.yul\":9502:9511   */\n      dup3\n        /* \"#utility.yul\":9493:9500   */\n      dup5\n        /* \"#utility.yul\":9489:9512   */\n      sub\n        /* \"#utility.yul\":9485:9517   */\n      slt\n        /* \"#utility.yul\":9482:9534   */\n      iszero\n      tag_474\n      jumpi\n        /* \"#utility.yul\":9530:9531   */\n      0x00\n        /* \"#utility.yul\":9527:9528   */\n      dup1\n        /* \"#utility.yul\":9520:9532   */\n      revert\n        /* \"#utility.yul\":9482:9534   */\n    tag_474:\n        /* \"#utility.yul\":9556:9572   */\n      dup2\n      mload\n      not(sub(shl(0xe0, 0x01), 0x01))\n        /* \"#utility.yul\":9601:9633   */\n      dup2\n      and\n        /* \"#utility.yul\":9591:9634   */\n      dup2\n      eq\n        /* \"#utility.yul\":9581:9652   */\n      tag_165\n      jumpi\n        /* \"#utility.yul\":9648:9649   */\n      0x00\n        /* \"#utility.yul\":9645:9646   */\n      dup1\n        /* \"#utility.yul\":9638:9650   */\n      revert\n        /* \"#utility.yul\":9687:10349   */\n    tag_244:\n      sub(shl(0xa0, 0x01), 0x01)\n        /* \"#utility.yul\":9966:9981   */\n      dup7\n      dup2\n      and\n        /* \"#utility.yul\":9948:9982   */\n      dup3\n      mstore\n        /* \"#utility.yul\":10018:10033   */\n      dup6\n      and\n        /* \"#utility.yul\":10013:10015   */\n      0x20\n        /* \"#utility.yul\":9998:10016   */\n      dup3\n      add\n        /* \"#utility.yul\":9991:10034   */\n      mstore\n        /* \"#utility.yul\":10065:10067   */\n      0x40\n        /* \"#utility.yul\":10050:10068   */\n      dup2\n      add\n        /* \"#utility.yul\":10043:10077   */\n      dup5\n      swap1\n      mstore\n        /* \"#utility.yul\":10113:10116   */\n      0x80\n        /* \"#utility.yul\":10108:10110   */\n      0x60\n        /* \"#utility.yul\":10093:10111   */\n      dup3\n      add\n        /* \"#utility.yul\":10086:10117   */\n      dup2\n      swap1\n      mstore\n        /* \"#utility.yul\":10133:10152   */\n      dup2\n      add\n        /* \"#utility.yul\":10126:10161   */\n      dup3\n      swap1\n      mstore\n        /* \"#utility.yul\":9891:9895   */\n      0x00\n        /* \"#utility.yul\":10154:10160   */\n      dup3\n        /* \"#utility.yul\":10204:10210   */\n      dup5\n        /* \"#utility.yul\":9928:9931   */\n      0xa0\n        /* \"#utility.yul\":10183:10202   */\n      dup5\n      add\n        /* \"#utility.yul\":10170:10219   */\n      calldatacopy\n        /* \"#utility.yul\":10269:10270   */\n      0x00\n        /* \"#utility.yul\":10263:10266   */\n      0xa0\n        /* \"#utility.yul\":10254:10260   */\n      dup5\n        /* \"#utility.yul\":10243:10252   */\n      dup5\n        /* \"#utility.yul\":10239:10261   */\n      add\n        /* \"#utility.yul\":10235:10267   */\n      add\n        /* \"#utility.yul\":10228:10271   */\n      mstore\n        /* \"#utility.yul\":10339:10342   */\n      0xa0\n        /* \"#utility.yul\":10332:10334   */\n      0x1f\n        /* \"#utility.yul\":10328:10335   */\n      not\n        /* \"#utility.yul\":10323:10325   */\n      0x1f\n        /* \"#utility.yul\":10315:10321   */\n      dup6\n        /* \"#utility.yul\":10311:10326   */\n      add\n        /* \"#utility.yul\":10307:10336   */\n      and\n        /* \"#utility.yul\":10296:10305   */\n      dup4\n        /* \"#utility.yul\":10292:10337   */\n      add\n        /* \"#utility.yul\":10288:10343   */\n      add\n        /* \"#utility.yul\":10280:10343   */\n      swap1\n      pop\n        /* \"#utility.yul\":9687:10349   */\n      swap7\n      swap6\n      pop\n      pop\n      pop\n      pop\n      pop\n      pop\n      jump\t// out\n        /* \"#utility.yul\":10354:11077   */\n    tag_379:\n        /* \"#utility.yul\":10404:10407   */\n      0x00\n        /* \"#utility.yul\":10445:10450   */\n      dup2\n        /* \"#utility.yul\":10439:10451   */\n      sload\n        /* \"#utility.yul\":10474:10510   */\n      tag_478\n        /* \"#utility.yul\":10500:10509   */\n      dup2\n        /* \"#utility.yul\":10474:10510   */\n      tag_146\n      jump\t// in\n    tag_478:\n        /* \"#utility.yul\":10529:10530   */\n      0x01\n        /* \"#utility.yul\":10546:10563   */\n      dup3\n      dup2\n      and\n        /* \"#utility.yul\":10572:10705   */\n      dup1\n      iszero\n      tag_480\n      jumpi\n        /* \"#utility.yul\":10719:10720   */\n      0x01\n        /* \"#utility.yul\":10714:11071   */\n      dup2\n      eq\n      tag_481\n      jumpi\n        /* \"#utility.yul\":10539:11071   */\n      jump(tag_479)\n        /* \"#utility.yul\":10572:10705   */\n    tag_480:\n      not(0xff)\n        /* \"#utility.yul\":10605:10629   */\n      dup5\n      and\n        /* \"#utility.yul\":10593:10630   */\n      dup8\n      mstore\n        /* \"#utility.yul\":10678:10692   */\n      dup3\n      iszero\n        /* \"#utility.yul\":10671:10693   */\n      iszero\n        /* \"#utility.yul\":10659:10694   */\n      dup4\n      mul\n        /* \"#utility.yul\":10650:10695   */\n      dup8\n      add\n      swap5\n      pop\n        /* \"#utility.yul\":10572:10705   */\n      jump(tag_479)\n        /* \"#utility.yul\":10714:11071   */\n    tag_481:\n        /* \"#utility.yul\":10745:10750   */\n      dup6\n        /* \"#utility.yul\":10742:10743   */\n      0x00\n        /* \"#utility.yul\":10735:10751   */\n      mstore\n        /* \"#utility.yul\":10774:10778   */\n      0x20\n        /* \"#utility.yul\":10819:10823   */\n      dup1\n        /* \"#utility.yul\":10816:10817   */\n      0x00\n        /* \"#utility.yul\":10806:10824   */\n      keccak256\n        /* \"#utility.yul\":10846:10847   */\n      0x00\n        /* \"#utility.yul\":10860:11025   */\n    tag_482:\n        /* \"#utility.yul\":10874:10880   */\n      dup6\n        /* \"#utility.yul\":10871:10872   */\n      dup2\n        /* \"#utility.yul\":10868:10881   */\n      lt\n        /* \"#utility.yul\":10860:11025   */\n      iszero\n      tag_484\n      jumpi\n        /* \"#utility.yul\":10952:10966   */\n      dup2\n      sload\n        /* \"#utility.yul\":10939:10950   */\n      dup11\n      dup3\n      add\n        /* \"#utility.yul\":10932:10967   */\n      mstore\n        /* \"#utility.yul\":10995:11011   */\n      swap1\n      dup5\n      add\n      swap1\n        /* \"#utility.yul\":10889:10899   */\n      dup3\n      add\n        /* \"#utility.yul\":10860:11025   */\n      jump(tag_482)\n    tag_484:\n        /* \"#utility.yul\":10864:10867   */\n      pop\n      pop\n      pop\n        /* \"#utility.yul\":11054:11060   */\n      dup3\n        /* \"#utility.yul\":11049:11052   */\n      dup8\n        /* \"#utility.yul\":11045:11061   */\n      add\n        /* \"#utility.yul\":11038:11061   */\n      swap5\n      pop\n        /* \"#utility.yul\":10539:11071   */\n    tag_479:\n      pop\n      pop\n      pop\n      pop\n        /* \"#utility.yul\":10354:11077   */\n      swap3\n      swap2\n      pop\n      pop\n      jump\t// out\n        /* \"#utility.yul\":11082:11471   */\n    tag_255:\n        /* \"#utility.yul\":11258:11261   */\n      0x00\n        /* \"#utility.yul\":11286:11324   */\n      tag_486\n        /* \"#utility.yul\":11320:11323   */\n      dup3\n        /* \"#utility.yul\":11312:11318   */\n      dup6\n        /* \"#utility.yul\":11286:11324   */\n      tag_379\n      jump\t// in\n    tag_486:\n        /* \"#utility.yul\":11353:11359   */\n      dup4\n        /* \"#utility.yul\":11347:11360   */\n      mload\n        /* \"#utility.yul\":11369:11434   */\n      tag_487\n        /* \"#utility.yul\":11427:11433   */\n      dup2\n        /* \"#utility.yul\":11423:11425   */\n      dup4\n        /* \"#utility.yul\":11416:11420   */\n      0x20\n        /* \"#utility.yul\":11408:11414   */\n      dup9\n        /* \"#utility.yul\":11404:11421   */\n      add\n        /* \"#utility.yul\":11369:11434   */\n      tag_372\n      jump\t// in\n    tag_487:\n        /* \"#utility.yul\":11450:11465   */\n      add\n      swap5\n        /* \"#utility.yul\":11082:11471   */\n      swap4\n      pop\n      pop\n      pop\n      pop\n      jump\t// out\n        /* \"#utility.yul\":11663:12017   */\n    tag_261:\n        /* \"#utility.yul\":11881:11884   */\n      0x00\n        /* \"#utility.yul\":11912:11950   */\n      tag_490\n        /* \"#utility.yul\":11946:11949   */\n      dup3\n        /* \"#utility.yul\":11938:11944   */\n      dup5\n        /* \"#utility.yul\":11912:11950   */\n      tag_379\n      jump\t// in\n    tag_490:\n      shl(0xd1, 0x18973539b7b7)\n        /* \"#utility.yul\":11959:11982   */\n      dup2\n      mstore\n        /* \"#utility.yul\":12009:12010   */\n      0x06\n        /* \"#utility.yul\":11998:12011   */\n      add\n      swap4\n        /* \"#utility.yul\":11663:12017   */\n      swap3\n      pop\n      pop\n      pop\n      jump\t// out\n        /* \"#utility.yul\":12022:12376   */\n    tag_265:\n        /* \"#utility.yul\":12240:12243   */\n      0x00\n        /* \"#utility.yul\":12271:12309   */\n      tag_492\n        /* \"#utility.yul\":12305:12308   */\n      dup3\n        /* \"#utility.yul\":12297:12303   */\n      dup5\n        /* \"#utility.yul\":12271:12309   */\n      tag_379\n      jump\t// in\n    tag_492:\n      shl(0xd1, 0x19173539b7b7)\n        /* \"#utility.yul\":12318:12341   */\n      dup2\n      mstore\n        /* \"#utility.yul\":12368:12369   */\n      0x06\n        /* \"#utility.yul\":12357:12370   */\n      add\n      swap4\n        /* \"#utility.yul\":12022:12376   */\n      swap3\n      pop\n      pop\n      pop\n      jump\t// out\n        /* \"#utility.yul\":12381:12735   */\n    tag_269:\n        /* \"#utility.yul\":12599:12602   */\n      0x00\n        /* \"#utility.yul\":12630:12668   */\n      tag_494\n        /* \"#utility.yul\":12664:12667   */\n      dup3\n        /* \"#utility.yul\":12656:12662   */\n      dup5\n        /* \"#utility.yul\":12630:12668   */\n      tag_379\n      jump\t// in\n    tag_494:\n      shl(0xd1, 0x19973539b7b7)\n        /* \"#utility.yul\":12677:12700   */\n      dup2\n      mstore\n        /* \"#utility.yul\":12727:12728   */\n      0x06\n        /* \"#utility.yul\":12716:12729   */\n      add\n      swap4\n        /* \"#utility.yul\":12381:12735   */\n      swap3\n      pop\n      pop\n      pop\n      jump\t// out\n        /* \"#utility.yul\":12740:13094   */\n    tag_273:\n        /* \"#utility.yul\":12958:12961   */\n      0x00\n        /* \"#utility.yul\":12989:13027   */\n      tag_496\n        /* \"#utility.yul\":13023:13026   */\n      dup3\n        /* \"#utility.yul\":13015:13021   */\n      dup5\n        /* \"#utility.yul\":12989:13027   */\n      tag_379\n      jump\t// in\n    tag_496:\n      shl(0xd1, 0x1a173539b7b7)\n        /* \"#utility.yul\":13036:13059   */\n      dup2\n      mstore\n        /* \"#utility.yul\":13086:13087   */\n      0x06\n        /* \"#utility.yul\":13075:13088   */\n      add\n      swap4\n        /* \"#utility.yul\":12740:13094   */\n      swap3\n      pop\n      pop\n      pop\n      jump\t// out\n        /* \"#utility.yul\":13099:13453   */\n    tag_277:\n        /* \"#utility.yul\":13317:13320   */\n      0x00\n        /* \"#utility.yul\":13348:13386   */\n      tag_498\n        /* \"#utility.yul\":13382:13385   */\n      dup3\n        /* \"#utility.yul\":13374:13380   */\n      dup5\n        /* \"#utility.yul\":13348:13386   */\n      tag_379\n      jump\t// in\n    tag_498:\n      shl(0xd1, 0x1a973539b7b7)\n        /* \"#utility.yul\":13395:13418   */\n      dup2\n      mstore\n        /* \"#utility.yul\":13445:13446   */\n      0x06\n        /* \"#utility.yul\":13434:13447   */\n      add\n      swap4\n        /* \"#utility.yul\":13099:13453   */\n      swap3\n      pop\n      pop\n      pop\n      jump\t// out\n        /* \"#utility.yul\":13458:13874   */\n    tag_380:\n        /* \"#utility.yul\":13547:13548   */\n      0x01\n        /* \"#utility.yul\":13584:13589   */\n      dup2\n        /* \"#utility.yul\":13547:13548   */\n      dup2\n        /* \"#utility.yul\":13598:13868   */\n    tag_500:\n        /* \"#utility.yul\":13619:13626   */\n      dup1\n        /* \"#utility.yul\":13609:13617   */\n      dup6\n        /* \"#utility.yul\":13606:13627   */\n      gt\n        /* \"#utility.yul\":13598:13868   */\n      iszero\n      tag_502\n      jumpi\n        /* \"#utility.yul\":13678:13682   */\n      dup2\n        /* \"#utility.yul\":13674:13675   */\n      0x00\n        /* \"#utility.yul\":13670:13676   */\n      not\n        /* \"#utility.yul\":13666:13683   */\n      div\n        /* \"#utility.yul\":13660:13664   */\n      dup3\n        /* \"#utility.yul\":13657:13684   */\n      gt\n        /* \"#utility.yul\":13654:13707   */\n      iszero\n      tag_504\n      jumpi\n        /* \"#utility.yul\":13687:13705   */\n      tag_504\n      tag_378\n      jump\t// in\n    tag_504:\n        /* \"#utility.yul\":13737:13744   */\n      dup1\n        /* \"#utility.yul\":13727:13735   */\n      dup6\n        /* \"#utility.yul\":13723:13745   */\n      and\n        /* \"#utility.yul\":13720:13775   */\n      iszero\n      tag_505\n      jumpi\n        /* \"#utility.yul\":13757:13773   */\n      swap2\n      dup2\n      mul\n      swap2\n        /* \"#utility.yul\":13720:13775   */\n    tag_505:\n        /* \"#utility.yul\":13836:13858   */\n      swap4\n      dup5\n      shr\n      swap4\n        /* \"#utility.yul\":13796:13811   */\n      swap1\n      dup1\n      mul\n      swap1\n        /* \"#utility.yul\":13598:13868   */\n      jump(tag_500)\n    tag_502:\n        /* \"#utility.yul\":13602:13605   */\n      pop\n        /* \"#utility.yul\":13458:13874   */\n      swap3\n      pop\n      swap3\n      swap1\n      pop\n      jump\t// out\n        /* \"#utility.yul\":13879:14685   */\n    tag_381:\n        /* \"#utility.yul\":13928:13933   */\n      0x00\n        /* \"#utility.yul\":13958:13966   */\n      dup3\n        /* \"#utility.yul\":13948:14028   */\n      tag_507\n      jumpi\n      pop\n        /* \"#utility.yul\":13999:14000   */\n      0x01\n        /* \"#utility.yul\":14013:14018   */\n      jump(tag_151)\n        /* \"#utility.yul\":13948:14028   */\n    tag_507:\n        /* \"#utility.yul\":14047:14051   */\n      dup2\n        /* \"#utility.yul\":14037:14113   */\n      tag_508\n      jumpi\n      pop\n        /* \"#utility.yul\":14084:14085   */\n      0x00\n        /* \"#utility.yul\":14098:14103   */\n      jump(tag_151)\n        /* \"#utility.yul\":14037:14113   */\n    tag_508:\n        /* \"#utility.yul\":14129:14133   */\n      dup2\n        /* \"#utility.yul\":14147:14148   */\n      0x01\n        /* \"#utility.yul\":14142:14201   */\n      dup2\n      eq\n      tag_510\n      jumpi\n        /* \"#utility.yul\":14215:14216   */\n      0x02\n        /* \"#utility.yul\":14210:14340   */\n      dup2\n      eq\n      tag_511\n      jumpi\n        /* \"#utility.yul\":14122:14340   */\n      jump(tag_509)\n        /* \"#utility.yul\":14142:14201   */\n    tag_510:\n        /* \"#utility.yul\":14172:14173   */\n      0x01\n        /* \"#utility.yul\":14163:14173   */\n      swap2\n      pop\n        /* \"#utility.yul\":14186:14191   */\n      pop\n      jump(tag_151)\n        /* \"#utility.yul\":14210:14340   */\n    tag_511:\n        /* \"#utility.yul\":14247:14250   */\n      0xff\n        /* \"#utility.yul\":14237:14245   */\n      dup5\n        /* \"#utility.yul\":14234:14251   */\n      gt\n        /* \"#utility.yul\":14231:14274   */\n      iszero\n      tag_513\n      jumpi\n        /* \"#utility.yul\":14254:14272   */\n      tag_513\n      tag_378\n      jump\t// in\n    tag_513:\n      pop\n      pop\n        /* \"#utility.yul\":14310:14311   */\n      0x01\n        /* \"#utility.yul\":14296:14312   */\n      dup3\n      shl\n        /* \"#utility.yul\":14325:14330   */\n      jump(tag_151)\n        /* \"#utility.yul\":14122:14340   */\n    tag_509:\n      pop\n        /* \"#utility.yul\":14424:14426   */\n      0x20\n        /* \"#utility.yul\":14414:14422   */\n      dup4\n        /* \"#utility.yul\":14411:14427   */\n      lt\n        /* \"#utility.yul\":14405:14408   */\n      0x0133\n        /* \"#utility.yul\":14399:14403   */\n      dup4\n        /* \"#utility.yul\":14396:14409   */\n      lt\n        /* \"#utility.yul\":14392:14428   */\n      and\n        /* \"#utility.yul\":14386:14388   */\n      0x4e\n        /* \"#utility.yul\":14376:14384   */\n      dup5\n        /* \"#utility.yul\":14373:14389   */\n      lt\n        /* \"#utility.yul\":14368:14370   */\n      0x0b\n        /* \"#utility.yul\":14362:14366   */\n      dup5\n        /* \"#utility.yul\":14359:14371   */\n      lt\n        /* \"#utility.yul\":14355:14390   */\n      and\n        /* \"#utility.yul\":14352:14429   */\n      or\n        /* \"#utility.yul\":14349:14508   */\n      iszero\n      tag_514\n      jumpi\n      pop\n        /* \"#utility.yul\":14461:14480   */\n      dup2\n      dup2\n      exp\n        /* \"#utility.yul\":14493:14498   */\n      jump(tag_151)\n        /* \"#utility.yul\":14349:14508   */\n    tag_514:\n        /* \"#utility.yul\":14540:14574   */\n      tag_515\n        /* \"#utility.yul\":14565:14573   */\n      dup4\n        /* \"#utility.yul\":14559:14563   */\n      dup4\n        /* \"#utility.yul\":14540:14574   */\n      tag_380\n      jump\t// in\n    tag_515:\n        /* \"#utility.yul\":14610:14616   */\n      dup1\n        /* \"#utility.yul\":14606:14607   */\n      0x00\n        /* \"#utility.yul\":14602:14608   */\n      not\n        /* \"#utility.yul\":14598:14617   */\n      div\n        /* \"#utility.yul\":14589:14596   */\n      dup3\n        /* \"#utility.yul\":14586:14618   */\n      gt\n        /* \"#utility.yul\":14583:14641   */\n      iszero\n      tag_517\n      jumpi\n        /* \"#utility.yul\":14621:14639   */\n      tag_517\n      tag_378\n      jump\t// in\n    tag_517:\n        /* \"#utility.yul\":14659:14679   */\n      mul\n      swap4\n        /* \"#utility.yul\":13879:14685   */\n      swap3\n      pop\n      pop\n      pop\n      jump\t// out\n        /* \"#utility.yul\":14690:14830   */\n    tag_298:\n        /* \"#utility.yul\":14748:14753   */\n      0x00\n        /* \"#utility.yul\":14777:14824   */\n      tag_165\n        /* \"#utility.yul\":14818:14822   */\n      0xff\n        /* \"#utility.yul\":14808:14816   */\n      dup5\n        /* \"#utility.yul\":14804:14823   */\n      and\n        /* \"#utility.yul\":14798:14802   */\n      dup4\n        /* \"#utility.yul\":14777:14824   */\n      tag_381\n      jump\t// in\n        /* \"#utility.yul\":14967:15184   */\n    tag_304:\n        /* \"#utility.yul\":15007:15008   */\n      0x00\n        /* \"#utility.yul\":15033:15034   */\n      dup3\n        /* \"#utility.yul\":15023:15155   */\n      tag_522\n      jumpi\n        /* \"#utility.yul\":15077:15087   */\n      0x4e487b71\n        /* \"#utility.yul\":15072:15075   */\n      0xe0\n        /* \"#utility.yul\":15068:15088   */\n      shl\n        /* \"#utility.yul\":15065:15066   */\n      0x00\n        /* \"#utility.yul\":15058:15089   */\n      mstore\n        /* \"#utility.yul\":15112:15116   */\n      0x12\n        /* \"#utility.yul\":15109:15110   */\n      0x04\n        /* \"#utility.yul\":15102:15117   */\n      mstore\n        /* \"#utility.yul\":15140:15144   */\n      0x24\n        /* \"#utility.yul\":15137:15138   */\n      0x00\n        /* \"#utility.yul\":15130:15145   */\n      revert\n        /* \"#utility.yul\":15023:15155   */\n    tag_522:\n      pop\n        /* \"#utility.yul\":15169:15178   */\n      div\n      swap1\n        /* \"#utility.yul\":14967:15184   */\n      jump\t// out\n\n    auxdata: 0xa264697066735822122004590b12c2c1197e74bd5954694bfe46a8ec288c2a1d66e9f9afada6930b3ac964736f6c63430008160033\n}\n",
				"bytecode": {
					"linkReferences": {},
					"object": "60a060405234801562000010575f80fd5b506040516200221a3803806200221a833981016040819052620000339162000178565b60405180604001604052806004815260200163159bda5960e21b815250604051806040016040528060048152602001631593d25160e21b815250601261271084805f6001600160a01b0316816001600160a01b031603620000a7576040516349e27cff60e01b815260040160405180910390fd5b5f80546001600160a01b0319166001600160a01b03831690811782556040519091907f8be0079c531659141344cd1fd0a4f28419497f9722a3daafe3b4186f6b6457e0908290a3506001620000fd868262000245565b5060026200010c858262000245565b5060ff831660808190526200012390600a62000420565b6200012f908362000430565b6003555050506001600160a01b039092165f90815260056020908152604080832069021e19e0c9bab24000009055600c9091529020805460ff19166001179055506200044a9050565b5f6020828403121562000189575f80fd5b81516001600160a01b0381168114620001a0575f80fd5b9392505050565b634e487b7160e01b5f52604160045260245ffd5b600181811c90821680620001d057607f821691505b602082108103620001ef57634e487b7160e01b5f52602260045260245ffd5b50919050565b601f8211156200024057805f5260205f20601f840160051c810160208510156200021c5750805b601f840160051c820191505b818110156200023d575f815560010162000228565b50505b505050565b81516001600160401b03811115620002615762000261620001a7565b6200027981620002728454620001bb565b84620001f5565b602080601f831160018114620002af575f8415620002975750858301515b5f19600386901b1c1916600185901b17855562000309565b5f85815260208120601f198616915b82811015620002df57888601518255948401946001909101908401620002be565b5085821015620002fd57878501515f19600388901b60f8161c191681555b505060018460011b0185555b505050505050565b634e487b7160e01b5f52601160045260245ffd5b600181815b808511156200036557815f190482111562000349576200034962000311565b808516156200035757918102915b93841c93908002906200032a565b509250929050565b5f826200037d575060016200041a565b816200038b57505f6200041a565b8160018114620003a45760028114620003af57620003cf565b60019150506200041a565b60ff841115620003c357620003c362000311565b50506001821b6200041a565b5060208310610133831016604e8410600b8410161715620003f4575081810a6200041a565b62000400838362000325565b805f190482111562000416576200041662000311565b0290505b92915050565b5f620001a060ff8416836200036d565b80820281158282048414176200041a576200041a62000311565b608051611db06200046a5f395f818161028c01526110890152611db05ff3fe608060405234801561000f575f80fd5b50600436106101bb575f3560e01c806370a08231116100f3578063c87b56dd11610093578063e0df5b6f1161006e578063e0df5b6f14610401578063e985e9c514610414578063f28ca1dd14610441578063f2fde38b14610449575f80fd5b8063c87b56dd146103bc578063d547cfb7146103cf578063dd62ed3e146103d7575f80fd5b80639b19251a116100ce5780639b19251a14610361578063a22cb46514610383578063a9059cbb14610396578063b88d4fde146103a9575f80fd5b806370a08231146103285780638da5cb5b1461034757806395d89b4114610359575f80fd5b8063313ce5671161015e578063504334c211610139578063504334c2146102dc57806353d6fd59146102ef5780636352211e14610302578063664dfa0114610315575f80fd5b8063313ce5671461028757806342842e0e146102c05780634f02c420146102d3575f80fd5b806318160ddd1161019957806318160ddd1461024057806318d217c31461025757806323b872dd1461026c5780632b9689581461027f575f80fd5b806306fdde03146101bf578063081812fc146101dd578063095ea7b31461021d575b5f80fd5b6101c761045c565b6040516101d49190611624565b60405180910390f35b6102056101eb366004611656565b60076020525f90815260409020546001600160a01b031681565b6040516001600160a01b0390911681526020016101d4565b61023061022b366004611683565b6104e8565b60405190151581526020016101d4565b61024960035481565b6040519081526020016101d4565b61026a610265366004611748565b6106b4565b005b61023061027a366004611782565b6106ed565b61026a610a8f565b6102ae7f000000000000000000000000000000000000000000000000000000000000000081565b60405160ff90911681526020016101d4565b61026a6102ce366004611782565b610af3565b61024960045481565b61026a6102ea3660046117bb565b610bf6565b61026a6102fd36600461181b565b610c29565b610205610310366004611656565b610c7c565b61026a610323366004611656565b610cb6565b610249610336366004611854565b60056020525f908152604090205481565b5f54610205906001600160a01b031681565b6101c7610ce7565b61023061036f366004611854565b600c6020525f908152604090205460ff1681565b61026a61039136600461181b565b610cf4565b6102306103a4366004611683565b610d5f565b61026a6103b736600461186d565b610d6b565b6101c76103ca366004611656565b610e5f565b6101c7610f9a565b6102496103e5366004611900565b600660209081525f928352604080842090915290825290205481565b61026a61040f366004611748565b610fa7565b610230610422366004611900565b600860209081525f928352604080842090915290825290205460ff1681565b6101c7610fdc565b61026a610457366004611854565b610fe9565b6001805461046990611931565b80601f016020809104026020016040519081016040528092919081815260200182805461049590611931565b80156104e05780601f106104b7576101008083540402835291602001916104e0565b820191905f5260205f20905b8154815290600101906020018083116104c357829003601f168201915b505050505081565b5f60045482111580156104fa57505f82115b1561060f575f828152600960205260409020546001600160a01b031633811480159061054957506001600160a01b0381165f90815260086020908152604080832033845290915290205460ff16155b15610566576040516282b42960e81b815260040160405180910390fd5b5f8381526007602090815260409182902080546001600160a01b0319166001600160a01b038881169182179092559251868152908416917f8c5be1e5ebec7d5bd14f71427d1e84f3dd0314c0f7b2291e5b200ac8c7c3b925910160405180910390a382846001600160a01b0316826001600160a01b03167f797365dabb18fa726ccbccbe18c6f24c34e3b0653f2e99ea873bd7b84763dde660405160405180910390a4506106aa565b335f8181526006602090815260408083206001600160a01b03881680855290835292819020869055518581529192917f8c5be1e5ebec7d5bd14f71427d1e84f3dd0314c0f7b2291e5b200ac8c7c3b925910160405180910390a36040518281526001600160a01b0384169033907f1f01303a1ce9329d9963e1937c201e23c5543a9e3536e9edead087aec7dc6d839060200160405180910390a35b5060015b92915050565b5f546001600160a01b031633146106dd576040516282b42960e81b815260040160405180910390fd5b600d6106e982826119ad565b5050565b5f60045482111580156106ff57505f82115b15610a18575f828152600960205260409020546001600160a01b0385811691161461073d57604051636edaef2f60e11b815260040160405180910390fd5b6001600160a01b03831661076457604051634e46966960e11b815260040160405180910390fd5b336001600160a01b038516148015906107a057506001600160a01b0384165f90815260086020908152604080832033845290915290205460ff16155b80156107c257505f828152600760205260409020546001600160a01b03163314155b156107df576040516282b42960e81b815260040160405180910390fd5b6107e7611083565b6001600160a01b0385165f908152600560205260408120805490919061080e908490611a81565b9091555061081c9050611083565b6001600160a01b038085165f81815260056020908152604080832080549096019095558682526009815284822080546001600160a01b031990811690941790556007815284822080549093169092559187168252600a9052908120805461088590600190611a81565b8154811061089557610895611a94565b905f5260205f2001549050828114610906576001600160a01b0385165f908152600a60209081526040808320868452600b9092529091205481548392919081106108e1576108e1611a94565b5f918252602080832090910192909255848152600b9091526040808220548383529120555b6001600160a01b0385165f908152600a6020526040902080548061092c5761092c611aa8565b5f828152602080822083015f199081018390559092019092556001600160a01b038616808352600a825260408320805460018181018355828652938520018790559252905461097b9190611a81565b5f848152600b602052604080822092909255905184916001600160a01b0380881692908916917fddf252ad1be2c89b69c2b068fc378daa952ba7f163c4a11628f55a4df523b3ef91a4836001600160a01b0316856001600160a01b03167fe59fdd36d0d223c0c7d996db7ad796880f45e1936cb0bb7ac102e7082e031487610a01611083565b60405190815260200160405180910390a350610a84565b6001600160a01b0384165f9081526006602090815260408083203384529091529020545f198114610a7157610a4d8382611a81565b6001600160a01b0386165f9081526006602090815260408083203384529091529020555b610a7c8585856110b4565b915050610a88565b5060015b9392505050565b5f546001600160a01b03163314610ab8576040516282b42960e81b815260040160405180910390fd5b5f80546001600160a01b031916815560405133907f8be0079c531659141344cd1fd0a4f28419497f9722a3daafe3b4186f6b6457e0908390a3565b600454811180610b01575080155b15610b1f57604051631bf4348160e31b815260040160405180910390fd5b610b2a8383836106ed565b506001600160a01b0382163b15801590610bd35750604051630a85bd0160e11b8082523360048301526001600160a01b03858116602484015260448301849052608060648401525f608484015290919084169063150b7a029060a4016020604051808303815f875af1158015610ba2573d5f803e3d5ffd5b505050506040513d601f19601f82011682018060405250810190610bc69190611abc565b6001600160e01b03191614155b15610bf157604051633da6393160e01b815260040160405180910390fd5b505050565b5f546001600160a01b03163314610c1f576040516282b42960e81b815260040160405180910390fd5b6106e98282611259565b5f546001600160a01b03163314610c52576040516282b42960e81b815260040160405180910390fd5b6001600160a01b03919091165f908152600c60205260409020805460ff1916911515919091179055565b5f818152600960205260409020546001600160a01b031680610cb15760405163c5723b5160e01b815260040160405180910390fd5b919050565b5f610cc15f83610d5f565b90508015156001036106e9578160035f828254610cde9190611a81565b90915550505050565b6002805461046990611931565b335f8181526008602090815260408083206001600160a01b03871680855290835292819020805460ff191686151590811790915590519081529192917f17307eab39ab6107e8899845ad3d59bd9653f200f220920489ca2b5937696c31910160405180910390a35050565b5f610a883384846110b4565b600454831180610d79575082155b15610d9757604051631bf4348160e31b815260040160405180910390fd5b610da28585856106ed565b506001600160a01b0384163b15801590610e3a5750604051630a85bd0160e11b808252906001600160a01b0386169063150b7a0290610ded9033908a90899089908990600401611ae3565b6020604051808303815f875af1158015610e09573d5f803e3d5ffd5b505050506040513d601f19601f82011682018060405250810190610e2d9190611abc565b6001600160e01b03191614155b15610e5857604051633da6393160e01b815260040160405180910390fd5b5050505050565b60605f600e8054610e6f90611931565b90501115610ea957600e610e8283611272565b604051602001610e93929190611ba4565b6040516020818303038152906040529050919050565b60605f83604051602001610ebf91815260200190565b6040516020818303038152906040528051906020012060f81c905060648160ff1611610f0d57600d604051602001610ef79190611bc8565b6040516020818303038152906040529150610f93565b60a08160ff1611610f2a57600d604051602001610ef79190611be9565b60d28160ff1611610f4757600d604051602001610ef79190611c0a565b60f08160ff1611610f6457600d604051602001610ef79190611c2b565b60ff8160ff1611610f9357600d604051602001610f819190611c4c565b60405160208183030381529060405291505b5092915050565b600e805461046990611931565b5f546001600160a01b03163314610fd0576040516282b42960e81b815260040160405180910390fd5b600e6106e982826119ad565b600d805461046990611931565b5f546001600160a01b03163314611012576040516282b42960e81b815260040160405180910390fd5b6001600160a01b038116611039576040516349e27cff60e01b815260040160405180910390fd5b5f80546001600160a01b0319166001600160a01b0383169081178255604051909133917f8be0079c531659141344cd1fd0a4f28419497f9722a3daafe3b4186f6b6457e09190a350565b5f6110af7f0000000000000000000000000000000000000000000000000000000000000000600a611d4d565b905090565b5f806110be611083565b6001600160a01b038087165f818152600560205260408082208054948a16835290822054928252939450919290918691906110f98386611a81565b90915550506001600160a01b038087165f90815260056020908152604080832080548a019055928a168252600c9052205460ff16611188576001600160a01b0387165f90815260056020526040812054611154908590611d5b565b61115e8585611d5b565b6111689190611a81565b90505f5b818110156111855761117d89611302565b60010161116c565b50505b6001600160a01b0386165f908152600c602052604090205460ff166111ff575f6111b28483611d5b565b6001600160a01b0388165f908152600560205260409020546111d5908690611d5b565b6111df9190611a81565b90505f5b818110156111fc576111f488611423565b6001016111e3565b50505b856001600160a01b0316876001600160a01b03167fe59fdd36d0d223c0c7d996db7ad796880f45e1936cb0bb7ac102e7082e0314878760405161124491815260200190565b60405180910390a35060019695505050505050565b600161126583826119ad565b506002610bf182826119ad565b60605f61127e8361152b565b60010190505f8167ffffffffffffffff81111561129d5761129d6116ab565b6040519080825280601f01601f1916602001820160405280156112c7576020820181803683370190505b5090508181016020015b5f19016f181899199a1a9b1b9c1cb0b131b232b360811b600a86061a8153600a85049450846112d157509392505050565b6001600160a01b03811661132957604051636edaef2f60e11b815260040160405180910390fd5b6001600160a01b0381165f908152600a60205260408120805461134e90600190611a81565b8154811061135e5761135e611a94565b905f5260205f2001549050600a5f836001600160a01b03166001600160a01b031681526020019081526020015f2080548061139b5761139b611aa8565b5f828152602080822083015f19908101839055909201909255828252600b815260408083208390556009825280832080546001600160a01b031990811690915560079092528083208054909216909155518291906001600160a01b038516907fddf252ad1be2c89b69c2b068fc378daa952ba7f163c4a11628f55a4df523b3ef908390a45050565b6001600160a01b03811661144a57604051634e46966960e11b815260040160405180910390fd5b60048054600101908190555f818152600960205260409020546001600160a01b03161561148a5760405163119b4fd360e11b815260040160405180910390fd5b5f81815260096020908152604080832080546001600160a01b0319166001600160a01b038716908117909155808452600a835290832080546001818101835582865293852001859055925290546114e19190611a81565b5f828152600b602052604080822092909255905182916001600160a01b038516917fddf252ad1be2c89b69c2b068fc378daa952ba7f163c4a11628f55a4df523b3ef908290a45050565b5f8072184f03e93ff9f4daa797ed6e38ed64bf6a1f0160401b83106115695772184f03e93ff9f4daa797ed6e38ed64bf6a1f0160401b830492506040015b6d04ee2d6d415b85acef81000000008310611595576d04ee2d6d415b85acef8100000000830492506020015b662386f26fc1000083106115b357662386f26fc10000830492506010015b6305f5e10083106115cb576305f5e100830492506008015b61271083106115df57612710830492506004015b606483106115f1576064830492506002015b600a83106106ae5760010192915050565b5f5b8381101561161c578181015183820152602001611604565b50505f910152565b602081525f8251806020840152611642816040850160208701611602565b601f01601f19169190910160400192915050565b5f60208284031215611666575f80fd5b5035919050565b80356001600160a01b0381168114610cb1575f80fd5b5f8060408385031215611694575f80fd5b61169d8361166d565b946020939093013593505050565b634e487b7160e01b5f52604160045260245ffd5b5f82601f8301126116ce575f80fd5b813567ffffffffffffffff808211156116e9576116e96116ab565b604051601f8301601f19908116603f01168101908282118183101715611711576117116116ab565b81604052838152866020858801011115611729575f80fd5b836020870160208301375f602085830101528094505050505092915050565b5f60208284031215611758575f80fd5b813567ffffffffffffffff81111561176e575f80fd5b61177a848285016116bf565b949350505050565b5f805f60608486031215611794575f80fd5b61179d8461166d565b92506117ab6020850161166d565b9150604084013590509250925092565b5f80604083850312156117cc575f80fd5b823567ffffffffffffffff808211156117e3575f80fd5b6117ef868387016116bf565b93506020850135915080821115611804575f80fd5b50611811858286016116bf565b9150509250929050565b5f806040838503121561182c575f80fd5b6118358361166d565b915060208301358015158114611849575f80fd5b809150509250929050565b5f60208284031215611864575f80fd5b610a888261166d565b5f805f805f60808688031215611881575f80fd5b61188a8661166d565b94506118986020870161166d565b935060408601359250606086013567ffffffffffffffff808211156118bb575f80fd5b818801915088601f8301126118ce575f80fd5b8135818111156118dc575f80fd5b8960208285010111156118ed575f80fd5b9699959850939650602001949392505050565b5f8060408385031215611911575f80fd5b61191a8361166d565b91506119286020840161166d565b90509250929050565b600181811c9082168061194557607f821691505b60208210810361196357634e487b7160e01b5f52602260045260245ffd5b50919050565b601f821115610bf157805f5260205f20601f840160051c8101602085101561198e5750805b601f840160051c820191505b81811015610e58575f815560010161199a565b815167ffffffffffffffff8111156119c7576119c76116ab565b6119db816119d58454611931565b84611969565b602080601f831160018114611a0e575f84156119f75750858301515b5f19600386901b1c1916600185901b178555611a65565b5f85815260208120601f198616915b82811015611a3c57888601518255948401946001909101908401611a1d565b5085821015611a5957878501515f19600388901b60f8161c191681555b505060018460011b0185555b505050505050565b634e487b7160e01b5f52601160045260245ffd5b818103818111156106ae576106ae611a6d565b634e487b7160e01b5f52603260045260245ffd5b634e487b7160e01b5f52603160045260245ffd5b5f60208284031215611acc575f80fd5b81516001600160e01b031981168114610a88575f80fd5b6001600160a01b038681168252851660208201526040810184905260806060820181905281018290525f828460a08401375f60a0848401015260a0601f19601f85011683010190509695505050505050565b5f8154611b4181611931565b60018281168015611b595760018114611b6e57611b9a565b60ff1984168752821515830287019450611b9a565b855f526020805f205f5b85811015611b915781548a820152908401908201611b78565b50505082870194505b5050505092915050565b5f611baf8285611b35565b8351611bbf818360208801611602565b01949350505050565b5f611bd38284611b35565b6518973539b7b760d11b81526006019392505050565b5f611bf48284611b35565b6519173539b7b760d11b81526006019392505050565b5f611c158284611b35565b6519973539b7b760d11b81526006019392505050565b5f611c368284611b35565b651a173539b7b760d11b81526006019392505050565b5f611c578284611b35565b651a973539b7b760d11b81526006019392505050565b600181815b80851115611ca757815f1904821115611c8d57611c8d611a6d565b80851615611c9a57918102915b93841c9390800290611c72565b509250929050565b5f82611cbd575060016106ae565b81611cc957505f6106ae565b8160018114611cdf5760028114611ce957611d05565b60019150506106ae565b60ff841115611cfa57611cfa611a6d565b50506001821b6106ae565b5060208310610133831016604e8410600b8410161715611d28575081810a6106ae565b611d328383611c6d565b805f1904821115611d4557611d45611a6d565b029392505050565b5f610a8860ff841683611caf565b5f82611d7557634e487b7160e01b5f52601260045260245ffd5b50049056fea264697066735822122004590b12c2c1197e74bd5954694bfe46a8ec288c2a1d66e9f9afada6930b3ac964736f6c63430008160033",
					"opcodes": "PUSH1 0xA0 PUSH1 0x40 MSTORE CALLVALUE DUP1 ISZERO PUSH3 0x10 JUMPI PUSH0 DUP1 REVERT JUMPDEST POP PUSH1 0x40 MLOAD PUSH3 0x221A CODESIZE SUB DUP1 PUSH3 0x221A DUP4 CODECOPY DUP2 ADD PUSH1 0x40 DUP2 SWAP1 MSTORE PUSH3 0x33 SWAP2 PUSH3 0x178 JUMP JUMPDEST PUSH1 0x40 MLOAD DUP1 PUSH1 0x40 ADD PUSH1 0x40 MSTORE DUP1 PUSH1 0x4 DUP2 MSTORE PUSH1 0x20 ADD PUSH4 0x159BDA59 PUSH1 0xE2 SHL DUP2 MSTORE POP PUSH1 0x40 MLOAD DUP1 PUSH1 0x40 ADD PUSH1 0x40 MSTORE DUP1 PUSH1 0x4 DUP2 MSTORE PUSH1 0x20 ADD PUSH4 0x1593D251 PUSH1 0xE2 SHL DUP2 MSTORE POP PUSH1 0x12 PUSH2 0x2710 DUP5 DUP1 PUSH0 PUSH1 0x1 PUSH1 0x1 PUSH1 0xA0 SHL SUB AND DUP2 PUSH1 0x1 PUSH1 0x1 PUSH1 0xA0 SHL SUB AND SUB PUSH3 0xA7 JUMPI PUSH1 0x40 MLOAD PUSH4 0x49E27CFF PUSH1 0xE0 SHL DUP2 MSTORE PUSH1 0x4 ADD PUSH1 0x40 MLOAD DUP1 SWAP2 SUB SWAP1 REVERT JUMPDEST PUSH0 DUP1 SLOAD PUSH1 0x1 PUSH1 0x1 PUSH1 0xA0 SHL SUB NOT AND PUSH1 0x1 PUSH1 0x1 PUSH1 0xA0 SHL SUB DUP4 AND SWAP1 DUP2 OR DUP3 SSTORE PUSH1 0x40 MLOAD SWAP1 SWAP2 SWAP1 PUSH32 0x8BE0079C531659141344CD1FD0A4F28419497F9722A3DAAFE3B4186F6B6457E0 SWAP1 DUP3 SWAP1 LOG3 POP PUSH1 0x1 PUSH3 0xFD DUP7 DUP3 PUSH3 0x245 JUMP JUMPDEST POP PUSH1 0x2 PUSH3 0x10C DUP6 DUP3 PUSH3 0x245 JUMP JUMPDEST POP PUSH1 0xFF DUP4 AND PUSH1 0x80 DUP2 SWAP1 MSTORE PUSH3 0x123 SWAP1 PUSH1 0xA PUSH3 0x420 JUMP JUMPDEST PUSH3 0x12F SWAP1 DUP4 PUSH3 0x430 JUMP JUMPDEST PUSH1 0x3 SSTORE POP POP POP PUSH1 0x1 PUSH1 0x1 PUSH1 0xA0 SHL SUB SWAP1 SWAP3 AND PUSH0 SWAP1 DUP2 MSTORE PUSH1 0x5 PUSH1 0x20 SWAP1 DUP2 MSTORE PUSH1 0x40 DUP1 DUP4 KECCAK256 PUSH10 0x21E19E0C9BAB2400000 SWAP1 SSTORE PUSH1 0xC SWAP1 SWAP2 MSTORE SWAP1 KECCAK256 DUP1 SLOAD PUSH1 0xFF NOT AND PUSH1 0x1 OR SWAP1 SSTORE POP PUSH3 0x44A SWAP1 POP JUMP JUMPDEST PUSH0 PUSH1 0x20 DUP3 DUP5 SUB SLT ISZERO PUSH3 0x189 JUMPI PUSH0 DUP1 REVERT JUMPDEST DUP2 MLOAD PUSH1 0x1 PUSH1 0x1 PUSH1 0xA0 SHL SUB DUP2 AND DUP2 EQ PUSH3 0x1A0 JUMPI PUSH0 DUP1 REVERT JUMPDEST SWAP4 SWAP3 POP POP POP JUMP JUMPDEST PUSH4 0x4E487B71 PUSH1 0xE0 SHL PUSH0 MSTORE PUSH1 0x41 PUSH1 0x4 MSTORE PUSH1 0x24 PUSH0 REVERT JUMPDEST PUSH1 0x1 DUP2 DUP2 SHR SWAP1 DUP3 AND DUP1 PUSH3 0x1D0 JUMPI PUSH1 0x7F DUP3 AND SWAP2 POP JUMPDEST PUSH1 0x20 DUP3 LT DUP2 SUB PUSH3 0x1EF JUMPI PUSH4 0x4E487B71 PUSH1 0xE0 SHL PUSH0 MSTORE PUSH1 0x22 PUSH1 0x4 MSTORE PUSH1 0x24 PUSH0 REVERT JUMPDEST POP SWAP2 SWAP1 POP JUMP JUMPDEST PUSH1 0x1F DUP3 GT ISZERO PUSH3 0x240 JUMPI DUP1 PUSH0 MSTORE PUSH1 0x20 PUSH0 KECCAK256 PUSH1 0x1F DUP5 ADD PUSH1 0x5 SHR DUP2 ADD PUSH1 0x20 DUP6 LT ISZERO PUSH3 0x21C JUMPI POP DUP1 JUMPDEST PUSH1 0x1F DUP5 ADD PUSH1 0x5 SHR DUP3 ADD SWAP2 POP JUMPDEST DUP2 DUP2 LT ISZERO PUSH3 0x23D JUMPI PUSH0 DUP2 SSTORE PUSH1 0x1 ADD PUSH3 0x228 JUMP JUMPDEST POP POP JUMPDEST POP POP POP JUMP JUMPDEST DUP2 MLOAD PUSH1 0x1 PUSH1 0x1 PUSH1 0x40 SHL SUB DUP2 GT ISZERO PUSH3 0x261 JUMPI PUSH3 0x261 PUSH3 0x1A7 JUMP JUMPDEST PUSH3 0x279 DUP2 PUSH3 0x272 DUP5 SLOAD PUSH3 0x1BB JUMP JUMPDEST DUP5 PUSH3 0x1F5 JUMP JUMPDEST PUSH1 0x20 DUP1 PUSH1 0x1F DUP4 GT PUSH1 0x1 DUP2 EQ PUSH3 0x2AF JUMPI PUSH0 DUP5 ISZERO PUSH3 0x297 JUMPI POP DUP6 DUP4 ADD MLOAD JUMPDEST PUSH0 NOT PUSH1 0x3 DUP7 SWAP1 SHL SHR NOT AND PUSH1 0x1 DUP6 SWAP1 SHL OR DUP6 SSTORE PUSH3 0x309 JUMP JUMPDEST PUSH0 DUP6 DUP2 MSTORE PUSH1 0x20 DUP2 KECCAK256 PUSH1 0x1F NOT DUP7 AND SWAP2 JUMPDEST DUP3 DUP2 LT ISZERO PUSH3 0x2DF JUMPI DUP9 DUP7 ADD MLOAD DUP3 SSTORE SWAP5 DUP5 ADD SWAP5 PUSH1 0x1 SWAP1 SWAP2 ADD SWAP1 DUP5 ADD PUSH3 0x2BE JUMP JUMPDEST POP DUP6 DUP3 LT ISZERO PUSH3 0x2FD JUMPI DUP8 DUP6 ADD MLOAD PUSH0 NOT PUSH1 0x3 DUP9 SWAP1 SHL PUSH1 0xF8 AND SHR NOT AND DUP2 SSTORE JUMPDEST POP POP PUSH1 0x1 DUP5 PUSH1 0x1 SHL ADD DUP6 SSTORE JUMPDEST POP POP POP POP POP POP JUMP JUMPDEST PUSH4 0x4E487B71 PUSH1 0xE0 SHL PUSH0 MSTORE PUSH1 0x11 PUSH1 0x4 MSTORE PUSH1 0x24 PUSH0 REVERT JUMPDEST PUSH1 0x1 DUP2 DUP2 JUMPDEST DUP1 DUP6 GT ISZERO PUSH3 0x365 JUMPI DUP2 PUSH0 NOT DIV DUP3 GT ISZERO PUSH3 0x349 JUMPI PUSH3 0x349 PUSH3 0x311 JUMP JUMPDEST DUP1 DUP6 AND ISZERO PUSH3 0x357 JUMPI SWAP2 DUP2 MUL SWAP2 JUMPDEST SWAP4 DUP5 SHR SWAP4 SWAP1 DUP1 MUL SWAP1 PUSH3 0x32A JUMP JUMPDEST POP SWAP3 POP SWAP3 SWAP1 POP JUMP JUMPDEST PUSH0 DUP3 PUSH3 0x37D JUMPI POP PUSH1 0x1 PUSH3 0x41A JUMP JUMPDEST DUP2 PUSH3 0x38B JUMPI POP PUSH0 PUSH3 0x41A JUMP JUMPDEST DUP2 PUSH1 0x1 DUP2 EQ PUSH3 0x3A4 JUMPI PUSH1 0x2 DUP2 EQ PUSH3 0x3AF JUMPI PUSH3 0x3CF JUMP JUMPDEST PUSH1 0x1 SWAP2 POP POP PUSH3 0x41A JUMP JUMPDEST PUSH1 0xFF DUP5 GT ISZERO PUSH3 0x3C3 JUMPI PUSH3 0x3C3 PUSH3 0x311 JUMP JUMPDEST POP POP PUSH1 0x1 DUP3 SHL PUSH3 0x41A JUMP JUMPDEST POP PUSH1 0x20 DUP4 LT PUSH2 0x133 DUP4 LT AND PUSH1 0x4E DUP5 LT PUSH1 0xB DUP5 LT AND OR ISZERO PUSH3 0x3F4 JUMPI POP DUP2 DUP2 EXP PUSH3 0x41A JUMP JUMPDEST PUSH3 0x400 DUP4 DUP4 PUSH3 0x325 JUMP JUMPDEST DUP1 PUSH0 NOT DIV DUP3 GT ISZERO PUSH3 0x416 JUMPI PUSH3 0x416 PUSH3 0x311 JUMP JUMPDEST MUL SWAP1 POP JUMPDEST SWAP3 SWAP2 POP POP JUMP JUMPDEST PUSH0 PUSH3 0x1A0 PUSH1 0xFF DUP5 AND DUP4 PUSH3 0x36D JUMP JUMPDEST DUP1 DUP3 MUL DUP2 ISZERO DUP3 DUP3 DIV DUP5 EQ OR PUSH3 0x41A JUMPI PUSH3 0x41A PUSH3 0x311 JUMP JUMPDEST PUSH1 0x80 MLOAD PUSH2 0x1DB0 PUSH3 0x46A PUSH0 CODECOPY PUSH0 DUP2 DUP2 PUSH2 0x28C ADD MSTORE PUSH2 0x1089 ADD MSTORE PUSH2 0x1DB0 PUSH0 RETURN INVALID PUSH1 0x80 PUSH1 0x40 MSTORE CALLVALUE DUP1 ISZERO PUSH2 0xF JUMPI PUSH0 DUP1 REVERT JUMPDEST POP PUSH1 0x4 CALLDATASIZE LT PUSH2 0x1BB JUMPI PUSH0 CALLDATALOAD PUSH1 0xE0 SHR DUP1 PUSH4 0x70A08231 GT PUSH2 0xF3 JUMPI DUP1 PUSH4 0xC87B56DD GT PUSH2 0x93 JUMPI DUP1 PUSH4 0xE0DF5B6F GT PUSH2 0x6E JUMPI DUP1 PUSH4 0xE0DF5B6F EQ PUSH2 0x401 JUMPI DUP1 PUSH4 0xE985E9C5 EQ PUSH2 0x414 JUMPI DUP1 PUSH4 0xF28CA1DD EQ PUSH2 0x441 JUMPI DUP1 PUSH4 0xF2FDE38B EQ PUSH2 0x449 JUMPI PUSH0 DUP1 REVERT JUMPDEST DUP1 PUSH4 0xC87B56DD EQ PUSH2 0x3BC JUMPI DUP1 PUSH4 0xD547CFB7 EQ PUSH2 0x3CF JUMPI DUP1 PUSH4 0xDD62ED3E EQ PUSH2 0x3D7 JUMPI PUSH0 DUP1 REVERT JUMPDEST DUP1 PUSH4 0x9B19251A GT PUSH2 0xCE JUMPI DUP1 PUSH4 0x9B19251A EQ PUSH2 0x361 JUMPI DUP1 PUSH4 0xA22CB465 EQ PUSH2 0x383 JUMPI DUP1 PUSH4 0xA9059CBB EQ PUSH2 0x396 JUMPI DUP1 PUSH4 0xB88D4FDE EQ PUSH2 0x3A9 JUMPI PUSH0 DUP1 REVERT JUMPDEST DUP1 PUSH4 0x70A08231 EQ PUSH2 0x328 JUMPI DUP1 PUSH4 0x8DA5CB5B EQ PUSH2 0x347 JUMPI DUP1 PUSH4 0x95D89B41 EQ PUSH2 0x359 JUMPI PUSH0 DUP1 REVERT JUMPDEST DUP1 PUSH4 0x313CE567 GT PUSH2 0x15E JUMPI DUP1 PUSH4 0x504334C2 GT PUSH2 0x139 JUMPI DUP1 PUSH4 0x504334C2 EQ PUSH2 0x2DC JUMPI DUP1 PUSH4 0x53D6FD59 EQ PUSH2 0x2EF JUMPI DUP1 PUSH4 0x6352211E EQ PUSH2 0x302 JUMPI DUP1 PUSH4 0x664DFA01 EQ PUSH2 0x315 JUMPI PUSH0 DUP1 REVERT JUMPDEST DUP1 PUSH4 0x313CE567 EQ PUSH2 0x287 JUMPI DUP1 PUSH4 0x42842E0E EQ PUSH2 0x2C0 JUMPI DUP1 PUSH4 0x4F02C420 EQ PUSH2 0x2D3 JUMPI PUSH0 DUP1 REVERT JUMPDEST DUP1 PUSH4 0x18160DDD GT PUSH2 0x199 JUMPI DUP1 PUSH4 0x18160DDD EQ PUSH2 0x240 JUMPI DUP1 PUSH4 0x18D217C3 EQ PUSH2 0x257 JUMPI DUP1 PUSH4 0x23B872DD EQ PUSH2 0x26C JUMPI DUP1 PUSH4 0x2B968958 EQ PUSH2 0x27F JUMPI PUSH0 DUP1 REVERT JUMPDEST DUP1 PUSH4 0x6FDDE03 EQ PUSH2 0x1BF JUMPI DUP1 PUSH4 0x81812FC EQ PUSH2 0x1DD JUMPI DUP1 PUSH4 0x95EA7B3 EQ PUSH2 0x21D JUMPI JUMPDEST PUSH0 DUP1 REVERT JUMPDEST PUSH2 0x1C7 PUSH2 0x45C JUMP JUMPDEST PUSH1 0x40 MLOAD PUSH2 0x1D4 SWAP2 SWAP1 PUSH2 0x1624 JUMP JUMPDEST PUSH1 0x40 MLOAD DUP1 SWAP2 SUB SWAP1 RETURN JUMPDEST PUSH2 0x205 PUSH2 0x1EB CALLDATASIZE PUSH1 0x4 PUSH2 0x1656 JUMP JUMPDEST PUSH1 0x7 PUSH1 0x20 MSTORE PUSH0 SWAP1 DUP2 MSTORE PUSH1 0x40 SWAP1 KECCAK256 SLOAD PUSH1 0x1 PUSH1 0x1 PUSH1 0xA0 SHL SUB AND DUP2 JUMP JUMPDEST PUSH1 0x40 MLOAD PUSH1 0x1 PUSH1 0x1 PUSH1 0xA0 SHL SUB SWAP1 SWAP2 AND DUP2 MSTORE PUSH1 0x20 ADD PUSH2 0x1D4 JUMP JUMPDEST PUSH2 0x230 PUSH2 0x22B CALLDATASIZE PUSH1 0x4 PUSH2 0x1683 JUMP JUMPDEST PUSH2 0x4E8 JUMP JUMPDEST PUSH1 0x40 MLOAD SWAP1 ISZERO ISZERO DUP2 MSTORE PUSH1 0x20 ADD PUSH2 0x1D4 JUMP JUMPDEST PUSH2 0x249 PUSH1 0x3 SLOAD DUP2 JUMP JUMPDEST PUSH1 0x40 MLOAD SWAP1 DUP2 MSTORE PUSH1 0x20 ADD PUSH2 0x1D4 JUMP JUMPDEST PUSH2 0x26A PUSH2 0x265 CALLDATASIZE PUSH1 0x4 PUSH2 0x1748 JUMP JUMPDEST PUSH2 0x6B4 JUMP JUMPDEST STOP JUMPDEST PUSH2 0x230 PUSH2 0x27A CALLDATASIZE PUSH1 0x4 PUSH2 0x1782 JUMP JUMPDEST PUSH2 0x6ED JUMP JUMPDEST PUSH2 0x26A PUSH2 0xA8F JUMP JUMPDEST PUSH2 0x2AE PUSH32 0x0 DUP2 JUMP JUMPDEST PUSH1 0x40 MLOAD PUSH1 0xFF SWAP1 SWAP2 AND DUP2 MSTORE PUSH1 0x20 ADD PUSH2 0x1D4 JUMP JUMPDEST PUSH2 0x26A PUSH2 0x2CE CALLDATASIZE PUSH1 0x4 PUSH2 0x1782 JUMP JUMPDEST PUSH2 0xAF3 JUMP JUMPDEST PUSH2 0x249 PUSH1 0x4 SLOAD DUP2 JUMP JUMPDEST PUSH2 0x26A PUSH2 0x2EA CALLDATASIZE PUSH1 0x4 PUSH2 0x17BB JUMP JUMPDEST PUSH2 0xBF6 JUMP JUMPDEST PUSH2 0x26A PUSH2 0x2FD CALLDATASIZE PUSH1 0x4 PUSH2 0x181B JUMP JUMPDEST PUSH2 0xC29 JUMP JUMPDEST PUSH2 0x205 PUSH2 0x310 CALLDATASIZE PUSH1 0x4 PUSH2 0x1656 JUMP JUMPDEST PUSH2 0xC7C JUMP JUMPDEST PUSH2 0x26A PUSH2 0x323 CALLDATASIZE PUSH1 0x4 PUSH2 0x1656 JUMP JUMPDEST PUSH2 0xCB6 JUMP JUMPDEST PUSH2 0x249 PUSH2 0x336 CALLDATASIZE PUSH1 0x4 PUSH2 0x1854 JUMP JUMPDEST PUSH1 0x5 PUSH1 0x20 MSTORE PUSH0 SWAP1 DUP2 MSTORE PUSH1 0x40 SWAP1 KECCAK256 SLOAD DUP2 JUMP JUMPDEST PUSH0 SLOAD PUSH2 0x205 SWAP1 PUSH1 0x1 PUSH1 0x1 PUSH1 0xA0 SHL SUB AND DUP2 JUMP JUMPDEST PUSH2 0x1C7 PUSH2 0xCE7 JUMP JUMPDEST PUSH2 0x230 PUSH2 0x36F CALLDATASIZE PUSH1 0x4 PUSH2 0x1854 JUMP JUMPDEST PUSH1 0xC PUSH1 0x20 MSTORE PUSH0 SWAP1 DUP2 MSTORE PUSH1 0x40 SWAP1 KECCAK256 SLOAD PUSH1 0xFF AND DUP2 JUMP JUMPDEST PUSH2 0x26A PUSH2 0x391 CALLDATASIZE PUSH1 0x4 PUSH2 0x181B JUMP JUMPDEST PUSH2 0xCF4 JUMP JUMPDEST PUSH2 0x230 PUSH2 0x3A4 CALLDATASIZE PUSH1 0x4 PUSH2 0x1683 JUMP JUMPDEST PUSH2 0xD5F JUMP JUMPDEST PUSH2 0x26A PUSH2 0x3B7 CALLDATASIZE PUSH1 0x4 PUSH2 0x186D JUMP JUMPDEST PUSH2 0xD6B JUMP JUMPDEST PUSH2 0x1C7 PUSH2 0x3CA CALLDATASIZE PUSH1 0x4 PUSH2 0x1656 JUMP JUMPDEST PUSH2 0xE5F JUMP JUMPDEST PUSH2 0x1C7 PUSH2 0xF9A JUMP JUMPDEST PUSH2 0x249 PUSH2 0x3E5 CALLDATASIZE PUSH1 0x4 PUSH2 0x1900 JUMP JUMPDEST PUSH1 0x6 PUSH1 0x20 SWAP1 DUP2 MSTORE PUSH0 SWAP3 DUP4 MSTORE PUSH1 0x40 DUP1 DUP5 KECCAK256 SWAP1 SWAP2 MSTORE SWAP1 DUP3 MSTORE SWAP1 KECCAK256 SLOAD DUP2 JUMP JUMPDEST PUSH2 0x26A PUSH2 0x40F CALLDATASIZE PUSH1 0x4 PUSH2 0x1748 JUMP JUMPDEST PUSH2 0xFA7 JUMP JUMPDEST PUSH2 0x230 PUSH2 0x422 CALLDATASIZE PUSH1 0x4 PUSH2 0x1900 JUMP JUMPDEST PUSH1 0x8 PUSH1 0x20 SWAP1 DUP2 MSTORE PUSH0 SWAP3 DUP4 MSTORE PUSH1 0x40 DUP1 DUP5 KECCAK256 SWAP1 SWAP2 MSTORE SWAP1 DUP3 MSTORE SWAP1 KECCAK256 SLOAD PUSH1 0xFF AND DUP2 JUMP JUMPDEST PUSH2 0x1C7 PUSH2 0xFDC JUMP JUMPDEST PUSH2 0x26A PUSH2 0x457 CALLDATASIZE PUSH1 0x4 PUSH2 0x1854 JUMP JUMPDEST PUSH2 0xFE9 JUMP JUMPDEST PUSH1 0x1 DUP1 SLOAD PUSH2 0x469 SWAP1 PUSH2 0x1931 JUMP JUMPDEST DUP1 PUSH1 0x1F ADD PUSH1 0x20 DUP1 SWAP2 DIV MUL PUSH1 0x20 ADD PUSH1 0x40 MLOAD SWAP1 DUP2 ADD PUSH1 0x40 MSTORE DUP1 SWAP3 SWAP2 SWAP1 DUP2 DUP2 MSTORE PUSH1 0x20 ADD DUP3 DUP1 SLOAD PUSH2 0x495 SWAP1 PUSH2 0x1931 JUMP JUMPDEST DUP1 ISZERO PUSH2 0x4E0 JUMPI DUP1 PUSH1 0x1F LT PUSH2 0x4B7 JUMPI PUSH2 0x100 DUP1 DUP4 SLOAD DIV MUL DUP4 MSTORE SWAP2 PUSH1 0x20 ADD SWAP2 PUSH2 0x4E0 JUMP JUMPDEST DUP3 ADD SWAP2 SWAP1 PUSH0 MSTORE PUSH1 0x20 PUSH0 KECCAK256 SWAP1 JUMPDEST DUP2 SLOAD DUP2 MSTORE SWAP1 PUSH1 0x1 ADD SWAP1 PUSH1 0x20 ADD DUP1 DUP4 GT PUSH2 0x4C3 JUMPI DUP3 SWAP1 SUB PUSH1 0x1F AND DUP3 ADD SWAP2 JUMPDEST POP POP POP POP POP DUP2 JUMP JUMPDEST PUSH0 PUSH1 0x4 SLOAD DUP3 GT ISZERO DUP1 ISZERO PUSH2 0x4FA JUMPI POP PUSH0 DUP3 GT JUMPDEST ISZERO PUSH2 0x60F JUMPI PUSH0 DUP3 DUP2 MSTORE PUSH1 0x9 PUSH1 0x20 MSTORE PUSH1 0x40 SWAP1 KECCAK256 SLOAD PUSH1 0x1 PUSH1 0x1 PUSH1 0xA0 SHL SUB AND CALLER DUP2 EQ DUP1 ISZERO SWAP1 PUSH2 0x549 JUMPI POP PUSH1 0x1 PUSH1 0x1 PUSH1 0xA0 SHL SUB DUP2 AND PUSH0 SWAP1 DUP2 MSTORE PUSH1 0x8 PUSH1 0x20 SWAP1 DUP2 MSTORE PUSH1 0x40 DUP1 DUP4 KECCAK256 CALLER DUP5 MSTORE SWAP1 SWAP2 MSTORE SWAP1 KECCAK256 SLOAD PUSH1 0xFF AND ISZERO JUMPDEST ISZERO PUSH2 0x566 JUMPI PUSH1 0x40 MLOAD PUSH3 0x82B429 PUSH1 0xE8 SHL DUP2 MSTORE PUSH1 0x4 ADD PUSH1 0x40 MLOAD DUP1 SWAP2 SUB SWAP1 REVERT JUMPDEST PUSH0 DUP4 DUP2 MSTORE PUSH1 0x7 PUSH1 0x20 SWAP1 DUP2 MSTORE PUSH1 0x40 SWAP2 DUP3 SWAP1 KECCAK256 DUP1 SLOAD PUSH1 0x1 PUSH1 0x1 PUSH1 0xA0 SHL SUB NOT AND PUSH1 0x1 PUSH1 0x1 PUSH1 0xA0 SHL SUB DUP9 DUP2 AND SWAP2 DUP3 OR SWAP1 SWAP3 SSTORE SWAP3 MLOAD DUP7 DUP2 MSTORE SWAP1 DUP5 AND SWAP2 PUSH32 0x8C5BE1E5EBEC7D5BD14F71427D1E84F3DD0314C0F7B2291E5B200AC8C7C3B925 SWAP2 ADD PUSH1 0x40 MLOAD DUP1 SWAP2 SUB SWAP1 LOG3 DUP3 DUP5 PUSH1 0x1 PUSH1 0x1 PUSH1 0xA0 SHL SUB AND DUP3 PUSH1 0x1 PUSH1 0x1 PUSH1 0xA0 SHL SUB AND PUSH32 0x797365DABB18FA726CCBCCBE18C6F24C34E3B0653F2E99EA873BD7B84763DDE6 PUSH1 0x40 MLOAD PUSH1 0x40 MLOAD DUP1 SWAP2 SUB SWAP1 LOG4 POP PUSH2 0x6AA JUMP JUMPDEST CALLER PUSH0 DUP2 DUP2 MSTORE PUSH1 0x6 PUSH1 0x20 SWAP1 DUP2 MSTORE PUSH1 0x40 DUP1 DUP4 KECCAK256 PUSH1 0x1 PUSH1 0x1 PUSH1 0xA0 SHL SUB DUP9 AND DUP1 DUP6 MSTORE SWAP1 DUP4 MSTORE SWAP3 DUP2 SWAP1 KECCAK256 DUP7 SWAP1 SSTORE MLOAD DUP6 DUP2 MSTORE SWAP2 SWAP3 SWAP2 PUSH32 0x8C5BE1E5EBEC7D5BD14F71427D1E84F3DD0314C0F7B2291E5B200AC8C7C3B925 SWAP2 ADD PUSH1 0x40 MLOAD DUP1 SWAP2 SUB SWAP1 LOG3 PUSH1 0x40 MLOAD DUP3 DUP2 MSTORE PUSH1 0x1 PUSH1 0x1 PUSH1 0xA0 SHL SUB DUP5 AND SWAP1 CALLER SWAP1 PUSH32 0x1F01303A1CE9329D9963E1937C201E23C5543A9E3536E9EDEAD087AEC7DC6D83 SWAP1 PUSH1 0x20 ADD PUSH1 0x40 MLOAD DUP1 SWAP2 SUB SWAP1 LOG3 JUMPDEST POP PUSH1 0x1 JUMPDEST SWAP3 SWAP2 POP POP JUMP JUMPDEST PUSH0 SLOAD PUSH1 0x1 PUSH1 0x1 PUSH1 0xA0 SHL SUB AND CALLER EQ PUSH2 0x6DD JUMPI PUSH1 0x40 MLOAD PUSH3 0x82B429 PUSH1 0xE8 SHL DUP2 MSTORE PUSH1 0x4 ADD PUSH1 0x40 MLOAD DUP1 SWAP2 SUB SWAP1 REVERT JUMPDEST PUSH1 0xD PUSH2 0x6E9 DUP3 DUP3 PUSH2 0x19AD JUMP JUMPDEST POP POP JUMP JUMPDEST PUSH0 PUSH1 0x4 SLOAD DUP3 GT ISZERO DUP1 ISZERO PUSH2 0x6FF JUMPI POP PUSH0 DUP3 GT JUMPDEST ISZERO PUSH2 0xA18 JUMPI PUSH0 DUP3 DUP2 MSTORE PUSH1 0x9 PUSH1 0x20 MSTORE PUSH1 0x40 SWAP1 KECCAK256 SLOAD PUSH1 0x1 PUSH1 0x1 PUSH1 0xA0 SHL SUB DUP6 DUP2 AND SWAP2 AND EQ PUSH2 0x73D JUMPI PUSH1 0x40 MLOAD PUSH4 0x6EDAEF2F PUSH1 0xE1 SHL DUP2 MSTORE PUSH1 0x4 ADD PUSH1 0x40 MLOAD DUP1 SWAP2 SUB SWAP1 REVERT JUMPDEST PUSH1 0x1 PUSH1 0x1 PUSH1 0xA0 SHL SUB DUP4 AND PUSH2 0x764 JUMPI PUSH1 0x40 MLOAD PUSH4 0x4E469669 PUSH1 0xE1 SHL DUP2 MSTORE PUSH1 0x4 ADD PUSH1 0x40 MLOAD DUP1 SWAP2 SUB SWAP1 REVERT JUMPDEST CALLER PUSH1 0x1 PUSH1 0x1 PUSH1 0xA0 SHL SUB DUP6 AND EQ DUP1 ISZERO SWAP1 PUSH2 0x7A0 JUMPI POP PUSH1 0x1 PUSH1 0x1 PUSH1 0xA0 SHL SUB DUP5 AND PUSH0 SWAP1 DUP2 MSTORE PUSH1 0x8 PUSH1 0x20 SWAP1 DUP2 MSTORE PUSH1 0x40 DUP1 DUP4 KECCAK256 CALLER DUP5 MSTORE SWAP1 SWAP2 MSTORE SWAP1 KECCAK256 SLOAD PUSH1 0xFF AND ISZERO JUMPDEST DUP1 ISZERO PUSH2 0x7C2 JUMPI POP PUSH0 DUP3 DUP2 MSTORE PUSH1 0x7 PUSH1 0x20 MSTORE PUSH1 0x40 SWAP1 KECCAK256 SLOAD PUSH1 0x1 PUSH1 0x1 PUSH1 0xA0 SHL SUB AND CALLER EQ ISZERO JUMPDEST ISZERO PUSH2 0x7DF JUMPI PUSH1 0x40 MLOAD PUSH3 0x82B429 PUSH1 0xE8 SHL DUP2 MSTORE PUSH1 0x4 ADD PUSH1 0x40 MLOAD DUP1 SWAP2 SUB SWAP1 REVERT JUMPDEST PUSH2 0x7E7 PUSH2 0x1083 JUMP JUMPDEST PUSH1 0x1 PUSH1 0x1 PUSH1 0xA0 SHL SUB DUP6 AND PUSH0 SWAP1 DUP2 MSTORE PUSH1 0x5 PUSH1 0x20 MSTORE PUSH1 0x40 DUP2 KECCAK256 DUP1 SLOAD SWAP1 SWAP2 SWAP1 PUSH2 0x80E SWAP1 DUP5 SWAP1 PUSH2 0x1A81 JUMP JUMPDEST SWAP1 SWAP2 SSTORE POP PUSH2 0x81C SWAP1 POP PUSH2 0x1083 JUMP JUMPDEST PUSH1 0x1 PUSH1 0x1 PUSH1 0xA0 SHL SUB DUP1 DUP6 AND PUSH0 DUP2 DUP2 MSTORE PUSH1 0x5 PUSH1 0x20 SWAP1 DUP2 MSTORE PUSH1 0x40 DUP1 DUP4 KECCAK256 DUP1 SLOAD SWAP1 SWAP7 ADD SWAP1 SWAP6 SSTORE DUP7 DUP3 MSTORE PUSH1 0x9 DUP2 MSTORE DUP5 DUP3 KECCAK256 DUP1 SLOAD PUSH1 0x1 PUSH1 0x1 PUSH1 0xA0 SHL SUB NOT SWAP1 DUP2 AND SWAP1 SWAP5 OR SWAP1 SSTORE PUSH1 0x7 DUP2 MSTORE DUP5 DUP3 KECCAK256 DUP1 SLOAD SWAP1 SWAP4 AND SWAP1 SWAP3 SSTORE SWAP2 DUP8 AND DUP3 MSTORE PUSH1 0xA SWAP1 MSTORE SWAP1 DUP2 KECCAK256 DUP1 SLOAD PUSH2 0x885 SWAP1 PUSH1 0x1 SWAP1 PUSH2 0x1A81 JUMP JUMPDEST DUP2 SLOAD DUP2 LT PUSH2 0x895 JUMPI PUSH2 0x895 PUSH2 0x1A94 JUMP JUMPDEST SWAP1 PUSH0 MSTORE PUSH1 0x20 PUSH0 KECCAK256 ADD SLOAD SWAP1 POP DUP3 DUP2 EQ PUSH2 0x906 JUMPI PUSH1 0x1 PUSH1 0x1 PUSH1 0xA0 SHL SUB DUP6 AND PUSH0 SWAP1 DUP2 MSTORE PUSH1 0xA PUSH1 0x20 SWAP1 DUP2 MSTORE PUSH1 0x40 DUP1 DUP4 KECCAK256 DUP7 DUP5 MSTORE PUSH1 0xB SWAP1 SWAP3 MSTORE SWAP1 SWAP2 KECCAK256 SLOAD DUP2 SLOAD DUP4 SWAP3 SWAP2 SWAP1 DUP2 LT PUSH2 0x8E1 JUMPI PUSH2 0x8E1 PUSH2 0x1A94 JUMP JUMPDEST PUSH0 SWAP2 DUP3 MSTORE PUSH1 0x20 DUP1 DUP4 KECCAK256 SWAP1 SWAP2 ADD SWAP3 SWAP1 SWAP3 SSTORE DUP5 DUP2 MSTORE PUSH1 0xB SWAP1 SWAP2 MSTORE PUSH1 0x40 DUP1 DUP3 KECCAK256 SLOAD DUP4 DUP4 MSTORE SWAP2 KECCAK256 SSTORE JUMPDEST PUSH1 0x1 PUSH1 0x1 PUSH1 0xA0 SHL SUB DUP6 AND PUSH0 SWAP1 DUP2 MSTORE PUSH1 0xA PUSH1 0x20 MSTORE PUSH1 0x40 SWAP1 KECCAK256 DUP1 SLOAD DUP1 PUSH2 0x92C JUMPI PUSH2 0x92C PUSH2 0x1AA8 JUMP JUMPDEST PUSH0 DUP3 DUP2 MSTORE PUSH1 0x20 DUP1 DUP3 KECCAK256 DUP4 ADD PUSH0 NOT SWAP1 DUP2 ADD DUP4 SWAP1 SSTORE SWAP1 SWAP3 ADD SWAP1 SWAP3 SSTORE PUSH1 0x1 PUSH1 0x1 PUSH1 0xA0 SHL SUB DUP7 AND DUP1 DUP4 MSTORE PUSH1 0xA DUP3 MSTORE PUSH1 0x40 DUP4 KECCAK256 DUP1 SLOAD PUSH1 0x1 DUP2 DUP2 ADD DUP4 SSTORE DUP3 DUP7 MSTORE SWAP4 DUP6 KECCAK256 ADD DUP8 SWAP1 SSTORE SWAP3 MSTORE SWAP1 SLOAD PUSH2 0x97B SWAP2 SWAP1 PUSH2 0x1A81 JUMP JUMPDEST PUSH0 DUP5 DUP2 MSTORE PUSH1 0xB PUSH1 0x20 MSTORE PUSH1 0x40 DUP1 DUP3 KECCAK256 SWAP3 SWAP1 SWAP3 SSTORE SWAP1 MLOAD DUP5 SWAP2 PUSH1 0x1 PUSH1 0x1 PUSH1 0xA0 SHL SUB DUP1 DUP9 AND SWAP3 SWAP1 DUP10 AND SWAP2 PUSH32 0xDDF252AD1BE2C89B69C2B068FC378DAA952BA7F163C4A11628F55A4DF523B3EF SWAP2 LOG4 DUP4 PUSH1 0x1 PUSH1 0x1 PUSH1 0xA0 SHL SUB AND DUP6 PUSH1 0x1 PUSH1 0x1 PUSH1 0xA0 SHL SUB AND PUSH32 0xE59FDD36D0D223C0C7D996DB7AD796880F45E1936CB0BB7AC102E7082E031487 PUSH2 0xA01 PUSH2 0x1083 JUMP JUMPDEST PUSH1 0x40 MLOAD SWAP1 DUP2 MSTORE PUSH1 0x20 ADD PUSH1 0x40 MLOAD DUP1 SWAP2 SUB SWAP1 LOG3 POP PUSH2 0xA84 JUMP JUMPDEST PUSH1 0x1 PUSH1 0x1 PUSH1 0xA0 SHL SUB DUP5 AND PUSH0 SWAP1 DUP2 MSTORE PUSH1 0x6 PUSH1 0x20 SWAP1 DUP2 MSTORE PUSH1 0x40 DUP1 DUP4 KECCAK256 CALLER DUP5 MSTORE SWAP1 SWAP2 MSTORE SWAP1 KECCAK256 SLOAD PUSH0 NOT DUP2 EQ PUSH2 0xA71 JUMPI PUSH2 0xA4D DUP4 DUP3 PUSH2 0x1A81 JUMP JUMPDEST PUSH1 0x1 PUSH1 0x1 PUSH1 0xA0 SHL SUB DUP7 AND PUSH0 SWAP1 DUP2 MSTORE PUSH1 0x6 PUSH1 0x20 SWAP1 DUP2 MSTORE PUSH1 0x40 DUP1 DUP4 KECCAK256 CALLER DUP5 MSTORE SWAP1 SWAP2 MSTORE SWAP1 KECCAK256 SSTORE JUMPDEST PUSH2 0xA7C DUP6 DUP6 DUP6 PUSH2 0x10B4 JUMP JUMPDEST SWAP2 POP POP PUSH2 0xA88 JUMP JUMPDEST POP PUSH1 0x1 JUMPDEST SWAP4 SWAP3 POP POP POP JUMP JUMPDEST PUSH0 SLOAD PUSH1 0x1 PUSH1 0x1 PUSH1 0xA0 SHL SUB AND CALLER EQ PUSH2 0xAB8 JUMPI PUSH1 0x40 MLOAD PUSH3 0x82B429 PUSH1 0xE8 SHL DUP2 MSTORE PUSH1 0x4 ADD PUSH1 0x40 MLOAD DUP1 SWAP2 SUB SWAP1 REVERT JUMPDEST PUSH0 DUP1 SLOAD PUSH1 0x1 PUSH1 0x1 PUSH1 0xA0 SHL SUB NOT AND DUP2 SSTORE PUSH1 0x40 MLOAD CALLER SWAP1 PUSH32 0x8BE0079C531659141344CD1FD0A4F28419497F9722A3DAAFE3B4186F6B6457E0 SWAP1 DUP4 SWAP1 LOG3 JUMP JUMPDEST PUSH1 0x4 SLOAD DUP2 GT DUP1 PUSH2 0xB01 JUMPI POP DUP1 ISZERO JUMPDEST ISZERO PUSH2 0xB1F JUMPI PUSH1 0x40 MLOAD PUSH4 0x1BF43481 PUSH1 0xE3 SHL DUP2 MSTORE PUSH1 0x4 ADD PUSH1 0x40 MLOAD DUP1 SWAP2 SUB SWAP1 REVERT JUMPDEST PUSH2 0xB2A DUP4 DUP4 DUP4 PUSH2 0x6ED JUMP JUMPDEST POP PUSH1 0x1 PUSH1 0x1 PUSH1 0xA0 SHL SUB DUP3 AND EXTCODESIZE ISZERO DUP1 ISZERO SWAP1 PUSH2 0xBD3 JUMPI POP PUSH1 0x40 MLOAD PUSH4 0xA85BD01 PUSH1 0xE1 SHL DUP1 DUP3 MSTORE CALLER PUSH1 0x4 DUP4 ADD MSTORE PUSH1 0x1 PUSH1 0x1 PUSH1 0xA0 SHL SUB DUP6 DUP2 AND PUSH1 0x24 DUP5 ADD MSTORE PUSH1 0x44 DUP4 ADD DUP5 SWAP1 MSTORE PUSH1 0x80 PUSH1 0x64 DUP5 ADD MSTORE PUSH0 PUSH1 0x84 DUP5 ADD MSTORE SWAP1 SWAP2 SWAP1 DUP5 AND SWAP1 PUSH4 0x150B7A02 SWAP1 PUSH1 0xA4 ADD PUSH1 0x20 PUSH1 0x40 MLOAD DUP1 DUP4 SUB DUP2 PUSH0 DUP8 GAS CALL ISZERO DUP1 ISZERO PUSH2 0xBA2 JUMPI RETURNDATASIZE PUSH0 DUP1 RETURNDATACOPY RETURNDATASIZE PUSH0 REVERT JUMPDEST POP POP POP POP PUSH1 0x40 MLOAD RETURNDATASIZE PUSH1 0x1F NOT PUSH1 0x1F DUP3 ADD AND DUP3 ADD DUP1 PUSH1 0x40 MSTORE POP DUP2 ADD SWAP1 PUSH2 0xBC6 SWAP2 SWAP1 PUSH2 0x1ABC JUMP JUMPDEST PUSH1 0x1 PUSH1 0x1 PUSH1 0xE0 SHL SUB NOT AND EQ ISZERO JUMPDEST ISZERO PUSH2 0xBF1 JUMPI PUSH1 0x40 MLOAD PUSH4 0x3DA63931 PUSH1 0xE0 SHL DUP2 MSTORE PUSH1 0x4 ADD PUSH1 0x40 MLOAD DUP1 SWAP2 SUB SWAP1 REVERT JUMPDEST POP POP POP JUMP JUMPDEST PUSH0 SLOAD PUSH1 0x1 PUSH1 0x1 PUSH1 0xA0 SHL SUB AND CALLER EQ PUSH2 0xC1F JUMPI PUSH1 0x40 MLOAD PUSH3 0x82B429 PUSH1 0xE8 SHL DUP2 MSTORE PUSH1 0x4 ADD PUSH1 0x40 MLOAD DUP1 SWAP2 SUB SWAP1 REVERT JUMPDEST PUSH2 0x6E9 DUP3 DUP3 PUSH2 0x1259 JUMP JUMPDEST PUSH0 SLOAD PUSH1 0x1 PUSH1 0x1 PUSH1 0xA0 SHL SUB AND CALLER EQ PUSH2 0xC52 JUMPI PUSH1 0x40 MLOAD PUSH3 0x82B429 PUSH1 0xE8 SHL DUP2 MSTORE PUSH1 0x4 ADD PUSH1 0x40 MLOAD DUP1 SWAP2 SUB SWAP1 REVERT JUMPDEST PUSH1 0x1 PUSH1 0x1 PUSH1 0xA0 SHL SUB SWAP2 SWAP1 SWAP2 AND PUSH0 SWAP1 DUP2 MSTORE PUSH1 0xC PUSH1 0x20 MSTORE PUSH1 0x40 SWAP1 KECCAK256 DUP1 SLOAD PUSH1 0xFF NOT AND SWAP2 ISZERO ISZERO SWAP2 SWAP1 SWAP2 OR SWAP1 SSTORE JUMP JUMPDEST PUSH0 DUP2 DUP2 MSTORE PUSH1 0x9 PUSH1 0x20 MSTORE PUSH1 0x40 SWAP1 KECCAK256 SLOAD PUSH1 0x1 PUSH1 0x1 PUSH1 0xA0 SHL SUB AND DUP1 PUSH2 0xCB1 JUMPI PUSH1 0x40 MLOAD PUSH4 0xC5723B51 PUSH1 0xE0 SHL DUP2 MSTORE PUSH1 0x4 ADD PUSH1 0x40 MLOAD DUP1 SWAP2 SUB SWAP1 REVERT JUMPDEST SWAP2 SWAP1 POP JUMP JUMPDEST PUSH0 PUSH2 0xCC1 PUSH0 DUP4 PUSH2 0xD5F JUMP JUMPDEST SWAP1 POP DUP1 ISZERO ISZERO PUSH1 0x1 SUB PUSH2 0x6E9 JUMPI DUP2 PUSH1 0x3 PUSH0 DUP3 DUP3 SLOAD PUSH2 0xCDE SWAP2 SWAP1 PUSH2 0x1A81 JUMP JUMPDEST SWAP1 SWAP2 SSTORE POP POP POP POP JUMP JUMPDEST PUSH1 0x2 DUP1 SLOAD PUSH2 0x469 SWAP1 PUSH2 0x1931 JUMP JUMPDEST CALLER PUSH0 DUP2 DUP2 MSTORE PUSH1 0x8 PUSH1 0x20 SWAP1 DUP2 MSTORE PUSH1 0x40 DUP1 DUP4 KECCAK256 PUSH1 0x1 PUSH1 0x1 PUSH1 0xA0 SHL SUB DUP8 AND DUP1 DUP6 MSTORE SWAP1 DUP4 MSTORE SWAP3 DUP2 SWAP1 KECCAK256 DUP1 SLOAD PUSH1 0xFF NOT AND DUP7 ISZERO ISZERO SWAP1 DUP2 OR SWAP1 SWAP2 SSTORE SWAP1 MLOAD SWAP1 DUP2 MSTORE SWAP2 SWAP3 SWAP2 PUSH32 0x17307EAB39AB6107E8899845AD3D59BD9653F200F220920489CA2B5937696C31 SWAP2 ADD PUSH1 0x40 MLOAD DUP1 SWAP2 SUB SWAP1 LOG3 POP POP JUMP JUMPDEST PUSH0 PUSH2 0xA88 CALLER DUP5 DUP5 PUSH2 0x10B4 JUMP JUMPDEST PUSH1 0x4 SLOAD DUP4 GT DUP1 PUSH2 0xD79 JUMPI POP DUP3 ISZERO JUMPDEST ISZERO PUSH2 0xD97 JUMPI PUSH1 0x40 MLOAD PUSH4 0x1BF43481 PUSH1 0xE3 SHL DUP2 MSTORE PUSH1 0x4 ADD PUSH1 0x40 MLOAD DUP1 SWAP2 SUB SWAP1 REVERT JUMPDEST PUSH2 0xDA2 DUP6 DUP6 DUP6 PUSH2 0x6ED JUMP JUMPDEST POP PUSH1 0x1 PUSH1 0x1 PUSH1 0xA0 SHL SUB DUP5 AND EXTCODESIZE ISZERO DUP1 ISZERO SWAP1 PUSH2 0xE3A JUMPI POP PUSH1 0x40 MLOAD PUSH4 0xA85BD01 PUSH1 0xE1 SHL DUP1 DUP3 MSTORE SWAP1 PUSH1 0x1 PUSH1 0x1 PUSH1 0xA0 SHL SUB DUP7 AND SWAP1 PUSH4 0x150B7A02 SWAP1 PUSH2 0xDED SWAP1 CALLER SWAP1 DUP11 SWAP1 DUP10 SWAP1 DUP10 SWAP1 DUP10 SWAP1 PUSH1 0x4 ADD PUSH2 0x1AE3 JUMP JUMPDEST PUSH1 0x20 PUSH1 0x40 MLOAD DUP1 DUP4 SUB DUP2 PUSH0 DUP8 GAS CALL ISZERO DUP1 ISZERO PUSH2 0xE09 JUMPI RETURNDATASIZE PUSH0 DUP1 RETURNDATACOPY RETURNDATASIZE PUSH0 REVERT JUMPDEST POP POP POP POP PUSH1 0x40 MLOAD RETURNDATASIZE PUSH1 0x1F NOT PUSH1 0x1F DUP3 ADD AND DUP3 ADD DUP1 PUSH1 0x40 MSTORE POP DUP2 ADD SWAP1 PUSH2 0xE2D SWAP2 SWAP1 PUSH2 0x1ABC JUMP JUMPDEST PUSH1 0x1 PUSH1 0x1 PUSH1 0xE0 SHL SUB NOT AND EQ ISZERO JUMPDEST ISZERO PUSH2 0xE58 JUMPI PUSH1 0x40 MLOAD PUSH4 0x3DA63931 PUSH1 0xE0 SHL DUP2 MSTORE PUSH1 0x4 ADD PUSH1 0x40 MLOAD DUP1 SWAP2 SUB SWAP1 REVERT JUMPDEST POP POP POP POP POP JUMP JUMPDEST PUSH1 0x60 PUSH0 PUSH1 0xE DUP1 SLOAD PUSH2 0xE6F SWAP1 PUSH2 0x1931 JUMP JUMPDEST SWAP1 POP GT ISZERO PUSH2 0xEA9 JUMPI PUSH1 0xE PUSH2 0xE82 DUP4 PUSH2 0x1272 JUMP JUMPDEST PUSH1 0x40 MLOAD PUSH1 0x20 ADD PUSH2 0xE93 SWAP3 SWAP2 SWAP1 PUSH2 0x1BA4 JUMP JUMPDEST PUSH1 0x40 MLOAD PUSH1 0x20 DUP2 DUP4 SUB SUB DUP2 MSTORE SWAP1 PUSH1 0x40 MSTORE SWAP1 POP SWAP2 SWAP1 POP JUMP JUMPDEST PUSH1 0x60 PUSH0 DUP4 PUSH1 0x40 MLOAD PUSH1 0x20 ADD PUSH2 0xEBF SWAP2 DUP2 MSTORE PUSH1 0x20 ADD SWAP1 JUMP JUMPDEST PUSH1 0x40 MLOAD PUSH1 0x20 DUP2 DUP4 SUB SUB DUP2 MSTORE SWAP1 PUSH1 0x40 MSTORE DUP1 MLOAD SWAP1 PUSH1 0x20 ADD KECCAK256 PUSH1 0xF8 SHR SWAP1 POP PUSH1 0x64 DUP2 PUSH1 0xFF AND GT PUSH2 0xF0D JUMPI PUSH1 0xD PUSH1 0x40 MLOAD PUSH1 0x20 ADD PUSH2 0xEF7 SWAP2 SWAP1 PUSH2 0x1BC8 JUMP JUMPDEST PUSH1 0x40 MLOAD PUSH1 0x20 DUP2 DUP4 SUB SUB DUP2 MSTORE SWAP1 PUSH1 0x40 MSTORE SWAP2 POP PUSH2 0xF93 JUMP JUMPDEST PUSH1 0xA0 DUP2 PUSH1 0xFF AND GT PUSH2 0xF2A JUMPI PUSH1 0xD PUSH1 0x40 MLOAD PUSH1 0x20 ADD PUSH2 0xEF7 SWAP2 SWAP1 PUSH2 0x1BE9 JUMP JUMPDEST PUSH1 0xD2 DUP2 PUSH1 0xFF AND GT PUSH2 0xF47 JUMPI PUSH1 0xD PUSH1 0x40 MLOAD PUSH1 0x20 ADD PUSH2 0xEF7 SWAP2 SWAP1 PUSH2 0x1C0A JUMP JUMPDEST PUSH1 0xF0 DUP2 PUSH1 0xFF AND GT PUSH2 0xF64 JUMPI PUSH1 0xD PUSH1 0x40 MLOAD PUSH1 0x20 ADD PUSH2 0xEF7 SWAP2 SWAP1 PUSH2 0x1C2B JUMP JUMPDEST PUSH1 0xFF DUP2 PUSH1 0xFF AND GT PUSH2 0xF93 JUMPI PUSH1 0xD PUSH1 0x40 MLOAD PUSH1 0x20 ADD PUSH2 0xF81 SWAP2 SWAP1 PUSH2 0x1C4C JUMP JUMPDEST PUSH1 0x40 MLOAD PUSH1 0x20 DUP2 DUP4 SUB SUB DUP2 MSTORE SWAP1 PUSH1 0x40 MSTORE SWAP2 POP JUMPDEST POP SWAP3 SWAP2 POP POP JUMP JUMPDEST PUSH1 0xE DUP1 SLOAD PUSH2 0x469 SWAP1 PUSH2 0x1931 JUMP JUMPDEST PUSH0 SLOAD PUSH1 0x1 PUSH1 0x1 PUSH1 0xA0 SHL SUB AND CALLER EQ PUSH2 0xFD0 JUMPI PUSH1 0x40 MLOAD PUSH3 0x82B429 PUSH1 0xE8 SHL DUP2 MSTORE PUSH1 0x4 ADD PUSH1 0x40 MLOAD DUP1 SWAP2 SUB SWAP1 REVERT JUMPDEST PUSH1 0xE PUSH2 0x6E9 DUP3 DUP3 PUSH2 0x19AD JUMP JUMPDEST PUSH1 0xD DUP1 SLOAD PUSH2 0x469 SWAP1 PUSH2 0x1931 JUMP JUMPDEST PUSH0 SLOAD PUSH1 0x1 PUSH1 0x1 PUSH1 0xA0 SHL SUB AND CALLER EQ PUSH2 0x1012 JUMPI PUSH1 0x40 MLOAD PUSH3 0x82B429 PUSH1 0xE8 SHL DUP2 MSTORE PUSH1 0x4 ADD PUSH1 0x40 MLOAD DUP1 SWAP2 SUB SWAP1 REVERT JUMPDEST PUSH1 0x1 PUSH1 0x1 PUSH1 0xA0 SHL SUB DUP2 AND PUSH2 0x1039 JUMPI PUSH1 0x40 MLOAD PUSH4 0x49E27CFF PUSH1 0xE0 SHL DUP2 MSTORE PUSH1 0x4 ADD PUSH1 0x40 MLOAD DUP1 SWAP2 SUB SWAP1 REVERT JUMPDEST PUSH0 DUP1 SLOAD PUSH1 0x1 PUSH1 0x1 PUSH1 0xA0 SHL SUB NOT AND PUSH1 0x1 PUSH1 0x1 PUSH1 0xA0 SHL SUB DUP4 AND SWAP1 DUP2 OR DUP3 SSTORE PUSH1 0x40 MLOAD SWAP1 SWAP2 CALLER SWAP2 PUSH32 0x8BE0079C531659141344CD1FD0A4F28419497F9722A3DAAFE3B4186F6B6457E0 SWAP2 SWAP1 LOG3 POP JUMP JUMPDEST PUSH0 PUSH2 0x10AF PUSH32 0x0 PUSH1 0xA PUSH2 0x1D4D JUMP JUMPDEST SWAP1 POP SWAP1 JUMP JUMPDEST PUSH0 DUP1 PUSH2 0x10BE PUSH2 0x1083 JUMP JUMPDEST PUSH1 0x1 PUSH1 0x1 PUSH1 0xA0 SHL SUB DUP1 DUP8 AND PUSH0 DUP2 DUP2 MSTORE PUSH1 0x5 PUSH1 0x20 MSTORE PUSH1 0x40 DUP1 DUP3 KECCAK256 DUP1 SLOAD SWAP5 DUP11 AND DUP4 MSTORE SWAP1 DUP3 KECCAK256 SLOAD SWAP3 DUP3 MSTORE SWAP4 SWAP5 POP SWAP2 SWAP3 SWAP1 SWAP2 DUP7 SWAP2 SWAP1 PUSH2 0x10F9 DUP4 DUP7 PUSH2 0x1A81 JUMP JUMPDEST SWAP1 SWAP2 SSTORE POP POP PUSH1 0x1 PUSH1 0x1 PUSH1 0xA0 SHL SUB DUP1 DUP8 AND PUSH0 SWAP1 DUP2 MSTORE PUSH1 0x5 PUSH1 0x20 SWAP1 DUP2 MSTORE PUSH1 0x40 DUP1 DUP4 KECCAK256 DUP1 SLOAD DUP11 ADD SWAP1 SSTORE SWAP3 DUP11 AND DUP3 MSTORE PUSH1 0xC SWAP1 MSTORE KECCAK256 SLOAD PUSH1 0xFF AND PUSH2 0x1188 JUMPI PUSH1 0x1 PUSH1 0x1 PUSH1 0xA0 SHL SUB DUP8 AND PUSH0 SWAP1 DUP2 MSTORE PUSH1 0x5 PUSH1 0x20 MSTORE PUSH1 0x40 DUP2 KECCAK256 SLOAD PUSH2 0x1154 SWAP1 DUP6 SWAP1 PUSH2 0x1D5B JUMP JUMPDEST PUSH2 0x115E DUP6 DUP6 PUSH2 0x1D5B JUMP JUMPDEST PUSH2 0x1168 SWAP2 SWAP1 PUSH2 0x1A81 JUMP JUMPDEST SWAP1 POP PUSH0 JUMPDEST DUP2 DUP2 LT ISZERO PUSH2 0x1185 JUMPI PUSH2 0x117D DUP10 PUSH2 0x1302 JUMP JUMPDEST PUSH1 0x1 ADD PUSH2 0x116C JUMP JUMPDEST POP POP JUMPDEST PUSH1 0x1 PUSH1 0x1 PUSH1 0xA0 SHL SUB DUP7 AND PUSH0 SWAP1 DUP2 MSTORE PUSH1 0xC PUSH1 0x20 MSTORE PUSH1 0x40 SWAP1 KECCAK256 SLOAD PUSH1 0xFF AND PUSH2 0x11FF JUMPI PUSH0 PUSH2 0x11B2 DUP5 DUP4 PUSH2 0x1D5B JUMP JUMPDEST PUSH1 0x1 PUSH1 0x1 PUSH1 0xA0 SHL SUB DUP9 AND PUSH0 SWAP1 DUP2 MSTORE PUSH1 0x5 PUSH1 0x20 MSTORE PUSH1 0x40 SWAP1 KECCAK256 SLOAD PUSH2 0x11D5 SWAP1 DUP7 SWAP1 PUSH2 0x1D5B JUMP JUMPDEST PUSH2 0x11DF SWAP2 SWAP1 PUSH2 0x1A81 JUMP JUMPDEST SWAP1 POP PUSH0 JUMPDEST DUP2 DUP2 LT ISZERO PUSH2 0x11FC JUMPI PUSH2 0x11F4 DUP9 PUSH2 0x1423 JUMP JUMPDEST PUSH1 0x1 ADD PUSH2 0x11E3 JUMP JUMPDEST POP POP JUMPDEST DUP6 PUSH1 0x1 PUSH1 0x1 PUSH1 0xA0 SHL SUB AND DUP8 PUSH1 0x1 PUSH1 0x1 PUSH1 0xA0 SHL SUB AND PUSH32 0xE59FDD36D0D223C0C7D996DB7AD796880F45E1936CB0BB7AC102E7082E031487 DUP8 PUSH1 0x40 MLOAD PUSH2 0x1244 SWAP2 DUP2 MSTORE PUSH1 0x20 ADD SWAP1 JUMP JUMPDEST PUSH1 0x40 MLOAD DUP1 SWAP2 SUB SWAP1 LOG3 POP PUSH1 0x1 SWAP7 SWAP6 POP POP POP POP POP POP JUMP JUMPDEST PUSH1 0x1 PUSH2 0x1265 DUP4 DUP3 PUSH2 0x19AD JUMP JUMPDEST POP PUSH1 0x2 PUSH2 0xBF1 DUP3 DUP3 PUSH2 0x19AD JUMP JUMPDEST PUSH1 0x60 PUSH0 PUSH2 0x127E DUP4 PUSH2 0x152B JUMP JUMPDEST PUSH1 0x1 ADD SWAP1 POP PUSH0 DUP2 PUSH8 0xFFFFFFFFFFFFFFFF DUP2 GT ISZERO PUSH2 0x129D JUMPI PUSH2 0x129D PUSH2 0x16AB JUMP JUMPDEST PUSH1 0x40 MLOAD SWAP1 DUP1 DUP3 MSTORE DUP1 PUSH1 0x1F ADD PUSH1 0x1F NOT AND PUSH1 0x20 ADD DUP3 ADD PUSH1 0x40 MSTORE DUP1 ISZERO PUSH2 0x12C7 JUMPI PUSH1 0x20 DUP3 ADD DUP2 DUP1 CALLDATASIZE DUP4 CALLDATACOPY ADD SWAP1 POP JUMPDEST POP SWAP1 POP DUP2 DUP2 ADD PUSH1 0x20 ADD JUMPDEST PUSH0 NOT ADD PUSH16 0x181899199A1A9B1B9C1CB0B131B232B3 PUSH1 0x81 SHL PUSH1 0xA DUP7 MOD BYTE DUP2 MSTORE8 PUSH1 0xA DUP6 DIV SWAP5 POP DUP5 PUSH2 0x12D1 JUMPI POP SWAP4 SWAP3 POP POP POP JUMP JUMPDEST PUSH1 0x1 PUSH1 0x1 PUSH1 0xA0 SHL SUB DUP2 AND PUSH2 0x1329 JUMPI PUSH1 0x40 MLOAD PUSH4 0x6EDAEF2F PUSH1 0xE1 SHL DUP2 MSTORE PUSH1 0x4 ADD PUSH1 0x40 MLOAD DUP1 SWAP2 SUB SWAP1 REVERT JUMPDEST PUSH1 0x1 PUSH1 0x1 PUSH1 0xA0 SHL SUB DUP2 AND PUSH0 SWAP1 DUP2 MSTORE PUSH1 0xA PUSH1 0x20 MSTORE PUSH1 0x40 DUP2 KECCAK256 DUP1 SLOAD PUSH2 0x134E SWAP1 PUSH1 0x1 SWAP1 PUSH2 0x1A81 JUMP JUMPDEST DUP2 SLOAD DUP2 LT PUSH2 0x135E JUMPI PUSH2 0x135E PUSH2 0x1A94 JUMP JUMPDEST SWAP1 PUSH0 MSTORE PUSH1 0x20 PUSH0 KECCAK256 ADD SLOAD SWAP1 POP PUSH1 0xA PUSH0 DUP4 PUSH1 0x1 PUSH1 0x1 PUSH1 0xA0 SHL SUB AND PUSH1 0x1 PUSH1 0x1 PUSH1 0xA0 SHL SUB AND DUP2 MSTORE PUSH1 0x20 ADD SWAP1 DUP2 MSTORE PUSH1 0x20 ADD PUSH0 KECCAK256 DUP1 SLOAD DUP1 PUSH2 0x139B JUMPI PUSH2 0x139B PUSH2 0x1AA8 JUMP JUMPDEST PUSH0 DUP3 DUP2 MSTORE PUSH1 0x20 DUP1 DUP3 KECCAK256 DUP4 ADD PUSH0 NOT SWAP1 DUP2 ADD DUP4 SWAP1 SSTORE SWAP1 SWAP3 ADD SWAP1 SWAP3 SSTORE DUP3 DUP3 MSTORE PUSH1 0xB DUP2 MSTORE PUSH1 0x40 DUP1 DUP4 KECCAK256 DUP4 SWAP1 SSTORE PUSH1 0x9 DUP3 MSTORE DUP1 DUP4 KECCAK256 DUP1 SLOAD PUSH1 0x1 PUSH1 0x1 PUSH1 0xA0 SHL SUB NOT SWAP1 DUP2 AND SWAP1 SWAP2 SSTORE PUSH1 0x7 SWAP1 SWAP3 MSTORE DUP1 DUP4 KECCAK256 DUP1 SLOAD SWAP1 SWAP3 AND SWAP1 SWAP2 SSTORE MLOAD DUP3 SWAP2 SWAP1 PUSH1 0x1 PUSH1 0x1 PUSH1 0xA0 SHL SUB DUP6 AND SWAP1 PUSH32 0xDDF252AD1BE2C89B69C2B068FC378DAA952BA7F163C4A11628F55A4DF523B3EF SWAP1 DUP4 SWAP1 LOG4 POP POP JUMP JUMPDEST PUSH1 0x1 PUSH1 0x1 PUSH1 0xA0 SHL SUB DUP2 AND PUSH2 0x144A JUMPI PUSH1 0x40 MLOAD PUSH4 0x4E469669 PUSH1 0xE1 SHL DUP2 MSTORE PUSH1 0x4 ADD PUSH1 0x40 MLOAD DUP1 SWAP2 SUB SWAP1 REVERT JUMPDEST PUSH1 0x4 DUP1 SLOAD PUSH1 0x1 ADD SWAP1 DUP2 SWAP1 SSTORE PUSH0 DUP2 DUP2 MSTORE PUSH1 0x9 PUSH1 0x20 MSTORE PUSH1 0x40 SWAP1 KECCAK256 SLOAD PUSH1 0x1 PUSH1 0x1 PUSH1 0xA0 SHL SUB AND ISZERO PUSH2 0x148A JUMPI PUSH1 0x40 MLOAD PUSH4 0x119B4FD3 PUSH1 0xE1 SHL DUP2 MSTORE PUSH1 0x4 ADD PUSH1 0x40 MLOAD DUP1 SWAP2 SUB SWAP1 REVERT JUMPDEST PUSH0 DUP2 DUP2 MSTORE PUSH1 0x9 PUSH1 0x20 SWAP1 DUP2 MSTORE PUSH1 0x40 DUP1 DUP4 KECCAK256 DUP1 SLOAD PUSH1 0x1 PUSH1 0x1 PUSH1 0xA0 SHL SUB NOT AND PUSH1 0x1 PUSH1 0x1 PUSH1 0xA0 SHL SUB DUP8 AND SWAP1 DUP2 OR SWAP1 SWAP2 SSTORE DUP1 DUP5 MSTORE PUSH1 0xA DUP4 MSTORE SWAP1 DUP4 KECCAK256 DUP1 SLOAD PUSH1 0x1 DUP2 DUP2 ADD DUP4 SSTORE DUP3 DUP7 MSTORE SWAP4 DUP6 KECCAK256 ADD DUP6 SWAP1 SSTORE SWAP3 MSTORE SWAP1 SLOAD PUSH2 0x14E1 SWAP2 SWAP1 PUSH2 0x1A81 JUMP JUMPDEST PUSH0 DUP3 DUP2 MSTORE PUSH1 0xB PUSH1 0x20 MSTORE PUSH1 0x40 DUP1 DUP3 KECCAK256 SWAP3 SWAP1 SWAP3 SSTORE SWAP1 MLOAD DUP3 SWAP2 PUSH1 0x1 PUSH1 0x1 PUSH1 0xA0 SHL SUB DUP6 AND SWAP2 PUSH32 0xDDF252AD1BE2C89B69C2B068FC378DAA952BA7F163C4A11628F55A4DF523B3EF SWAP1 DUP3 SWAP1 LOG4 POP POP JUMP JUMPDEST PUSH0 DUP1 PUSH19 0x184F03E93FF9F4DAA797ED6E38ED64BF6A1F01 PUSH1 0x40 SHL DUP4 LT PUSH2 0x1569 JUMPI PUSH19 0x184F03E93FF9F4DAA797ED6E38ED64BF6A1F01 PUSH1 0x40 SHL DUP4 DIV SWAP3 POP PUSH1 0x40 ADD JUMPDEST PUSH14 0x4EE2D6D415B85ACEF8100000000 DUP4 LT PUSH2 0x1595 JUMPI PUSH14 0x4EE2D6D415B85ACEF8100000000 DUP4 DIV SWAP3 POP PUSH1 0x20 ADD JUMPDEST PUSH7 0x2386F26FC10000 DUP4 LT PUSH2 0x15B3 JUMPI PUSH7 0x2386F26FC10000 DUP4 DIV SWAP3 POP PUSH1 0x10 ADD JUMPDEST PUSH4 0x5F5E100 DUP4 LT PUSH2 0x15CB JUMPI PUSH4 0x5F5E100 DUP4 DIV SWAP3 POP PUSH1 0x8 ADD JUMPDEST PUSH2 0x2710 DUP4 LT PUSH2 0x15DF JUMPI PUSH2 0x2710 DUP4 DIV SWAP3 POP PUSH1 0x4 ADD JUMPDEST PUSH1 0x64 DUP4 LT PUSH2 0x15F1 JUMPI PUSH1 0x64 DUP4 DIV SWAP3 POP PUSH1 0x2 ADD JUMPDEST PUSH1 0xA DUP4 LT PUSH2 0x6AE JUMPI PUSH1 0x1 ADD SWAP3 SWAP2 POP POP JUMP JUMPDEST PUSH0 JUMPDEST DUP4 DUP2 LT ISZERO PUSH2 0x161C JUMPI DUP2 DUP2 ADD MLOAD DUP4 DUP3 ADD MSTORE PUSH1 0x20 ADD PUSH2 0x1604 JUMP JUMPDEST POP POP PUSH0 SWAP2 ADD MSTORE JUMP JUMPDEST PUSH1 0x20 DUP2 MSTORE PUSH0 DUP3 MLOAD DUP1 PUSH1 0x20 DUP5 ADD MSTORE PUSH2 0x1642 DUP2 PUSH1 0x40 DUP6 ADD PUSH1 0x20 DUP8 ADD PUSH2 0x1602 JUMP JUMPDEST PUSH1 0x1F ADD PUSH1 0x1F NOT AND SWAP2 SWAP1 SWAP2 ADD PUSH1 0x40 ADD SWAP3 SWAP2 POP POP JUMP JUMPDEST PUSH0 PUSH1 0x20 DUP3 DUP5 SUB SLT ISZERO PUSH2 0x1666 JUMPI PUSH0 DUP1 REVERT JUMPDEST POP CALLDATALOAD SWAP2 SWAP1 POP JUMP JUMPDEST DUP1 CALLDATALOAD PUSH1 0x1 PUSH1 0x1 PUSH1 0xA0 SHL SUB DUP2 AND DUP2 EQ PUSH2 0xCB1 JUMPI PUSH0 DUP1 REVERT JUMPDEST PUSH0 DUP1 PUSH1 0x40 DUP4 DUP6 SUB SLT ISZERO PUSH2 0x1694 JUMPI PUSH0 DUP1 REVERT JUMPDEST PUSH2 0x169D DUP4 PUSH2 0x166D JUMP JUMPDEST SWAP5 PUSH1 0x20 SWAP4 SWAP1 SWAP4 ADD CALLDATALOAD SWAP4 POP POP POP JUMP JUMPDEST PUSH4 0x4E487B71 PUSH1 0xE0 SHL PUSH0 MSTORE PUSH1 0x41 PUSH1 0x4 MSTORE PUSH1 0x24 PUSH0 REVERT JUMPDEST PUSH0 DUP3 PUSH1 0x1F DUP4 ADD SLT PUSH2 0x16CE JUMPI PUSH0 DUP1 REVERT JUMPDEST DUP2 CALLDATALOAD PUSH8 0xFFFFFFFFFFFFFFFF DUP1 DUP3 GT ISZERO PUSH2 0x16E9 JUMPI PUSH2 0x16E9 PUSH2 0x16AB JUMP JUMPDEST PUSH1 0x40 MLOAD PUSH1 0x1F DUP4 ADD PUSH1 0x1F NOT SWAP1 DUP2 AND PUSH1 0x3F ADD AND DUP2 ADD SWAP1 DUP3 DUP3 GT DUP2 DUP4 LT OR ISZERO PUSH2 0x1711 JUMPI PUSH2 0x1711 PUSH2 0x16AB JUMP JUMPDEST DUP2 PUSH1 0x40 MSTORE DUP4 DUP2 MSTORE DUP7 PUSH1 0x20 DUP6 DUP9 ADD ADD GT ISZERO PUSH2 0x1729 JUMPI PUSH0 DUP1 REVERT JUMPDEST DUP4 PUSH1 0x20 DUP8 ADD PUSH1 0x20 DUP4 ADD CALLDATACOPY PUSH0 PUSH1 0x20 DUP6 DUP4 ADD ADD MSTORE DUP1 SWAP5 POP POP POP POP POP SWAP3 SWAP2 POP POP JUMP JUMPDEST PUSH0 PUSH1 0x20 DUP3 DUP5 SUB SLT ISZERO PUSH2 0x1758 JUMPI PUSH0 DUP1 REVERT JUMPDEST DUP2 CALLDATALOAD PUSH8 0xFFFFFFFFFFFFFFFF DUP2 GT ISZERO PUSH2 0x176E JUMPI PUSH0 DUP1 REVERT JUMPDEST PUSH2 0x177A DUP5 DUP3 DUP6 ADD PUSH2 0x16BF JUMP JUMPDEST SWAP5 SWAP4 POP POP POP POP JUMP JUMPDEST PUSH0 DUP1 PUSH0 PUSH1 0x60 DUP5 DUP7 SUB SLT ISZERO PUSH2 0x1794 JUMPI PUSH0 DUP1 REVERT JUMPDEST PUSH2 0x179D DUP5 PUSH2 0x166D JUMP JUMPDEST SWAP3 POP PUSH2 0x17AB PUSH1 0x20 DUP6 ADD PUSH2 0x166D JUMP JUMPDEST SWAP2 POP PUSH1 0x40 DUP5 ADD CALLDATALOAD SWAP1 POP SWAP3 POP SWAP3 POP SWAP3 JUMP JUMPDEST PUSH0 DUP1 PUSH1 0x40 DUP4 DUP6 SUB SLT ISZERO PUSH2 0x17CC JUMPI PUSH0 DUP1 REVERT JUMPDEST DUP3 CALLDATALOAD PUSH8 0xFFFFFFFFFFFFFFFF DUP1 DUP3 GT ISZERO PUSH2 0x17E3 JUMPI PUSH0 DUP1 REVERT JUMPDEST PUSH2 0x17EF DUP7 DUP4 DUP8 ADD PUSH2 0x16BF JUMP JUMPDEST SWAP4 POP PUSH1 0x20 DUP6 ADD CALLDATALOAD SWAP2 POP DUP1 DUP3 GT ISZERO PUSH2 0x1804 JUMPI PUSH0 DUP1 REVERT JUMPDEST POP PUSH2 0x1811 DUP6 DUP3 DUP7 ADD PUSH2 0x16BF JUMP JUMPDEST SWAP2 POP POP SWAP3 POP SWAP3 SWAP1 POP JUMP JUMPDEST PUSH0 DUP1 PUSH1 0x40 DUP4 DUP6 SUB SLT ISZERO PUSH2 0x182C JUMPI PUSH0 DUP1 REVERT JUMPDEST PUSH2 0x1835 DUP4 PUSH2 0x166D JUMP JUMPDEST SWAP2 POP PUSH1 0x20 DUP4 ADD CALLDATALOAD DUP1 ISZERO ISZERO DUP2 EQ PUSH2 0x1849 JUMPI PUSH0 DUP1 REVERT JUMPDEST DUP1 SWAP2 POP POP SWAP3 POP SWAP3 SWAP1 POP JUMP JUMPDEST PUSH0 PUSH1 0x20 DUP3 DUP5 SUB SLT ISZERO PUSH2 0x1864 JUMPI PUSH0 DUP1 REVERT JUMPDEST PUSH2 0xA88 DUP3 PUSH2 0x166D JUMP JUMPDEST PUSH0 DUP1 PUSH0 DUP1 PUSH0 PUSH1 0x80 DUP7 DUP9 SUB SLT ISZERO PUSH2 0x1881 JUMPI PUSH0 DUP1 REVERT JUMPDEST PUSH2 0x188A DUP7 PUSH2 0x166D JUMP JUMPDEST SWAP5 POP PUSH2 0x1898 PUSH1 0x20 DUP8 ADD PUSH2 0x166D JUMP JUMPDEST SWAP4 POP PUSH1 0x40 DUP7 ADD CALLDATALOAD SWAP3 POP PUSH1 0x60 DUP7 ADD CALLDATALOAD PUSH8 0xFFFFFFFFFFFFFFFF DUP1 DUP3 GT ISZERO PUSH2 0x18BB JUMPI PUSH0 DUP1 REVERT JUMPDEST DUP2 DUP9 ADD SWAP2 POP DUP9 PUSH1 0x1F DUP4 ADD SLT PUSH2 0x18CE JUMPI PUSH0 DUP1 REVERT JUMPDEST DUP2 CALLDATALOAD DUP2 DUP2 GT ISZERO PUSH2 0x18DC JUMPI PUSH0 DUP1 REVERT JUMPDEST DUP10 PUSH1 0x20 DUP3 DUP6 ADD ADD GT ISZERO PUSH2 0x18ED JUMPI PUSH0 DUP1 REVERT JUMPDEST SWAP7 SWAP10 SWAP6 SWAP9 POP SWAP4 SWAP7 POP PUSH1 0x20 ADD SWAP5 SWAP4 SWAP3 POP POP POP JUMP JUMPDEST PUSH0 DUP1 PUSH1 0x40 DUP4 DUP6 SUB SLT ISZERO PUSH2 0x1911 JUMPI PUSH0 DUP1 REVERT JUMPDEST PUSH2 0x191A DUP4 PUSH2 0x166D JUMP JUMPDEST SWAP2 POP PUSH2 0x1928 PUSH1 0x20 DUP5 ADD PUSH2 0x166D JUMP JUMPDEST SWAP1 POP SWAP3 POP SWAP3 SWAP1 POP JUMP JUMPDEST PUSH1 0x1 DUP2 DUP2 SHR SWAP1 DUP3 AND DUP1 PUSH2 0x1945 JUMPI PUSH1 0x7F DUP3 AND SWAP2 POP JUMPDEST PUSH1 0x20 DUP3 LT DUP2 SUB PUSH2 0x1963 JUMPI PUSH4 0x4E487B71 PUSH1 0xE0 SHL PUSH0 MSTORE PUSH1 0x22 PUSH1 0x4 MSTORE PUSH1 0x24 PUSH0 REVERT JUMPDEST POP SWAP2 SWAP1 POP JUMP JUMPDEST PUSH1 0x1F DUP3 GT ISZERO PUSH2 0xBF1 JUMPI DUP1 PUSH0 MSTORE PUSH1 0x20 PUSH0 KECCAK256 PUSH1 0x1F DUP5 ADD PUSH1 0x5 SHR DUP2 ADD PUSH1 0x20 DUP6 LT ISZERO PUSH2 0x198E JUMPI POP DUP1 JUMPDEST PUSH1 0x1F DUP5 ADD PUSH1 0x5 SHR DUP3 ADD SWAP2 POP JUMPDEST DUP2 DUP2 LT ISZERO PUSH2 0xE58 JUMPI PUSH0 DUP2 SSTORE PUSH1 0x1 ADD PUSH2 0x199A JUMP JUMPDEST DUP2 MLOAD PUSH8 0xFFFFFFFFFFFFFFFF DUP2 GT ISZERO PUSH2 0x19C7 JUMPI PUSH2 0x19C7 PUSH2 0x16AB JUMP JUMPDEST PUSH2 0x19DB DUP2 PUSH2 0x19D5 DUP5 SLOAD PUSH2 0x1931 JUMP JUMPDEST DUP5 PUSH2 0x1969 JUMP JUMPDEST PUSH1 0x20 DUP1 PUSH1 0x1F DUP4 GT PUSH1 0x1 DUP2 EQ PUSH2 0x1A0E JUMPI PUSH0 DUP5 ISZERO PUSH2 0x19F7 JUMPI POP DUP6 DUP4 ADD MLOAD JUMPDEST PUSH0 NOT PUSH1 0x3 DUP7 SWAP1 SHL SHR NOT AND PUSH1 0x1 DUP6 SWAP1 SHL OR DUP6 SSTORE PUSH2 0x1A65 JUMP JUMPDEST PUSH0 DUP6 DUP2 MSTORE PUSH1 0x20 DUP2 KECCAK256 PUSH1 0x1F NOT DUP7 AND SWAP2 JUMPDEST DUP3 DUP2 LT ISZERO PUSH2 0x1A3C JUMPI DUP9 DUP7 ADD MLOAD DUP3 SSTORE SWAP5 DUP5 ADD SWAP5 PUSH1 0x1 SWAP1 SWAP2 ADD SWAP1 DUP5 ADD PUSH2 0x1A1D JUMP JUMPDEST POP DUP6 DUP3 LT ISZERO PUSH2 0x1A59 JUMPI DUP8 DUP6 ADD MLOAD PUSH0 NOT PUSH1 0x3 DUP9 SWAP1 SHL PUSH1 0xF8 AND SHR NOT AND DUP2 SSTORE JUMPDEST POP POP PUSH1 0x1 DUP5 PUSH1 0x1 SHL ADD DUP6 SSTORE JUMPDEST POP POP POP POP POP POP JUMP JUMPDEST PUSH4 0x4E487B71 PUSH1 0xE0 SHL PUSH0 MSTORE PUSH1 0x11 PUSH1 0x4 MSTORE PUSH1 0x24 PUSH0 REVERT JUMPDEST DUP2 DUP2 SUB DUP2 DUP2 GT ISZERO PUSH2 0x6AE JUMPI PUSH2 0x6AE PUSH2 0x1A6D JUMP JUMPDEST PUSH4 0x4E487B71 PUSH1 0xE0 SHL PUSH0 MSTORE PUSH1 0x32 PUSH1 0x4 MSTORE PUSH1 0x24 PUSH0 REVERT JUMPDEST PUSH4 0x4E487B71 PUSH1 0xE0 SHL PUSH0 MSTORE PUSH1 0x31 PUSH1 0x4 MSTORE PUSH1 0x24 PUSH0 REVERT JUMPDEST PUSH0 PUSH1 0x20 DUP3 DUP5 SUB SLT ISZERO PUSH2 0x1ACC JUMPI PUSH0 DUP1 REVERT JUMPDEST DUP2 MLOAD PUSH1 0x1 PUSH1 0x1 PUSH1 0xE0 SHL SUB NOT DUP2 AND DUP2 EQ PUSH2 0xA88 JUMPI PUSH0 DUP1 REVERT JUMPDEST PUSH1 0x1 PUSH1 0x1 PUSH1 0xA0 SHL SUB DUP7 DUP2 AND DUP3 MSTORE DUP6 AND PUSH1 0x20 DUP3 ADD MSTORE PUSH1 0x40 DUP2 ADD DUP5 SWAP1 MSTORE PUSH1 0x80 PUSH1 0x60 DUP3 ADD DUP2 SWAP1 MSTORE DUP2 ADD DUP3 SWAP1 MSTORE PUSH0 DUP3 DUP5 PUSH1 0xA0 DUP5 ADD CALLDATACOPY PUSH0 PUSH1 0xA0 DUP5 DUP5 ADD ADD MSTORE PUSH1 0xA0 PUSH1 0x1F NOT PUSH1 0x1F DUP6 ADD AND DUP4 ADD ADD SWAP1 POP SWAP7 SWAP6 POP POP POP POP POP POP JUMP JUMPDEST PUSH0 DUP2 SLOAD PUSH2 0x1B41 DUP2 PUSH2 0x1931 JUMP JUMPDEST PUSH1 0x1 DUP3 DUP2 AND DUP1 ISZERO PUSH2 0x1B59 JUMPI PUSH1 0x1 DUP2 EQ PUSH2 0x1B6E JUMPI PUSH2 0x1B9A JUMP JUMPDEST PUSH1 0xFF NOT DUP5 AND DUP8 MSTORE DUP3 ISZERO ISZERO DUP4 MUL DUP8 ADD SWAP5 POP PUSH2 0x1B9A JUMP JUMPDEST DUP6 PUSH0 MSTORE PUSH1 0x20 DUP1 PUSH0 KECCAK256 PUSH0 JUMPDEST DUP6 DUP2 LT ISZERO PUSH2 0x1B91 JUMPI DUP2 SLOAD DUP11 DUP3 ADD MSTORE SWAP1 DUP5 ADD SWAP1 DUP3 ADD PUSH2 0x1B78 JUMP JUMPDEST POP POP POP DUP3 DUP8 ADD SWAP5 POP JUMPDEST POP POP POP POP SWAP3 SWAP2 POP POP JUMP JUMPDEST PUSH0 PUSH2 0x1BAF DUP3 DUP6 PUSH2 0x1B35 JUMP JUMPDEST DUP4 MLOAD PUSH2 0x1BBF DUP2 DUP4 PUSH1 0x20 DUP9 ADD PUSH2 0x1602 JUMP JUMPDEST ADD SWAP5 SWAP4 POP POP POP POP JUMP JUMPDEST PUSH0 PUSH2 0x1BD3 DUP3 DUP5 PUSH2 0x1B35 JUMP JUMPDEST PUSH6 0x18973539B7B7 PUSH1 0xD1 SHL DUP2 MSTORE PUSH1 0x6 ADD SWAP4 SWAP3 POP POP POP JUMP JUMPDEST PUSH0 PUSH2 0x1BF4 DUP3 DUP5 PUSH2 0x1B35 JUMP JUMPDEST PUSH6 0x19173539B7B7 PUSH1 0xD1 SHL DUP2 MSTORE PUSH1 0x6 ADD SWAP4 SWAP3 POP POP POP JUMP JUMPDEST PUSH0 PUSH2 0x1C15 DUP3 DUP5 PUSH2 0x1B35 JUMP JUMPDEST PUSH6 0x19973539B7B7 PUSH1 0xD1 SHL DUP2 MSTORE PUSH1 0x6 ADD SWAP4 SWAP3 POP POP POP JUMP JUMPDEST PUSH0 PUSH2 0x1C36 DUP3 DUP5 PUSH2 0x1B35 JUMP JUMPDEST PUSH6 0x1A173539B7B7 PUSH1 0xD1 SHL DUP2 MSTORE PUSH1 0x6 ADD SWAP4 SWAP3 POP POP POP JUMP JUMPDEST PUSH0 PUSH2 0x1C57 DUP3 DUP5 PUSH2 0x1B35 JUMP JUMPDEST PUSH6 0x1A973539B7B7 PUSH1 0xD1 SHL DUP2 MSTORE PUSH1 0x6 ADD SWAP4 SWAP3 POP POP POP JUMP JUMPDEST PUSH1 0x1 DUP2 DUP2 JUMPDEST DUP1 DUP6 GT ISZERO PUSH2 0x1CA7 JUMPI DUP2 PUSH0 NOT DIV DUP3 GT ISZERO PUSH2 0x1C8D JUMPI PUSH2 0x1C8D PUSH2 0x1A6D JUMP JUMPDEST DUP1 DUP6 AND ISZERO PUSH2 0x1C9A JUMPI SWAP2 DUP2 MUL SWAP2 JUMPDEST SWAP4 DUP5 SHR SWAP4 SWAP1 DUP1 MUL SWAP1 PUSH2 0x1C72 JUMP JUMPDEST POP SWAP3 POP SWAP3 SWAP1 POP JUMP JUMPDEST PUSH0 DUP3 PUSH2 0x1CBD JUMPI POP PUSH1 0x1 PUSH2 0x6AE JUMP JUMPDEST DUP2 PUSH2 0x1CC9 JUMPI POP PUSH0 PUSH2 0x6AE JUMP JUMPDEST DUP2 PUSH1 0x1 DUP2 EQ PUSH2 0x1CDF JUMPI PUSH1 0x2 DUP2 EQ PUSH2 0x1CE9 JUMPI PUSH2 0x1D05 JUMP JUMPDEST PUSH1 0x1 SWAP2 POP POP PUSH2 0x6AE JUMP JUMPDEST PUSH1 0xFF DUP5 GT ISZERO PUSH2 0x1CFA JUMPI PUSH2 0x1CFA PUSH2 0x1A6D JUMP JUMPDEST POP POP PUSH1 0x1 DUP3 SHL PUSH2 0x6AE JUMP JUMPDEST POP PUSH1 0x20 DUP4 LT PUSH2 0x133 DUP4 LT AND PUSH1 0x4E DUP5 LT PUSH1 0xB DUP5 LT AND OR ISZERO PUSH2 0x1D28 JUMPI POP DUP2 DUP2 EXP PUSH2 0x6AE JUMP JUMPDEST PUSH2 0x1D32 DUP4 DUP4 PUSH2 0x1C6D JUMP JUMPDEST DUP1 PUSH0 NOT DIV DUP3 GT ISZERO PUSH2 0x1D45 JUMPI PUSH2 0x1D45 PUSH2 0x1A6D JUMP JUMPDEST MUL SWAP4 SWAP3 POP POP POP JUMP JUMPDEST PUSH0 PUSH2 0xA88 PUSH1 0xFF DUP5 AND DUP4 PUSH2 0x1CAF JUMP JUMPDEST PUSH0 DUP3 PUSH2 0x1D75 JUMPI PUSH4 0x4E487B71 PUSH1 0xE0 SHL PUSH0 MSTORE PUSH1 0x12 PUSH1 0x4 MSTORE PUSH1 0x24 PUSH0 REVERT JUMPDEST POP DIV SWAP1 JUMP INVALID LOG2 PUSH5 0x6970667358 0x22 SLT KECCAK256 DIV MSIZE SIGNEXTEND SLT 0xC2 0xC1 NOT PUSH31 0x74BD5954694BFE46A8EC288C2A1D66E9F9AFADA6930B3AC964736F6C634300 ADDMOD AND STOP CALLER "
				},
				"gasEstimates": {
					"creation": {
						"codeDepositCost": "1520000",
						"executionCost": "infinite",
						"totalCost": "infinite"
					},
					"external": {
						"allowance(address,address)": "infinite",
						"approve(address,uint256)": "35270",
						"balanceOf(address)": "2562",
						"baseTokenURI()": "infinite",
						"dataURI()": "infinite",
						"decimals()": "infinite",
						"getApproved(uint256)": "2543",
						"isApprovedForAll(address,address)": "infinite",
						"minted()": "2384",
						"name()": "infinite",
						"owner()": "2403",
						"ownerOf(uint256)": "2597",
						"revokeOwnership()": "28146",
						"safeTransferFrom(address,address,uint256)": "infinite",
						"safeTransferFrom(address,address,uint256,bytes)": "infinite",
						"setApprovalForAll(address,bool)": "26649",
						"setDataURI(string)": "infinite",
						"setNameSymbol(string,string)": "infinite",
						"setTokenURI(string)": "infinite",
						"setWhitelist(address,bool)": "26897",
						"symbol()": "infinite",
						"tokenURI(uint256)": "infinite",
						"totalSupply()": "2340",
						"transfer(address,uint256)": "infinite",
						"transferFrom(address,address,uint256)": "infinite",
						"transferOwnership(address)": "28371",
						"whitelist(address)": "2573",
						"yeet(uint256)": "infinite"
					}
				},
				"methodIdentifiers": {
					"allowance(address,address)": "dd62ed3e",
					"approve(address,uint256)": "095ea7b3",
					"balanceOf(address)": "70a08231",
					"baseTokenURI()": "d547cfb7",
					"dataURI()": "f28ca1dd",
					"decimals()": "313ce567",
					"getApproved(uint256)": "081812fc",
					"isApprovedForAll(address,address)": "e985e9c5",
					"minted()": "4f02c420",
					"name()": "06fdde03",
					"owner()": "8da5cb5b",
					"ownerOf(uint256)": "6352211e",
					"revokeOwnership()": "2b968958",
					"safeTransferFrom(address,address,uint256)": "42842e0e",
					"safeTransferFrom(address,address,uint256,bytes)": "b88d4fde",
					"setApprovalForAll(address,bool)": "a22cb465",
					"setDataURI(string)": "18d217c3",
					"setNameSymbol(string,string)": "504334c2",
					"setTokenURI(string)": "e0df5b6f",
					"setWhitelist(address,bool)": "53d6fd59",
					"symbol()": "95d89b41",
					"tokenURI(uint256)": "c87b56dd",
					"totalSupply()": "18160ddd",
					"transfer(address,uint256)": "a9059cbb",
					"transferFrom(address,address,uint256)": "23b872dd",
					"transferOwnership(address)": "f2fde38b",
					"whitelist(address)": "9b19251a",
					"yeet(uint256)": "664dfa01"
				}
			},
			"storageLayout": {
				"storage": [
					{
						"astId": 1427,
						"contract": "src/Void.sol:Void",
						"label": "owner",
						"offset": 0,
						"slot": "0",
						"type": "t_address"
					},
					{
						"astId": 1603,
						"contract": "src/Void.sol:Void",
						"label": "name",
						"offset": 0,
						"slot": "1",
						"type": "t_string_storage"
					},
					{
						"astId": 1606,
						"contract": "src/Void.sol:Void",
						"label": "symbol",
						"offset": 0,
						"slot": "2",
						"type": "t_string_storage"
					},
					{
						"astId": 1612,
						"contract": "src/Void.sol:Void",
						"label": "totalSupply",
						"offset": 0,
						"slot": "3",
						"type": "t_uint256"
					},
					{
						"astId": 1615,
						"contract": "src/Void.sol:Void",
						"label": "minted",
						"offset": 0,
						"slot": "4",
						"type": "t_uint256"
					},
					{
						"astId": 1620,
						"contract": "src/Void.sol:Void",
						"label": "balanceOf",
						"offset": 0,
						"slot": "5",
						"type": "t_mapping(t_address,t_uint256)"
					},
					{
						"astId": 1627,
						"contract": "src/Void.sol:Void",
						"label": "allowance",
						"offset": 0,
						"slot": "6",
						"type": "t_mapping(t_address,t_mapping(t_address,t_uint256))"
					},
					{
						"astId": 1632,
						"contract": "src/Void.sol:Void",
						"label": "getApproved",
						"offset": 0,
						"slot": "7",
						"type": "t_mapping(t_uint256,t_address)"
					},
					{
						"astId": 1639,
						"contract": "src/Void.sol:Void",
						"label": "isApprovedForAll",
						"offset": 0,
						"slot": "8",
						"type": "t_mapping(t_address,t_mapping(t_address,t_bool))"
					},
					{
						"astId": 1644,
						"contract": "src/Void.sol:Void",
						"label": "_ownerOf",
						"offset": 0,
						"slot": "9",
						"type": "t_mapping(t_uint256,t_address)"
					},
					{
						"astId": 1650,
						"contract": "src/Void.sol:Void",
						"label": "_owned",
						"offset": 0,
						"slot": "10",
						"type": "t_mapping(t_address,t_array(t_uint256)dyn_storage)"
					},
					{
						"astId": 1655,
						"contract": "src/Void.sol:Void",
						"label": "_ownedIndex",
						"offset": 0,
						"slot": "11",
						"type": "t_mapping(t_uint256,t_uint256)"
					},
					{
						"astId": 1660,
						"contract": "src/Void.sol:Void",
						"label": "whitelist",
						"offset": 0,
						"slot": "12",
						"type": "t_mapping(t_address,t_bool)"
					},
					{
						"astId": 2481,
						"contract": "src/Void.sol:Void",
						"label": "dataURI",
						"offset": 0,
						"slot": "13",
						"type": "t_string_storage"
					},
					{
						"astId": 2483,
						"contract": "src/Void.sol:Void",
						"label": "baseTokenURI",
						"offset": 0,
						"slot": "14",
						"type": "t_string_storage"
					}
				],
				"types": {
					"t_address": {
						"encoding": "inplace",
						"label": "address",
						"numberOfBytes": "20"
					},
					"t_array(t_uint256)dyn_storage": {
						"base": "t_uint256",
						"encoding": "dynamic_array",
						"label": "uint256[]",
						"numberOfBytes": "32"
					},
					"t_bool": {
						"encoding": "inplace",
						"label": "bool",
						"numberOfBytes": "1"
					},
					"t_mapping(t_address,t_array(t_uint256)dyn_storage)": {
						"encoding": "mapping",
						"key": "t_address",
						"label": "mapping(address => uint256[])",
						"numberOfBytes": "32",
						"value": "t_array(t_uint256)dyn_storage"
					},
					"t_mapping(t_address,t_bool)": {
						"encoding": "mapping",
						"key": "t_address",
						"label": "mapping(address => bool)",
						"numberOfBytes": "32",
						"value": "t_bool"
					},
					"t_mapping(t_address,t_mapping(t_address,t_bool))": {
						"encoding": "mapping",
						"key": "t_address",
						"label": "mapping(address => mapping(address => bool))",
						"numberOfBytes": "32",
						"value": "t_mapping(t_address,t_bool)"
					},
					"t_mapping(t_address,t_mapping(t_address,t_uint256))": {
						"encoding": "mapping",
						"key": "t_address",
						"label": "mapping(address => mapping(address => uint256))",
						"numberOfBytes": "32",
						"value": "t_mapping(t_address,t_uint256)"
					},
					"t_mapping(t_address,t_uint256)": {
						"encoding": "mapping",
						"key": "t_address",
						"label": "mapping(address => uint256)",
						"numberOfBytes": "32",
						"value": "t_uint256"
					},
					"t_mapping(t_uint256,t_address)": {
						"encoding": "mapping",
						"key": "t_uint256",
						"label": "mapping(uint256 => address)",
						"numberOfBytes": "32",
						"value": "t_address"
					},
					"t_mapping(t_uint256,t_uint256)": {
						"encoding": "mapping",
						"key": "t_uint256",
						"label": "mapping(uint256 => uint256)",
						"numberOfBytes": "32",
						"value": "t_uint256"
					},
					"t_string_storage": {
						"encoding": "bytes",
						"label": "string",
						"numberOfBytes": "32"
					},
					"t_uint256": {
						"encoding": "inplace",
						"label": "uint256",
						"numberOfBytes": "32"
					}
				}
			},
			"userdoc": {
				"kind": "user",
				"methods": {
					"approve(address,uint256)": {
						"notice": "Function for token approvals"
					},
					"ownerOf(uint256)": {
						"notice": "Function to find owner of a given native token"
					},
					"safeTransferFrom(address,address,uint256)": {
						"notice": "Function for native transfers with contract support"
					},
					"safeTransferFrom(address,address,uint256,bytes)": {
						"notice": "Function for native transfers with contract support and callback data"
					},
					"setApprovalForAll(address,bool)": {
						"notice": "Function native approvals"
					},
					"setWhitelist(address,bool)": {
						"notice": "Initialization function to set pairs / etc         saving gas by avoiding mint / burn on unnecessary targets"
					},
					"tokenURI(uint256)": {
						"notice": "tokenURI must be implemented by child contract"
					},
					"transfer(address,uint256)": {
						"notice": "Function for fractional transfers"
					},
					"transferFrom(address,address,uint256)": {
						"notice": "Function for mixed transfers"
					}
				},
				"version": 1
			}
		}
	}
}